{
  "_format": "hh-sol-artifact-1",
  "contractName": "LoongTuu",
  "sourceName": "contracts/LoongTuu.sol",
  "abi": [
    {
      "inputs": [],
      "stateMutability": "nonpayable",
      "type": "constructor"
    },
    {
      "anonymous": false,
      "inputs": [
        {
          "indexed": true,
          "internalType": "address",
          "name": "owner",
          "type": "address"
        },
        {
          "indexed": true,
          "internalType": "address",
          "name": "spender",
          "type": "address"
        },
        {
          "indexed": false,
          "internalType": "uint256",
          "name": "value",
          "type": "uint256"
        }
      ],
      "name": "Approval",
      "type": "event"
    },
    {
      "anonymous": false,
      "inputs": [
        {
          "indexed": true,
          "internalType": "address",
          "name": "delegator",
          "type": "address"
        },
        {
          "indexed": true,
          "internalType": "address",
          "name": "fromDelegate",
          "type": "address"
        },
        {
          "indexed": true,
          "internalType": "address",
          "name": "toDelegate",
          "type": "address"
        }
      ],
      "name": "DelegateChanged",
      "type": "event"
    },
    {
      "anonymous": false,
      "inputs": [
        {
          "indexed": true,
          "internalType": "address",
          "name": "delegate",
          "type": "address"
        },
        {
          "indexed": false,
          "internalType": "uint256",
          "name": "previousBalance",
          "type": "uint256"
        },
        {
          "indexed": false,
          "internalType": "uint256",
          "name": "newBalance",
          "type": "uint256"
        }
      ],
      "name": "DelegateVotesChanged",
      "type": "event"
    },
    {
      "anonymous": false,
      "inputs": [
        {
          "indexed": true,
          "internalType": "address",
          "name": "previousOwner",
          "type": "address"
        },
        {
          "indexed": true,
          "internalType": "address",
          "name": "newOwner",
          "type": "address"
        }
      ],
      "name": "OwnershipTransferred",
      "type": "event"
    },
    {
      "anonymous": false,
      "inputs": [
        {
          "indexed": true,
          "internalType": "address",
          "name": "from",
          "type": "address"
        },
        {
          "indexed": true,
          "internalType": "address",
          "name": "to",
          "type": "address"
        },
        {
          "indexed": false,
          "internalType": "uint256",
          "name": "value",
          "type": "uint256"
        }
      ],
      "name": "Transfer",
      "type": "event"
    },
    {
      "inputs": [],
      "name": "DOMAIN_SEPARATOR",
      "outputs": [
        {
          "internalType": "bytes32",
          "name": "",
          "type": "bytes32"
        }
      ],
      "stateMutability": "view",
      "type": "function"
    },
    {
      "inputs": [
        {
          "internalType": "address",
          "name": "owner",
          "type": "address"
        },
        {
          "internalType": "address",
          "name": "spender",
          "type": "address"
        }
      ],
      "name": "allowance",
      "outputs": [
        {
          "internalType": "uint256",
          "name": "",
          "type": "uint256"
        }
      ],
      "stateMutability": "view",
      "type": "function"
    },
    {
      "inputs": [
        {
          "internalType": "address",
          "name": "spender",
          "type": "address"
        },
        {
          "internalType": "uint256",
          "name": "amount",
          "type": "uint256"
        }
      ],
      "name": "approve",
      "outputs": [
        {
          "internalType": "bool",
          "name": "",
          "type": "bool"
        }
      ],
      "stateMutability": "nonpayable",
      "type": "function"
    },
    {
      "inputs": [
        {
          "internalType": "address",
          "name": "account",
          "type": "address"
        }
      ],
      "name": "balanceOf",
      "outputs": [
        {
          "internalType": "uint256",
          "name": "",
          "type": "uint256"
        }
      ],
      "stateMutability": "view",
      "type": "function"
    },
    {
      "inputs": [
        {
          "internalType": "uint256",
          "name": "amount",
          "type": "uint256"
        }
      ],
      "name": "burn",
      "outputs": [],
      "stateMutability": "nonpayable",
      "type": "function"
    },
    {
      "inputs": [
        {
          "internalType": "address",
          "name": "account",
          "type": "address"
        },
        {
          "internalType": "uint256",
          "name": "amount",
          "type": "uint256"
        }
      ],
      "name": "burnFrom",
      "outputs": [],
      "stateMutability": "nonpayable",
      "type": "function"
    },
    {
      "inputs": [
        {
          "internalType": "address",
          "name": "account",
          "type": "address"
        },
        {
          "internalType": "uint32",
          "name": "pos",
          "type": "uint32"
        }
      ],
      "name": "checkpoints",
      "outputs": [
        {
          "components": [
            {
              "internalType": "uint32",
              "name": "fromBlock",
              "type": "uint32"
            },
            {
              "internalType": "uint224",
              "name": "votes",
              "type": "uint224"
            }
          ],
          "internalType": "struct ERC20Votes.Checkpoint",
          "name": "",
          "type": "tuple"
        }
      ],
      "stateMutability": "view",
      "type": "function"
    },
    {
      "inputs": [],
      "name": "decimals",
      "outputs": [
        {
          "internalType": "uint8",
          "name": "",
          "type": "uint8"
        }
      ],
      "stateMutability": "view",
      "type": "function"
    },
    {
      "inputs": [
        {
          "internalType": "address",
          "name": "spender",
          "type": "address"
        },
        {
          "internalType": "uint256",
          "name": "subtractedValue",
          "type": "uint256"
        }
      ],
      "name": "decreaseAllowance",
      "outputs": [
        {
          "internalType": "bool",
          "name": "",
          "type": "bool"
        }
      ],
      "stateMutability": "nonpayable",
      "type": "function"
    },
    {
      "inputs": [
        {
          "internalType": "address",
          "name": "delegatee",
          "type": "address"
        }
      ],
      "name": "delegate",
      "outputs": [],
      "stateMutability": "nonpayable",
      "type": "function"
    },
    {
      "inputs": [
        {
          "internalType": "address",
          "name": "delegatee",
          "type": "address"
        },
        {
          "internalType": "uint256",
          "name": "nonce",
          "type": "uint256"
        },
        {
          "internalType": "uint256",
          "name": "expiry",
          "type": "uint256"
        },
        {
          "internalType": "uint8",
          "name": "v",
          "type": "uint8"
        },
        {
          "internalType": "bytes32",
          "name": "r",
          "type": "bytes32"
        },
        {
          "internalType": "bytes32",
          "name": "s",
          "type": "bytes32"
        }
      ],
      "name": "delegateBySig",
      "outputs": [],
      "stateMutability": "nonpayable",
      "type": "function"
    },
    {
      "inputs": [
        {
          "internalType": "address",
          "name": "account",
          "type": "address"
        }
      ],
      "name": "delegates",
      "outputs": [
        {
          "internalType": "address",
          "name": "",
          "type": "address"
        }
      ],
      "stateMutability": "view",
      "type": "function"
    },
    {
      "inputs": [
        {
          "internalType": "uint256",
          "name": "blockNumber",
          "type": "uint256"
        }
      ],
      "name": "getPastTotalSupply",
      "outputs": [
        {
          "internalType": "uint256",
          "name": "",
          "type": "uint256"
        }
      ],
      "stateMutability": "view",
      "type": "function"
    },
    {
      "inputs": [
        {
          "internalType": "address",
          "name": "account",
          "type": "address"
        },
        {
          "internalType": "uint256",
          "name": "blockNumber",
          "type": "uint256"
        }
      ],
      "name": "getPastVotes",
      "outputs": [
        {
          "internalType": "uint256",
          "name": "",
          "type": "uint256"
        }
      ],
      "stateMutability": "view",
      "type": "function"
    },
    {
      "inputs": [
        {
          "internalType": "address",
          "name": "account",
          "type": "address"
        }
      ],
      "name": "getVotes",
      "outputs": [
        {
          "internalType": "uint256",
          "name": "",
          "type": "uint256"
        }
      ],
      "stateMutability": "view",
      "type": "function"
    },
    {
      "inputs": [
        {
          "internalType": "address",
          "name": "spender",
          "type": "address"
        },
        {
          "internalType": "uint256",
          "name": "addedValue",
          "type": "uint256"
        }
      ],
      "name": "increaseAllowance",
      "outputs": [
        {
          "internalType": "bool",
          "name": "",
          "type": "bool"
        }
      ],
      "stateMutability": "nonpayable",
      "type": "function"
    },
    {
      "inputs": [],
      "name": "name",
      "outputs": [
        {
          "internalType": "string",
          "name": "",
          "type": "string"
        }
      ],
      "stateMutability": "view",
      "type": "function"
    },
    {
      "inputs": [
        {
          "internalType": "address",
          "name": "owner",
          "type": "address"
        }
      ],
      "name": "nonces",
      "outputs": [
        {
          "internalType": "uint256",
          "name": "",
          "type": "uint256"
        }
      ],
      "stateMutability": "view",
      "type": "function"
    },
    {
      "inputs": [
        {
          "internalType": "address",
          "name": "account",
          "type": "address"
        }
      ],
      "name": "numCheckpoints",
      "outputs": [
        {
          "internalType": "uint32",
          "name": "",
          "type": "uint32"
        }
      ],
      "stateMutability": "view",
      "type": "function"
    },
    {
      "inputs": [],
      "name": "owner",
      "outputs": [
        {
          "internalType": "address",
          "name": "",
          "type": "address"
        }
      ],
      "stateMutability": "view",
      "type": "function"
    },
    {
      "inputs": [
        {
          "internalType": "address",
          "name": "owner",
          "type": "address"
        },
        {
          "internalType": "address",
          "name": "spender",
          "type": "address"
        },
        {
          "internalType": "uint256",
          "name": "value",
          "type": "uint256"
        },
        {
          "internalType": "uint256",
          "name": "deadline",
          "type": "uint256"
        },
        {
          "internalType": "uint8",
          "name": "v",
          "type": "uint8"
        },
        {
          "internalType": "bytes32",
          "name": "r",
          "type": "bytes32"
        },
        {
          "internalType": "bytes32",
          "name": "s",
          "type": "bytes32"
        }
      ],
      "name": "permit",
      "outputs": [],
      "stateMutability": "nonpayable",
      "type": "function"
    },
    {
      "inputs": [],
      "name": "renounceOwnership",
      "outputs": [],
      "stateMutability": "nonpayable",
      "type": "function"
    },
    {
      "inputs": [],
      "name": "symbol",
      "outputs": [
        {
          "internalType": "string",
          "name": "",
          "type": "string"
        }
      ],
      "stateMutability": "view",
      "type": "function"
    },
    {
      "inputs": [],
      "name": "totalSupply",
      "outputs": [
        {
          "internalType": "uint256",
          "name": "",
          "type": "uint256"
        }
      ],
      "stateMutability": "view",
      "type": "function"
    },
    {
      "inputs": [
        {
          "internalType": "address",
          "name": "recipient",
          "type": "address"
        },
        {
          "internalType": "uint256",
          "name": "amount",
          "type": "uint256"
        }
      ],
      "name": "transfer",
      "outputs": [
        {
          "internalType": "bool",
          "name": "",
          "type": "bool"
        }
      ],
      "stateMutability": "nonpayable",
      "type": "function"
    },
    {
      "inputs": [
        {
          "internalType": "address",
          "name": "sender",
          "type": "address"
        },
        {
          "internalType": "address",
          "name": "recipient",
          "type": "address"
        },
        {
          "internalType": "uint256",
          "name": "amount",
          "type": "uint256"
        }
      ],
      "name": "transferFrom",
      "outputs": [
        {
          "internalType": "bool",
          "name": "",
          "type": "bool"
        }
      ],
      "stateMutability": "nonpayable",
      "type": "function"
    },
    {
      "inputs": [
        {
          "internalType": "address",
          "name": "newOwner",
          "type": "address"
        }
      ],
      "name": "transferOwnership",
      "outputs": [],
      "stateMutability": "nonpayable",
      "type": "function"
    }
  ],
  "bytecode": "0x6101606040527f6e71edae12b1b97f4d1f60370fef10105fa2faae0126114a169c64845d6126c9610140523480156200003757600080fd5b506040518060400160405280600f81526020016e2637b7b733aa3abaa6282a37b5b2b760891b81525080604051806040016040528060018152602001603160f81b8152506040518060400160405280600e81526020016d2637b7b733aa3aba902a37b5b2b760911b8152506040518060400160405280600381526020016213151560ea1b8152508160039080519060200190620000d69291906200082e565b508051620000ec9060049060208401906200082e565b5050506200010962000103620001d860201b60201c565b620001dc565b815160208084019190912082518383012060e08290526101008190524660a0818152604080517f8b73c3c69bb8fe3d512ecc4cf759cc79239f7b179b0ffacaa9a75d522b39400f81880181905281830187905260608201869052608082019490945230818401528151808203909301835260c00190528051940193909320919290916080523060601b60c0526101205250620001d29350339250620001af915050601290565b620001bc90600a6200092e565b620001cc90631dcd6500620009ed565b6200022e565b62000a92565b3390565b600580546001600160a01b038381166001600160a01b0319831681179093556040519116919082907f8be0079c531659141344cd1fd0a4f28419497f9722a3daafe3b4186f6b6457e090600090a35050565b6200024582826200024960201b62000df41760201c565b5050565b6200026082826200030060201b62000ea61760201c565b6001600160e01b0362000274620003ef8216565b1115620002e15760405162461bcd60e51b815260206004820152603060248201527f4552433230566f7465733a20746f74616c20737570706c79207269736b73206f60448201526f766572666c6f77696e6720766f74657360801b60648201526084015b60405180910390fd5b620002fa600962000f91620003f560201b17836200040c565b50505050565b6001600160a01b038216620003585760405162461bcd60e51b815260206004820152601f60248201527f45524332303a206d696e7420746f20746865207a65726f2061646472657373006044820152606401620002d8565b80600260008282546200036c9190620008ca565b90915550506001600160a01b038216600090815260208190526040812080548392906200039b908490620008ca565b90915550506040518181526001600160a01b038316906000907fddf252ad1be2c89b69c2b068fc378daa952ba7f163c4a11628f55a4df523b3ef9060200160405180910390a36200024560008383620005c3565b60025490565b6000620004038284620008ca565b90505b92915050565b8254600090819080156200045e57856200042860018362000a0f565b815481106200043b576200043b62000a7c565b60009182526020909120015464010000000090046001600160e01b031662000461565b60005b6001600160e01b031692506200047883858760201c565b9150600081118015620004bc575043866200049560018462000a0f565b81548110620004a857620004a862000a7c565b60009182526020909120015463ffffffff16145b156200053057620004d882620005db60201b62000f9d1760201c565b86620004e660018462000a0f565b81548110620004f957620004f962000a7c565b9060005260206000200160000160046101000a8154816001600160e01b0302191690836001600160e01b03160217905550620005b5565b85604051806040016040528062000552436200064a60201b620010351760201c565b63ffffffff1681526020016200057385620005db60201b62000f9d1760201c565b6001600160e01b0390811690915282546001810184556000938452602093849020835194909301519091166401000000000263ffffffff909316929092179101555b50935093915050565b505050565b620005be838383620006b160201b620010b11760201c565b60006001600160e01b03821115620006465760405162461bcd60e51b815260206004820152602760248201527f53616665436173743a2076616c756520646f65736e27742066697420696e20326044820152663234206269747360c81b6064820152608401620002d8565b5090565b600063ffffffff821115620006465760405162461bcd60e51b815260206004820152602660248201527f53616665436173743a2076616c756520646f65736e27742066697420696e203360448201526532206269747360d01b6064820152608401620002d8565b620006c9838383620005be60201b620007e51760201c565b6001600160a01b03838116600090815260076020526040808220548584168352912054620005be92918216911683818314801590620007085750600081115b15620005be576001600160a01b0383161562000795576001600160a01b03831660009081526008602090815260408220829162000752919062000820901b620010e317856200040c565b91509150846001600160a01b031660008051602062002eef83398151915283836040516200078a929190918252602082015260400190565b60405180910390a250505b6001600160a01b03821615620005be576001600160a01b038216600090815260086020908152604082208291620007d99190620003f5901b62000f9117856200040c565b91509150836001600160a01b031660008051602062002eef833981519152838360405162000811929190918252602082015260400190565b60405180910390a25050505050565b600062000403828462000a0f565b8280546200083c9062000a29565b90600052602060002090601f016020900481019282620008605760008555620008ab565b82601f106200087b57805160ff1916838001178555620008ab565b82800160010185558215620008ab579182015b82811115620008ab5782518255916020019190600101906200088e565b50620006469291505b80821115620006465760008155600101620008b4565b60008219821115620008e057620008e062000a66565b500190565b600181815b80851115620009265781600019048211156200090a576200090a62000a66565b808516156200091857918102915b93841c9390800290620008ea565b509250929050565b60006200040360ff8416836000826200094a5750600162000406565b81620009595750600062000406565b81600181146200097257600281146200097d576200099d565b600191505062000406565b60ff84111562000991576200099162000a66565b50506001821b62000406565b5060208310610133831016604e8410600b8410161715620009c2575081810a62000406565b620009ce8383620008e5565b8060001904821115620009e557620009e562000a66565b029392505050565b600081600019048311821515161562000a0a5762000a0a62000a66565b500290565b60008282101562000a245762000a2462000a66565b500390565b600181811c9082168062000a3e57607f821691505b6020821081141562000a6057634e487b7160e01b600052602260045260246000fd5b50919050565b634e487b7160e01b600052601160045260246000fd5b634e487b7160e01b600052603260045260246000fd5b60805160a05160c05160601c60e0516101005161012051610140516123ff62000af06000396000610b6c015260006114ee0152600061153d01526000611518015260006114710152600061149b015260006114c501526123ff6000f3fe608060405234801561001057600080fd5b50600436106101b95760003560e01c8063715018a6116100f9578063a457c2d711610097578063d505accf11610071578063d505accf146103c4578063dd62ed3e146103d7578063f1127ed814610410578063f2fde38b1461046257600080fd5b8063a457c2d71461038b578063a9059cbb1461039e578063c3cda520146103b157600080fd5b80638da5cb5b116100d35780638da5cb5b1461034c5780638e539e8c1461035d57806395d89b41146103705780639ab24eb01461037857600080fd5b8063715018a61461031e57806379cc6790146103265780637ecebe001461033957600080fd5b80633950935111610166578063587cde1e11610140578063587cde1e146102765780635c19a95c146102ba5780636fcfff45146102cd57806370a08231146102f557600080fd5b8063395093511461023b5780633a46b1a81461024e57806342966c681461026157600080fd5b806323b872dd1161019757806323b872dd14610211578063313ce567146102245780633644e5151461023357600080fd5b806306fdde03146101be578063095ea7b3146101dc57806318160ddd146101ff575b600080fd5b6101c6610475565b6040516101d39190612211565b60405180910390f35b6101ef6101ea366004612136565b610507565b60405190151581526020016101d3565b6002545b6040519081526020016101d3565b6101ef61021f366004612090565b61051d565b604051601281526020016101d3565b6102036105e1565b6101ef610249366004612136565b6105f0565b61020361025c366004612136565b61062c565b61027461026f3660046121f8565b6106a6565b005b6102a2610284366004612042565b6001600160a01b039081166000908152600760205260409020541690565b6040516001600160a01b0390911681526020016101d3565b6102746102c8366004612042565b6106b3565b6102e06102db366004612042565b6106bd565b60405163ffffffff90911681526020016101d3565b610203610303366004612042565b6001600160a01b031660009081526020819052604090205490565b6102746106e5565b610274610334366004612136565b61074b565b610203610347366004612042565b6107ea565b6005546001600160a01b03166102a2565b61020361036b3660046121f8565b610808565b6101c6610864565b610203610386366004612042565b610873565b6101ef610399366004612136565b610924565b6101ef6103ac366004612136565b6109d5565b6102746103bf366004612160565b6109e2565b6102746103d23660046120cc565b610b18565b6102036103e536600461205d565b6001600160a01b03918216600090815260016020908152604080832093909416825291909152205490565b61042361041e3660046121b8565b610c7c565b60408051825163ffffffff1681526020928301517bffffffffffffffffffffffffffffffffffffffffffffffffffffffff1692810192909252016101d3565b610274610470366004612042565b610d15565b606060038054610484906122ee565b80601f01602080910402602001604051908101604052809291908181526020018280546104b0906122ee565b80156104fd5780601f106104d2576101008083540402835291602001916104fd565b820191906000526020600020905b8154815290600101906020018083116104e057829003601f168201915b5050505050905090565b60006105143384846110ef565b50600192915050565b600061052a848484611247565b6001600160a01b0384166000908152600160209081526040808320338452909152902054828110156105c95760405162461bcd60e51b815260206004820152602860248201527f45524332303a207472616e7366657220616d6f756e742065786365656473206160448201527f6c6c6f77616e636500000000000000000000000000000000000000000000000060648201526084015b60405180910390fd5b6105d685338584036110ef565b506001949350505050565b60006105eb611464565b905090565b3360008181526001602090815260408083206001600160a01b03871684529091528120549091610514918590610627908690612284565b6110ef565b600043821061067d5760405162461bcd60e51b815260206004820152601f60248201527f4552433230566f7465733a20626c6f636b206e6f7420796574206d696e65640060448201526064016105c0565b6001600160a01b038316600090815260086020526040902061069f908361158b565b9392505050565b6106b03382611672565b50565b6106b0338261167c565b6001600160a01b0381166000908152600860205260408120546106df90611035565b92915050565b6005546001600160a01b0316331461073f5760405162461bcd60e51b815260206004820181905260248201527f4f776e61626c653a2063616c6c6572206973206e6f7420746865206f776e657260448201526064016105c0565b610749600061170d565b565b600061075783336103e5565b9050818110156107ce5760405162461bcd60e51b8152602060048201526024808201527f45524332303a206275726e20616d6f756e74206578636565647320616c6c6f7760448201527f616e63650000000000000000000000000000000000000000000000000000000060648201526084016105c0565b6107db83338484036110ef565b6107e58383611672565b505050565b6001600160a01b0381166000908152600660205260408120546106df565b60004382106108595760405162461bcd60e51b815260206004820152601f60248201527f4552433230566f7465733a20626c6f636b206e6f7420796574206d696e65640060448201526064016105c0565b6106df60098361158b565b606060048054610484906122ee565b6001600160a01b03811660009081526008602052604081205480156108fc576001600160a01b03831660009081526008602052604090206108b56001836122d7565b815481106108c5576108c561239a565b60009182526020909120015464010000000090047bffffffffffffffffffffffffffffffffffffffffffffffffffffffff166108ff565b60005b7bffffffffffffffffffffffffffffffffffffffffffffffffffffffff169392505050565b3360009081526001602090815260408083206001600160a01b0386168452909152812054828110156109be5760405162461bcd60e51b815260206004820152602560248201527f45524332303a2064656372656173656420616c6c6f77616e63652062656c6f7760448201527f207a65726f00000000000000000000000000000000000000000000000000000060648201526084016105c0565b6109cb33858584036110ef565b5060019392505050565b6000610514338484611247565b83421115610a325760405162461bcd60e51b815260206004820152601d60248201527f4552433230566f7465733a207369676e6174757265206578706972656400000060448201526064016105c0565b604080517fe48329057bfd03d55e49b547132e39cffd9c1820ad7b9d4c5307691425d15adf60208201526001600160a01b038816918101919091526060810186905260808101859052600090610aac90610aa49060a00160405160208183030381529060405280519060200120611777565b8585856117e0565b9050610ab781611808565b8614610b055760405162461bcd60e51b815260206004820152601960248201527f4552433230566f7465733a20696e76616c6964206e6f6e63650000000000000060448201526064016105c0565b610b0f818861167c565b50505050505050565b83421115610b685760405162461bcd60e51b815260206004820152601d60248201527f45524332305065726d69743a206578706972656420646561646c696e6500000060448201526064016105c0565b60007f0000000000000000000000000000000000000000000000000000000000000000888888610b978c611808565b6040805160208101969096526001600160a01b0394851690860152929091166060840152608083015260a082015260c0810186905260e0016040516020818303038152906040528051906020012090506000610bf282611777565b90506000610c02828787876117e0565b9050896001600160a01b0316816001600160a01b031614610c655760405162461bcd60e51b815260206004820152601e60248201527f45524332305065726d69743a20696e76616c6964207369676e6174757265000060448201526064016105c0565b610c708a8a8a6110ef565b50505050505050505050565b60408051808201909152600080825260208201526001600160a01b0383166000908152600860205260409020805463ffffffff8416908110610cc057610cc061239a565b60009182526020918290206040805180820190915291015463ffffffff8116825264010000000090047bffffffffffffffffffffffffffffffffffffffffffffffffffffffff16918101919091529392505050565b6005546001600160a01b03163314610d6f5760405162461bcd60e51b815260206004820181905260248201527f4f776e61626c653a2063616c6c6572206973206e6f7420746865206f776e657260448201526064016105c0565b6001600160a01b038116610deb5760405162461bcd60e51b815260206004820152602660248201527f4f776e61626c653a206e6577206f776e657220697320746865207a65726f206160448201527f646472657373000000000000000000000000000000000000000000000000000060648201526084016105c0565b6106b08161170d565b610dfe8282610ea6565b6002547bffffffffffffffffffffffffffffffffffffffffffffffffffffffff1015610e925760405162461bcd60e51b815260206004820152603060248201527f4552433230566f7465733a20746f74616c20737570706c79207269736b73206f60448201527f766572666c6f77696e6720766f7465730000000000000000000000000000000060648201526084016105c0565b610ea06009610f9183611830565b50505050565b6001600160a01b038216610efc5760405162461bcd60e51b815260206004820152601f60248201527f45524332303a206d696e7420746f20746865207a65726f20616464726573730060448201526064016105c0565b8060026000828254610f0e9190612284565b90915550506001600160a01b03821660009081526020819052604081208054839290610f3b908490612284565b90915550506040518181526001600160a01b038316906000907fddf252ad1be2c89b69c2b068fc378daa952ba7f163c4a11628f55a4df523b3ef9060200160405180910390a3610f8d60008383611a12565b5050565b600061069f8284612284565b60007bffffffffffffffffffffffffffffffffffffffffffffffffffffffff8211156110315760405162461bcd60e51b815260206004820152602760248201527f53616665436173743a2076616c756520646f65736e27742066697420696e203260448201527f323420626974730000000000000000000000000000000000000000000000000060648201526084016105c0565b5090565b600063ffffffff8211156110315760405162461bcd60e51b815260206004820152602660248201527f53616665436173743a2076616c756520646f65736e27742066697420696e203360448201527f322062697473000000000000000000000000000000000000000000000000000060648201526084016105c0565b6001600160a01b038381166000908152600760205260408082205485841683529120546107e592918216911683611a1d565b600061069f82846122d7565b6001600160a01b03831661116a5760405162461bcd60e51b8152602060048201526024808201527f45524332303a20617070726f76652066726f6d20746865207a65726f2061646460448201527f726573730000000000000000000000000000000000000000000000000000000060648201526084016105c0565b6001600160a01b0382166111e65760405162461bcd60e51b815260206004820152602260248201527f45524332303a20617070726f766520746f20746865207a65726f20616464726560448201527f737300000000000000000000000000000000000000000000000000000000000060648201526084016105c0565b6001600160a01b0383811660008181526001602090815260408083209487168084529482529182902085905590518481527f8c5be1e5ebec7d5bd14f71427d1e84f3dd0314c0f7b2291e5b200ac8c7c3b925910160405180910390a3505050565b6001600160a01b0383166112c35760405162461bcd60e51b815260206004820152602560248201527f45524332303a207472616e736665722066726f6d20746865207a65726f20616460448201527f647265737300000000000000000000000000000000000000000000000000000060648201526084016105c0565b6001600160a01b03821661133f5760405162461bcd60e51b815260206004820152602360248201527f45524332303a207472616e7366657220746f20746865207a65726f206164647260448201527f657373000000000000000000000000000000000000000000000000000000000060648201526084016105c0565b6001600160a01b038316600090815260208190526040902054818110156113ce5760405162461bcd60e51b815260206004820152602660248201527f45524332303a207472616e7366657220616d6f756e742065786365656473206260448201527f616c616e6365000000000000000000000000000000000000000000000000000060648201526084016105c0565b6001600160a01b03808516600090815260208190526040808220858503905591851681529081208054849290611405908490612284565b92505081905550826001600160a01b0316846001600160a01b03167fddf252ad1be2c89b69c2b068fc378daa952ba7f163c4a11628f55a4df523b3ef8460405161145191815260200190565b60405180910390a3610ea0848484611a12565b6000306001600160a01b037f0000000000000000000000000000000000000000000000000000000000000000161480156114bd57507f000000000000000000000000000000000000000000000000000000000000000046145b156114e757507f000000000000000000000000000000000000000000000000000000000000000090565b50604080517f00000000000000000000000000000000000000000000000000000000000000006020808301919091527f0000000000000000000000000000000000000000000000000000000000000000828401527f000000000000000000000000000000000000000000000000000000000000000060608301524660808301523060a0808401919091528351808403909101815260c0909201909252805191012090565b8154600090815b818110156115ef5760006115a68284611b5a565b9050848682815481106115bb576115bb61239a565b60009182526020909120015463ffffffff1611156115db578092506115e9565b6115e6816001612284565b91505b50611592565b811561164857846116016001846122d7565b815481106116115761161161239a565b60009182526020909120015464010000000090047bffffffffffffffffffffffffffffffffffffffffffffffffffffffff1661164b565b60005b7bffffffffffffffffffffffffffffffffffffffffffffffffffffffff1695945050505050565b610f8d8282611b75565b6001600160a01b038281166000818152600760208181526040808420805485845282862054949093528787167fffffffffffffffffffffffff00000000000000000000000000000000000000008416811790915590519190951694919391928592917f3134e8a2e6d97e929a7e54011ea5485d7d196dd5f0ba4d4ef95803e8e3fc257f9190a4610ea0828483611a1d565b600580546001600160a01b038381167fffffffffffffffffffffffff0000000000000000000000000000000000000000831681179093556040519116919082907f8be0079c531659141344cd1fd0a4f28419497f9722a3daafe3b4186f6b6457e090600090a35050565b60006106df611784611464565b836040517f19010000000000000000000000000000000000000000000000000000000000006020820152602281018390526042810182905260009060620160405160208183030381529060405280519060200120905092915050565b60008060006117f187878787611b8d565b915091506117fe81611c98565b5095945050505050565b6001600160a01b03811660009081526006602052604090208054600181018255905b50919050565b82546000908190801561189057856118496001836122d7565b815481106118595761185961239a565b60009182526020909120015464010000000090047bffffffffffffffffffffffffffffffffffffffffffffffffffffffff16611893565b60005b7bffffffffffffffffffffffffffffffffffffffffffffffffffffffff1692506118c183858763ffffffff16565b91506000811180156118ff575043866118db6001846122d7565b815481106118eb576118eb61239a565b60009182526020909120015463ffffffff16145b156119895761190d82610f9d565b866119196001846122d7565b815481106119295761192961239a565b9060005260206000200160000160046101000a8154817bffffffffffffffffffffffffffffffffffffffffffffffffffffffff02191690837bffffffffffffffffffffffffffffffffffffffffffffffffffffffff160217905550611a09565b85604051806040016040528061199e43611035565b63ffffffff1681526020016119b285610f9d565b7bffffffffffffffffffffffffffffffffffffffffffffffffffffffff90811690915282546001810184556000938452602093849020835194909301519091166401000000000263ffffffff909316929092179101555b50935093915050565b6107e58383836110b1565b816001600160a01b0316836001600160a01b031614158015611a3f5750600081115b156107e5576001600160a01b03831615611acd576001600160a01b03831660009081526008602052604081208190611a7a906110e385611830565b91509150846001600160a01b03167fdec2bacdd2f05b59de34da9b523dff8be42e5e38e818c82fdb0bae774387a7248383604051611ac2929190918252602082015260400190565b60405180910390a250505b6001600160a01b038216156107e5576001600160a01b03821660009081526008602052604081208190611b0390610f9185611830565b91509150836001600160a01b03167fdec2bacdd2f05b59de34da9b523dff8be42e5e38e818c82fdb0bae774387a7248383604051611b4b929190918252602082015260400190565b60405180910390a25050505050565b6000611b69600284841861229c565b61069f90848416612284565b611b7f8282611e89565b610ea060096110e383611830565b6000807f7fffffffffffffffffffffffffffffff5d576e7357a4501ddfe92f46681b20a0831115611bc45750600090506003611c8f565b8460ff16601b14158015611bdc57508460ff16601c14155b15611bed5750600090506004611c8f565b6040805160008082526020820180845289905260ff881692820192909252606081018690526080810185905260019060a0016020604051602081039080840390855afa158015611c41573d6000803e3d6000fd5b50506040517fffffffffffffffffffffffffffffffffffffffffffffffffffffffffffffffe001519150506001600160a01b038116611c8857600060019250925050611c8f565b9150600090505b94509492505050565b6000816004811115611cac57611cac61236b565b1415611cb55750565b6001816004811115611cc957611cc961236b565b1415611d175760405162461bcd60e51b815260206004820152601860248201527f45434453413a20696e76616c6964207369676e6174757265000000000000000060448201526064016105c0565b6002816004811115611d2b57611d2b61236b565b1415611d795760405162461bcd60e51b815260206004820152601f60248201527f45434453413a20696e76616c6964207369676e6174757265206c656e6774680060448201526064016105c0565b6003816004811115611d8d57611d8d61236b565b1415611e015760405162461bcd60e51b815260206004820152602260248201527f45434453413a20696e76616c6964207369676e6174757265202773272076616c60448201527f756500000000000000000000000000000000000000000000000000000000000060648201526084016105c0565b6004816004811115611e1557611e1561236b565b14156106b05760405162461bcd60e51b815260206004820152602260248201527f45434453413a20696e76616c6964207369676e6174757265202776272076616c60448201527f756500000000000000000000000000000000000000000000000000000000000060648201526084016105c0565b6001600160a01b038216611f055760405162461bcd60e51b815260206004820152602160248201527f45524332303a206275726e2066726f6d20746865207a65726f2061646472657360448201527f730000000000000000000000000000000000000000000000000000000000000060648201526084016105c0565b6001600160a01b03821660009081526020819052604090205481811015611f945760405162461bcd60e51b815260206004820152602260248201527f45524332303a206275726e20616d6f756e7420657863656564732062616c616e60448201527f636500000000000000000000000000000000000000000000000000000000000060648201526084016105c0565b6001600160a01b0383166000908152602081905260408120838303905560028054849290611fc39084906122d7565b90915550506040518281526000906001600160a01b038516907fddf252ad1be2c89b69c2b068fc378daa952ba7f163c4a11628f55a4df523b3ef9060200160405180910390a36107e583600084611a12565b80356001600160a01b038116811461202c57600080fd5b919050565b803560ff8116811461202c57600080fd5b60006020828403121561205457600080fd5b61069f82612015565b6000806040838503121561207057600080fd5b61207983612015565b915061208760208401612015565b90509250929050565b6000806000606084860312156120a557600080fd5b6120ae84612015565b92506120bc60208501612015565b9150604084013590509250925092565b600080600080600080600060e0888a0312156120e757600080fd5b6120f088612015565b96506120fe60208901612015565b9550604088013594506060880135935061211a60808901612031565b925060a0880135915060c0880135905092959891949750929550565b6000806040838503121561214957600080fd5b61215283612015565b946020939093013593505050565b60008060008060008060c0878903121561217957600080fd5b61218287612015565b9550602087013594506040870135935061219e60608801612031565b92506080870135915060a087013590509295509295509295565b600080604083850312156121cb57600080fd5b6121d483612015565b9150602083013563ffffffff811681146121ed57600080fd5b809150509250929050565b60006020828403121561220a57600080fd5b5035919050565b600060208083528351808285015260005b8181101561223e57858101830151858201604001528201612222565b81811115612250576000604083870101525b50601f017fffffffffffffffffffffffffffffffffffffffffffffffffffffffffffffffe016929092016040019392505050565b600082198211156122975761229761233c565b500190565b6000826122d2577f4e487b7100000000000000000000000000000000000000000000000000000000600052601260045260246000fd5b500490565b6000828210156122e9576122e961233c565b500390565b600181811c9082168061230257607f821691505b6020821081141561182a577f4e487b7100000000000000000000000000000000000000000000000000000000600052602260045260246000fd5b7f4e487b7100000000000000000000000000000000000000000000000000000000600052601160045260246000fd5b7f4e487b7100000000000000000000000000000000000000000000000000000000600052602160045260246000fd5b7f4e487b7100000000000000000000000000000000000000000000000000000000600052603260045260246000fdfea2646970667358221220d370497be6d7aed0fc7159db13d70296a9a31bda063359988495718a1b971c1f64736f6c63430008070033dec2bacdd2f05b59de34da9b523dff8be42e5e38e818c82fdb0bae774387a724",
  "linkReferences": {},
  "deployedLinkReferences": {}
}