{
  "address": "0x01b6AABf4c744a2c1718067BEa1bcaB1312ed42B",
  "abi": [
    {
      "inputs": [
        {
          "internalType": "contract IERC20",
          "name": "_evermoon",
          "type": "address"
        }
      ],
      "stateMutability": "nonpayable",
      "type": "constructor"
    },
    {
      "anonymous": false,
      "inputs": [
        {
          "indexed": true,
          "internalType": "address",
          "name": "user",
          "type": "address"
        },
        {
          "indexed": true,
          "internalType": "uint256",
          "name": "pid",
          "type": "uint256"
        },
        {
          "indexed": false,
          "internalType": "uint256",
          "name": "amount",
          "type": "uint256"
        },
        {
          "indexed": true,
          "internalType": "address",
          "name": "to",
          "type": "address"
        }
      ],
      "name": "Deposit",
      "type": "event"
    },
    {
      "anonymous": false,
      "inputs": [
        {
          "indexed": true,
          "internalType": "address",
          "name": "user",
          "type": "address"
        },
        {
          "indexed": true,
          "internalType": "uint256",
          "name": "pid",
          "type": "uint256"
        },
        {
          "indexed": false,
          "internalType": "uint256",
          "name": "amount",
          "type": "uint256"
        },
        {
          "indexed": true,
          "internalType": "address",
          "name": "to",
          "type": "address"
        }
      ],
      "name": "EmergencyWithdraw",
      "type": "event"
    },
    {
      "anonymous": false,
      "inputs": [
        {
          "indexed": true,
          "internalType": "address",
          "name": "user",
          "type": "address"
        },
        {
          "indexed": true,
          "internalType": "uint256",
          "name": "pid",
          "type": "uint256"
        },
        {
          "indexed": false,
          "internalType": "uint256",
          "name": "amount",
          "type": "uint256"
        }
      ],
      "name": "Harvest",
      "type": "event"
    },
    {
      "anonymous": false,
      "inputs": [
        {
          "indexed": false,
          "internalType": "uint256",
          "name": "evermoonPerSecond",
          "type": "uint256"
        }
      ],
      "name": "LogEvermoonPerSecond",
      "type": "event"
    },
    {
      "anonymous": false,
      "inputs": [
        {
          "indexed": true,
          "internalType": "uint256",
          "name": "pid",
          "type": "uint256"
        },
        {
          "indexed": false,
          "internalType": "uint256",
          "name": "allocPoint",
          "type": "uint256"
        },
        {
          "indexed": true,
          "internalType": "contract IERC20",
          "name": "lpToken",
          "type": "address"
        },
        {
          "indexed": true,
          "internalType": "contract IRewarder",
          "name": "rewarder",
          "type": "address"
        }
      ],
      "name": "LogPoolAddition",
      "type": "event"
    },
    {
      "anonymous": false,
      "inputs": [
        {
          "indexed": true,
          "internalType": "uint256",
          "name": "pid",
          "type": "uint256"
        },
        {
          "indexed": false,
          "internalType": "uint256",
          "name": "allocPoint",
          "type": "uint256"
        },
        {
          "indexed": true,
          "internalType": "contract IRewarder",
          "name": "rewarder",
          "type": "address"
        },
        {
          "indexed": false,
          "internalType": "bool",
          "name": "overwrite",
          "type": "bool"
        }
      ],
      "name": "LogSetPool",
      "type": "event"
    },
    {
      "anonymous": false,
      "inputs": [
        {
          "indexed": true,
          "internalType": "uint256",
          "name": "pid",
          "type": "uint256"
        },
        {
          "indexed": false,
          "internalType": "uint64",
          "name": "lastRewardTime",
          "type": "uint64"
        },
        {
          "indexed": false,
          "internalType": "uint256",
          "name": "lpSupply",
          "type": "uint256"
        },
        {
          "indexed": false,
          "internalType": "uint256",
          "name": "accEvermoonPerShare",
          "type": "uint256"
        }
      ],
      "name": "LogUpdatePool",
      "type": "event"
    },
    {
      "anonymous": false,
      "inputs": [
        {
          "indexed": true,
          "internalType": "address",
          "name": "previousOwner",
          "type": "address"
        },
        {
          "indexed": true,
          "internalType": "address",
          "name": "newOwner",
          "type": "address"
        }
      ],
      "name": "OwnershipTransferred",
      "type": "event"
    },
    {
      "anonymous": false,
      "inputs": [
        {
          "indexed": true,
          "internalType": "address",
          "name": "user",
          "type": "address"
        },
        {
          "indexed": true,
          "internalType": "uint256",
          "name": "pid",
          "type": "uint256"
        },
        {
          "indexed": false,
          "internalType": "uint256",
          "name": "amount",
          "type": "uint256"
        },
        {
          "indexed": true,
          "internalType": "address",
          "name": "to",
          "type": "address"
        }
      ],
      "name": "Withdraw",
      "type": "event"
    },
    {
      "inputs": [],
      "name": "EVERMOON",
      "outputs": [
        {
          "internalType": "contract IERC20",
          "name": "",
          "type": "address"
        }
      ],
      "stateMutability": "view",
      "type": "function"
    },
    {
      "inputs": [
        {
          "internalType": "uint256",
          "name": "allocPoint",
          "type": "uint256"
        },
        {
          "internalType": "contract IERC20",
          "name": "_lpToken",
          "type": "address"
        },
        {
          "internalType": "contract IRewarder",
          "name": "_rewarder",
          "type": "address"
        }
      ],
      "name": "add",
      "outputs": [],
      "stateMutability": "nonpayable",
      "type": "function"
    },
    {
      "inputs": [
        {
          "internalType": "bytes[]",
          "name": "calls",
          "type": "bytes[]"
        },
        {
          "internalType": "bool",
          "name": "revertOnFail",
          "type": "bool"
        }
      ],
      "name": "batch",
      "outputs": [
        {
          "internalType": "bool[]",
          "name": "successes",
          "type": "bool[]"
        },
        {
          "internalType": "bytes[]",
          "name": "results",
          "type": "bytes[]"
        }
      ],
      "stateMutability": "payable",
      "type": "function"
    },
    {
      "inputs": [],
      "name": "claimOwnership",
      "outputs": [],
      "stateMutability": "nonpayable",
      "type": "function"
    },
    {
      "inputs": [
        {
          "internalType": "uint256",
          "name": "pid",
          "type": "uint256"
        },
        {
          "internalType": "uint256",
          "name": "amount",
          "type": "uint256"
        },
        {
          "internalType": "address",
          "name": "to",
          "type": "address"
        }
      ],
      "name": "deposit",
      "outputs": [],
      "stateMutability": "nonpayable",
      "type": "function"
    },
    {
      "inputs": [
        {
          "internalType": "uint256",
          "name": "pid",
          "type": "uint256"
        },
        {
          "internalType": "address",
          "name": "to",
          "type": "address"
        }
      ],
      "name": "emergencyWithdraw",
      "outputs": [],
      "stateMutability": "nonpayable",
      "type": "function"
    },
    {
      "inputs": [],
      "name": "evermoonPerSecond",
      "outputs": [
        {
          "internalType": "uint256",
          "name": "",
          "type": "uint256"
        }
      ],
      "stateMutability": "view",
      "type": "function"
    },
    {
      "inputs": [
        {
          "internalType": "uint256",
          "name": "pid",
          "type": "uint256"
        },
        {
          "internalType": "address",
          "name": "to",
          "type": "address"
        }
      ],
      "name": "harvest",
      "outputs": [],
      "stateMutability": "nonpayable",
      "type": "function"
    },
    {
      "inputs": [
        {
          "internalType": "uint256",
          "name": "",
          "type": "uint256"
        }
      ],
      "name": "lpToken",
      "outputs": [
        {
          "internalType": "contract IERC20",
          "name": "",
          "type": "address"
        }
      ],
      "stateMutability": "view",
      "type": "function"
    },
    {
      "inputs": [
        {
          "internalType": "uint256[]",
          "name": "pids",
          "type": "uint256[]"
        }
      ],
      "name": "massUpdatePools",
      "outputs": [],
      "stateMutability": "nonpayable",
      "type": "function"
    },
    {
      "inputs": [],
      "name": "owner",
      "outputs": [
        {
          "internalType": "address",
          "name": "",
          "type": "address"
        }
      ],
      "stateMutability": "view",
      "type": "function"
    },
    {
      "inputs": [
        {
          "internalType": "uint256",
          "name": "_pid",
          "type": "uint256"
        },
        {
          "internalType": "address",
          "name": "_user",
          "type": "address"
        }
      ],
      "name": "pendingEvermoon",
      "outputs": [
        {
          "internalType": "uint256",
          "name": "pending",
          "type": "uint256"
        }
      ],
      "stateMutability": "view",
      "type": "function"
    },
    {
      "inputs": [],
      "name": "pendingOwner",
      "outputs": [
        {
          "internalType": "address",
          "name": "",
          "type": "address"
        }
      ],
      "stateMutability": "view",
      "type": "function"
    },
    {
      "inputs": [
        {
          "internalType": "contract IERC20",
          "name": "token",
          "type": "address"
        },
        {
          "internalType": "address",
          "name": "from",
          "type": "address"
        },
        {
          "internalType": "address",
          "name": "to",
          "type": "address"
        },
        {
          "internalType": "uint256",
          "name": "amount",
          "type": "uint256"
        },
        {
          "internalType": "uint256",
          "name": "deadline",
          "type": "uint256"
        },
        {
          "internalType": "uint8",
          "name": "v",
          "type": "uint8"
        },
        {
          "internalType": "bytes32",
          "name": "r",
          "type": "bytes32"
        },
        {
          "internalType": "bytes32",
          "name": "s",
          "type": "bytes32"
        }
      ],
      "name": "permitToken",
      "outputs": [],
      "stateMutability": "nonpayable",
      "type": "function"
    },
    {
      "inputs": [
        {
          "internalType": "uint256",
          "name": "",
          "type": "uint256"
        }
      ],
      "name": "poolInfo",
      "outputs": [
        {
          "internalType": "uint128",
          "name": "accEvermoonPerShare",
          "type": "uint128"
        },
        {
          "internalType": "uint64",
          "name": "lastRewardTime",
          "type": "uint64"
        },
        {
          "internalType": "uint64",
          "name": "allocPoint",
          "type": "uint64"
        }
      ],
      "stateMutability": "view",
      "type": "function"
    },
    {
      "inputs": [],
      "name": "poolLength",
      "outputs": [
        {
          "internalType": "uint256",
          "name": "pools",
          "type": "uint256"
        }
      ],
      "stateMutability": "view",
      "type": "function"
    },
    {
      "inputs": [
        {
          "internalType": "uint256",
          "name": "",
          "type": "uint256"
        }
      ],
      "name": "rewarder",
      "outputs": [
        {
          "internalType": "contract IRewarder",
          "name": "",
          "type": "address"
        }
      ],
      "stateMutability": "view",
      "type": "function"
    },
    {
      "inputs": [
        {
          "internalType": "uint256",
          "name": "_pid",
          "type": "uint256"
        },
        {
          "internalType": "uint256",
          "name": "_allocPoint",
          "type": "uint256"
        },
        {
          "internalType": "contract IRewarder",
          "name": "_rewarder",
          "type": "address"
        },
        {
          "internalType": "bool",
          "name": "overwrite",
          "type": "bool"
        }
      ],
      "name": "set",
      "outputs": [],
      "stateMutability": "nonpayable",
      "type": "function"
    },
    {
      "inputs": [
        {
          "internalType": "uint256",
          "name": "_evermoonPerSecond",
          "type": "uint256"
        }
      ],
      "name": "setEvermoonPerSecond",
      "outputs": [],
      "stateMutability": "nonpayable",
      "type": "function"
    },
    {
      "inputs": [],
      "name": "totalAllocPoint",
      "outputs": [
        {
          "internalType": "uint256",
          "name": "",
          "type": "uint256"
        }
      ],
      "stateMutability": "view",
      "type": "function"
    },
    {
      "inputs": [
        {
          "internalType": "address",
          "name": "newOwner",
          "type": "address"
        },
        {
          "internalType": "bool",
          "name": "direct",
          "type": "bool"
        },
        {
          "internalType": "bool",
          "name": "renounce",
          "type": "bool"
        }
      ],
      "name": "transferOwnership",
      "outputs": [],
      "stateMutability": "nonpayable",
      "type": "function"
    },
    {
      "inputs": [
        {
          "internalType": "uint256",
          "name": "pid",
          "type": "uint256"
        }
      ],
      "name": "updatePool",
      "outputs": [
        {
          "components": [
            {
              "internalType": "uint128",
              "name": "accEvermoonPerShare",
              "type": "uint128"
            },
            {
              "internalType": "uint64",
              "name": "lastRewardTime",
              "type": "uint64"
            },
            {
              "internalType": "uint64",
              "name": "allocPoint",
              "type": "uint64"
            }
          ],
          "internalType": "struct MiniChefV2.PoolInfo",
          "name": "pool",
          "type": "tuple"
        }
      ],
      "stateMutability": "nonpayable",
      "type": "function"
    },
    {
      "inputs": [
        {
          "internalType": "uint256",
          "name": "",
          "type": "uint256"
        },
        {
          "internalType": "address",
          "name": "",
          "type": "address"
        }
      ],
      "name": "userInfo",
      "outputs": [
        {
          "internalType": "uint256",
          "name": "amount",
          "type": "uint256"
        },
        {
          "internalType": "int256",
          "name": "rewardDebt",
          "type": "int256"
        }
      ],
      "stateMutability": "view",
      "type": "function"
    },
    {
      "inputs": [
        {
          "internalType": "uint256",
          "name": "pid",
          "type": "uint256"
        },
        {
          "internalType": "uint256",
          "name": "amount",
          "type": "uint256"
        },
        {
          "internalType": "address",
          "name": "to",
          "type": "address"
        }
      ],
      "name": "withdraw",
      "outputs": [],
      "stateMutability": "nonpayable",
      "type": "function"
    },
    {
      "inputs": [
        {
          "internalType": "uint256",
          "name": "pid",
          "type": "uint256"
        },
        {
          "internalType": "uint256",
          "name": "amount",
          "type": "uint256"
        },
        {
          "internalType": "address",
          "name": "to",
          "type": "address"
        }
      ],
      "name": "withdrawAndHarvest",
      "outputs": [],
      "stateMutability": "nonpayable",
      "type": "function"
    }
  ],
  "transactionHash": "0x6c40e11949017d64b0622eda117e4f66b55862b2d29b65aeac76920faa0c9d22",
  "args": [
    "0xf91375fbf40d920c31016E1473c6D44F334Af13F"
  ],
  "solcInputHash": "0431884a2d27042fec3db244c3f3fade",
  "bytecode": "0x60a06040523480156200001157600080fd5b5060405162002bea38038062002bea833981016040819052620000349162000089565b600080546001600160a01b0319163390811782556040519091907f8be0079c531659141344cd1fd0a4f28419497f9722a3daafe3b4186f6b6457e0908290a360601b6001600160601b031916608052620000b9565b6000602082840312156200009b578081fd5b81516001600160a01b0381168114620000b2578182fd5b9392505050565b60805160601c612b09620000e1600039806108a652806119375280611c585250612b096000f3fe6080604052600436106101965760003560e01c806378ed5d1f116100e15780639de60c2f1161008a578063d1abb90711610064578063d1abb90714610453578063d2423b5114610473578063e30c397814610494578063eb6e3092146104a957610196565b80639de60c2f146103f3578063ab7de09814610413578063c346253d1461043357610196565b80638da5cb5b116100bb5780638da5cb5b146103905780638dbdbe6d146103a557806393f1a40b146103c557610196565b806378ed5d1f146103235780637c516e941461035057806388bba42f1461037057610196565b80632f940c701161014357806351eb05a61161011d57806351eb05a6146102c157806351f46403146102ee57806357a5b58c1461030357610196565b80632f940c701461026c5780634e71e0c81461028c5780634ff460ff146102a157610196565b80631526fe27116101745780631526fe271461020857806317caf6f11461023757806318fccc761461024c57610196565b8063078dfbe71461019b578063081e3eda146101bd5780630ad58d2f146101e8575b600080fd5b3480156101a757600080fd5b506101bb6101b636600461211c565b6104be565b005b3480156101c957600080fd5b506101d26105dd565b6040516101df9190612994565b60405180910390f35b3480156101f457600080fd5b506101bb6102033660046123e1565b6105e3565b34801561021457600080fd5b5061022861022336600461234c565b610795565b6040516101df93929190612960565b34801561024357600080fd5b506101d2610803565b34801561025857600080fd5b506101bb61026736600461237c565b610809565b34801561027857600080fd5b506101bb61028736600461237c565b6109c5565b34801561029857600080fd5b506101bb610aff565b3480156102ad57600080fd5b506101bb6102bc36600461234c565b610ba4565b3480156102cd57600080fd5b506102e16102dc36600461234c565b610c0e565b6040516101df919061291d565b3480156102fa57600080fd5b506101d2610f5b565b34801561030f57600080fd5b506101bb61031e3660046121b0565b610f61565b34801561032f57600080fd5b5061034361033e36600461234c565b610f97565b6040516101df91906124cd565b34801561035c57600080fd5b506101bb61036b36600461220c565b610fbe565b34801561037c57600080fd5b506101bb61038b36600461240e565b61104b565b34801561039c57600080fd5b506103436111d0565b3480156103b157600080fd5b506101bb6103c03660046123e1565b6111df565b3480156103d157600080fd5b506103e56103e036600461237c565b61138c565b6040516101df9291906129dc565b3480156103ff57600080fd5b506101d261040e36600461237c565b6113b0565b34801561041f57600080fd5b506101bb61042e3660046123ab565b6115f2565b34801561043f57600080fd5b5061034361044e36600461234c565b61184a565b34801561045f57600080fd5b506101bb61046e3660046123e1565b611857565b610486610481366004612166565b611ab5565b6040516101df92919061255f565b3480156104a057600080fd5b50610343611c47565b3480156104b557600080fd5b50610343611c56565b6000546001600160a01b031633146104f15760405162461bcd60e51b81526004016104e8906127b3565b60405180910390fd5b81156105a4576001600160a01b03831615158061050b5750805b6105275760405162461bcd60e51b81526004016104e89061270e565b600080546040516001600160a01b03808716939216917f8be0079c531659141344cd1fd0a4f28419497f9722a3daafe3b4186f6b6457e091a3600080546001600160a01b0385167fffffffffffffffffffffffff0000000000000000000000000000000000000000918216179091556001805490911690556105d8565b600180547fffffffffffffffffffffffff0000000000000000000000000000000000000000166001600160a01b0385161790555b505050565b60025490565b6105eb6120b3565b6105f484610c0e565b6000858152600560209081526040808320338452909152902081519192509061064f9064e8d4a510009061063b9087906fffffffffffffffffffffffffffffffff16611c7a565b8161064257fe5b6001840154919004611cb7565b600182015580546106609085611d04565b815560048054600091908790811061067457fe5b6000918252602090912001546001600160a01b0316905080156107135781546040517f3b5084b00000000000000000000000000000000000000000000000000000000081526001600160a01b03831691633b5084b0916106e0918a9133918a916000919060040161299d565b600060405180830381600087803b1580156106fa57600080fd5b505af115801561070e573d6000803e3d6000fd5b505050505b61074184866003898154811061072557fe5b6000918252602090912001546001600160a01b03169190611d27565b836001600160a01b031686336001600160a01b03167f8166bf25f8a2b7ed3c85049207da4358d16edbed977d23fa2ee6f0dde3ec2132886040516107859190612994565b60405180910390a4505050505050565b600281815481106107a257fe5b6000918252602090912001546fffffffffffffffffffffffffffffffff8116915067ffffffffffffffff7001000000000000000000000000000000008204811691780100000000000000000000000000000000000000000000000090041683565b60065481565b6108116120b3565b61081a83610c0e565b6000848152600560209081526040808320338452909152812082518154939450909264e8d4a510009161085f91906fffffffffffffffffffffffffffffffff16611c7a565b8161086657fe5b049050600061088a610885846001015484611cb790919063ffffffff16565b611e2a565b60018401839055905080156108cd576108cd6001600160a01b037f0000000000000000000000000000000000000000000000000000000000000000168683611d27565b6000600487815481106108dc57fe5b6000918252602090912001546001600160a01b03169050801561097a5783546040517f3b5084b00000000000000000000000000000000000000000000000000000000081526001600160a01b03831691633b5084b091610947918b9133918c9189919060040161299d565b600060405180830381600087803b15801561096157600080fd5b505af1158015610975573d6000803e3d6000fd5b505050505b86336001600160a01b03167f71bab65ced2e5750775a0613be067df48ef06cf92a496ebf7663ae0660924954846040516109b49190612994565b60405180910390a350505050505050565b600082815260056020908152604080832033845290915281208054828255600182018390556004805492939192869081106109fc57fe5b6000918252602090912001546001600160a01b031690508015610a9a576040517f3b5084b00000000000000000000000000000000000000000000000000000000081526001600160a01b03821690633b5084b090610a6790889033908990600090819060040161299d565b600060405180830381600087803b158015610a8157600080fd5b505af1158015610a95573d6000803e3d6000fd5b505050505b610aac84836003888154811061072557fe5b836001600160a01b031685336001600160a01b03167f2cac5e20e1541d836381527a43f651851e302817b71dc8e810284e69210c1c6b85604051610af09190612994565b60405180910390a45050505050565b6001546001600160a01b0316338114610b2a5760405162461bcd60e51b81526004016104e8906127e8565b600080546040516001600160a01b03808516939216917f8be0079c531659141344cd1fd0a4f28419497f9722a3daafe3b4186f6b6457e091a3600080546001600160a01b039092167fffffffffffffffffffffffff0000000000000000000000000000000000000000928316179055600180549091169055565b6000546001600160a01b03163314610bce5760405162461bcd60e51b81526004016104e8906127b3565b60078190556040517fe39be89576b0aa56226ac190fe3899cc24d4f49ffe7e90f7b5d4b8a6267b4d2e90610c03908390612994565b60405180910390a150565b610c166120b3565b60028281548110610c2357fe5b60009182526020918290206040805160608101825292909101546fffffffffffffffffffffffffffffffff8116835267ffffffffffffffff70010000000000000000000000000000000082048116948401859052780100000000000000000000000000000000000000000000000090910416908201529150421115610f5657600060038381548110610cb157fe5b6000918252602090912001546040517f70a082310000000000000000000000000000000000000000000000000000000081526001600160a01b03909116906370a0823190610d039030906004016124cd565b60206040518083038186803b158015610d1b57600080fd5b505afa158015610d2f573d6000803e3d6000fd5b505050506040513d601f19601f82011682018060405250810190610d539190612364565b90508015610e10576000610d7e836020015167ffffffffffffffff1642611d0490919063ffffffff16565b90506000600654610db2856040015167ffffffffffffffff16610dac60075486611c7a90919063ffffffff16565b90611c7a565b81610db957fe5b049050610df9610ddf84610dd28464e8d4a51000611c7a565b81610dd957fe5b04611e50565b85516fffffffffffffffffffffffffffffffff1690611e82565b6fffffffffffffffffffffffffffffffff16845250505b610e1942611eba565b67ffffffffffffffff1660208301526002805483919085908110610e3957fe5b6000918252602091829020835191018054848401516040958601517fffffffffffffffffffffffffffffffff000000000000000000000000000000009092166fffffffffffffffffffffffffffffffff909416939093177fffffffffffffffff0000000000000000ffffffffffffffffffffffffffffffff1670010000000000000000000000000000000067ffffffffffffffff948516021777ffffffffffffffffffffffffffffffffffffffffffffffff16780100000000000000000000000000000000000000000000000093909116929092029190911790558301518351915185927f0fc9545022a542541ad085d091fb09a2ab36fee366a4576ab63714ea907ad35392610f4c92909186916129ea565b60405180910390a2505b919050565b60075481565b8060005b81811015610f9157610f88848483818110610f7c57fe5b90506020020135610c0e565b50600101610f65565b50505050565b60038181548110610fa457fe5b6000918252602090912001546001600160a01b0316905081565b6040517fd505accf0000000000000000000000000000000000000000000000000000000081526001600160a01b0389169063d505accf9061100f908a908a908a908a908a908a908a90600401612505565b600060405180830381600087803b15801561102957600080fd5b505af115801561103d573d6000803e3d6000fd5b505050505050505050505050565b6000546001600160a01b031633146110755760405162461bcd60e51b81526004016104e8906127b3565b6110ca836110c46002878154811061108957fe5b600091825260209091200154600654907801000000000000000000000000000000000000000000000000900467ffffffffffffffff16611d04565b90611ee4565b6006556110d683611eba565b600285815481106110e357fe5b9060005260206000200160000160186101000a81548167ffffffffffffffff021916908367ffffffffffffffff160217905550801561115957816004858154811061112a57fe5b9060005260206000200160006101000a8154816001600160a01b0302191690836001600160a01b031602179055505b80611185576004848154811061116b57fe5b6000918252602090912001546001600160a01b0316611187565b815b6001600160a01b0316847f95895a6ab1df54420d241b55243258a33e61b2194db66c1179ec521aae8e186585846040516111c29291906129cc565b60405180910390a350505050565b6000546001600160a01b031681565b6111e76120b3565b6111f084610c0e565b60008581526005602090815260408083206001600160a01b038716845290915290208054919250906112229085611ee4565b815581516112629064e8d4a510009061124e9087906fffffffffffffffffffffffffffffffff16611c7a565b8161125557fe5b6001840154919004611f07565b816001018190555060006004868154811061127957fe5b6000918252602090912001546001600160a01b0316905080156113185781546040517f3b5084b00000000000000000000000000000000000000000000000000000000081526001600160a01b03831691633b5084b0916112e5918a91899182916000919060040161299d565b600060405180830381600087803b1580156112ff57600080fd5b505af1158015611313573d6000803e3d6000fd5b505050505b61134833308760038a8154811061132b57fe5b6000918252602090912001546001600160a01b0316929190611f4d565b836001600160a01b031686336001600160a01b03167f02d7e648dd130fc184d383e55bb126ac4c9c60e8f94bf05acdf557ba2d540b47886040516107859190612994565b60056020908152600092835260408084209091529082529020805460019091015482565b60006113ba6120b3565b600284815481106113c757fe5b600091825260208083206040805160608101825291909301546fffffffffffffffffffffffffffffffff808216835267ffffffffffffffff7001000000000000000000000000000000008304811684860152780100000000000000000000000000000000000000000000000090920490911682850152888552600583528385206001600160a01b038916865290925291832082516003805494965091949216928890811061147157fe5b6000918252602090912001546040517f70a082310000000000000000000000000000000000000000000000000000000081526001600160a01b03909116906370a08231906114c39030906004016124cd565b60206040518083038186803b1580156114db57600080fd5b505afa1580156114ef573d6000803e3d6000fd5b505050506040513d601f19601f820116820180604052508101906115139190612364565b9050836020015167ffffffffffffffff164211801561153157508015155b156115b9576000611559856020015167ffffffffffffffff1642611d0490919063ffffffff16565b90506000600654611587876040015167ffffffffffffffff16610dac60075486611c7a90919063ffffffff16565b8161158e57fe5b0490506115b4836115a48364e8d4a51000611c7a565b816115ab57fe5b86919004611ee4565b935050505b600183015483546115e7916108859164e8d4a51000906115d99087611c7a565b816115e057fe5b0490611cb7565b979650505050505050565b6000546001600160a01b0316331461161c5760405162461bcd60e51b81526004016104e8906127b3565b6006546116299084611ee4565b6006556003805460018181019092557fc2575a0e9e593c00f959f8c92f12db2869c3395a3b0502d05e2516446f71f85b0180546001600160a01b038086167fffffffffffffffffffffffff00000000000000000000000000000000000000009283161790925560048054938401815560009081527f8a35acfbc15ff81a39ae7d344fd709f28e8600b4aa8c65c6b64bfe7fe36bd19b9093018054928516929091169190911790556040805160608101909152908152600290602081016116ee42611eba565b67ffffffffffffffff16815260200161170686611eba565b67ffffffffffffffff908116909152825460018181018555600094855260209485902084519201805495850151604090950151841678010000000000000000000000000000000000000000000000000277ffffffffffffffffffffffffffffffffffffffffffffffff95909416700100000000000000000000000000000000027fffffffffffffffff0000000000000000ffffffffffffffffffffffffffffffff6fffffffffffffffffffffffffffffffff9094167fffffffffffffffffffffffffffffffff00000000000000000000000000000000909716969096179290921694909417929092161790556003546001600160a01b03808416929085169161180e91611d04565b7f81ee0f8c5c46e2cb41984886f77a84181724abb86c32a5f6de539b07509d45e58660405161183d9190612994565b60405180910390a4505050565b60048181548110610fa457fe5b61185f6120b3565b61186884610c0e565b6000858152600560209081526040808320338452909152812082518154939450909264e8d4a51000916118ad91906fffffffffffffffffffffffffffffffff16611c7a565b816118b457fe5b04905060006118d3610885846001015484611cb790919063ffffffff16565b905061191764e8d4a5100061190786600001516fffffffffffffffffffffffffffffffff1689611c7a90919063ffffffff16565b8161190e57fe5b84919004611cb7565b600184015582546119289087611d04565b835561195e6001600160a01b037f0000000000000000000000000000000000000000000000000000000000000000168683611d27565b60006004888154811061196d57fe5b6000918252602090912001546001600160a01b031690508015611a0b5783546040517f3b5084b00000000000000000000000000000000000000000000000000000000081526001600160a01b03831691633b5084b0916119d8918c9133918c9189919060040161299d565b600060405180830381600087803b1580156119f257600080fd5b505af1158015611a06573d6000803e3d6000fd5b505050505b611a1d868860038b8154811061072557fe5b856001600160a01b031688336001600160a01b03167f8166bf25f8a2b7ed3c85049207da4358d16edbed977d23fa2ee6f0dde3ec21328a604051611a619190612994565b60405180910390a487336001600160a01b03167f71bab65ced2e5750775a0613be067df48ef06cf92a496ebf7663ae066092495484604051611aa39190612994565b60405180910390a35050505050505050565b6060808367ffffffffffffffff81118015611acf57600080fd5b50604051908082528060200260200182016040528015611af9578160200160208202803683370190505b5091508367ffffffffffffffff81118015611b1357600080fd5b50604051908082528060200260200182016040528015611b4757816020015b6060815260200190600190039081611b325790505b50905060005b84811015611c3e576000606030888885818110611b6657fe5b9050602002810190611b789190612a1e565b604051611b869291906124a1565b600060405180830381855af49150503d8060008114611bc1576040519150601f19603f3d011682016040523d82523d6000602084013e611bc6565b606091505b50915091508180611bd5575085155b611bde82612053565b90611bfc5760405162461bcd60e51b81526004016104e891906125f9565b5081858481518110611c0a57fe5b60200260200101901515908115158152505080848481518110611c2957fe5b60209081029190910101525050600101611b4d565b50935093915050565b6001546001600160a01b031681565b7f000000000000000000000000000000000000000000000000000000000000000081565b6000811580611c9557505080820282828281611c9257fe5b04145b611cb15760405162461bcd60e51b81526004016104e8906128e6565b92915050565b6000818303818312801590611ccc5750838113155b80611ce15750600083128015611ce157508381135b611cfd5760405162461bcd60e51b81526004016104e890612854565b9392505050565b80820382811115611cb15760405162461bcd60e51b81526004016104e89061260c565b60006060846001600160a01b031663a9059cbb8585604051602401611d4d929190612546565b6040516020818303038152906040529060e01b6020820180517bffffffffffffffffffffffffffffffffffffffffffffffffffffffff8381831617835250505050604051611d9b91906124b1565b6000604051808303816000865af19150503d8060008114611dd8576040519150601f19603f3d011682016040523d82523d6000602084013e611ddd565b606091505b5091509150818015611e07575080511580611e07575080806020019051810190611e0791906121f0565b611e235760405162461bcd60e51b81526004016104e89061267a565b5050505050565b600080821215611e4c5760405162461bcd60e51b81526004016104e890612643565b5090565b60006fffffffffffffffffffffffffffffffff821115611e4c5760405162461bcd60e51b81526004016104e890612745565b8181016fffffffffffffffffffffffffffffffff8083169082161015611cb15760405162461bcd60e51b81526004016104e89061277c565b600067ffffffffffffffff821115611e4c5760405162461bcd60e51b81526004016104e89061281d565b81810181811015611cb15760405162461bcd60e51b81526004016104e89061277c565b6000828201818312801590611f1c5750838112155b80611f315750600083128015611f3157508381125b611cfd5760405162461bcd60e51b81526004016104e8906126b1565b60006060856001600160a01b03166323b872dd868686604051602401611f75939291906124e1565b6040516020818303038152906040529060e01b6020820180517bffffffffffffffffffffffffffffffffffffffffffffffffffffffff8381831617835250505050604051611fc391906124b1565b6000604051808303816000865af19150503d8060008114612000576040519150601f19603f3d011682016040523d82523d6000602084013e612005565b606091505b509150915081801561202f57508051158061202f57508080602001905181019061202f91906121f0565b61204b5760405162461bcd60e51b81526004016104e8906128b1565b505050505050565b6060604482511015612099575060408051808201909152601d81527f5472616e73616374696f6e2072657665727465642073696c656e746c790000006020820152610f56565b60048201915081806020019051810190611cb19190612293565b604080516060810182526000808252602082018190529181019190915290565b60008083601f8401126120e4578182fd5b50813567ffffffffffffffff8111156120fb578182fd5b602083019150836020808302850101111561211557600080fd5b9250929050565b600080600060608486031215612130578283fd5b833561213b81612aad565b9250602084013561214b81612ac5565b9150604084013561215b81612ac5565b809150509250925092565b60008060006040848603121561217a578283fd5b833567ffffffffffffffff811115612190578384fd5b61219c868287016120d3565b909450925050602084013561215b81612ac5565b600080602083850312156121c2578182fd5b823567ffffffffffffffff8111156121d8578283fd5b6121e4858286016120d3565b90969095509350505050565b600060208284031215612201578081fd5b8151611cfd81612ac5565b600080600080600080600080610100898b031215612228578384fd5b883561223381612aad565b9750602089013561224381612aad565b9650604089013561225381612aad565b9550606089013594506080890135935060a089013560ff81168114612276578384fd5b979a969950949793969295929450505060c08201359160e0013590565b6000602082840312156122a4578081fd5b815167ffffffffffffffff808211156122bb578283fd5b818401915084601f8301126122ce578283fd5b8151818111156122dc578384fd5b60405160207fffffffffffffffffffffffffffffffffffffffffffffffffffffffffffffffe0601f840116820101818110848211171561231a578586fd5b604052818152838201602001871015612331578485fd5b612342826020830160208701612a81565b9695505050505050565b60006020828403121561235d578081fd5b5035919050565b600060208284031215612375578081fd5b5051919050565b6000806040838503121561238e578182fd5b8235915060208301356123a081612aad565b809150509250929050565b6000806000606084860312156123bf578283fd5b8335925060208401356123d181612aad565b9150604084013561215b81612aad565b6000806000606084860312156123f5578283fd5b8335925060208401359150604084013561215b81612aad565b60008060008060808587031215612423578182fd5b8435935060208501359250604085013561243c81612aad565b9150606085013561244c81612ac5565b939692955090935050565b6000815180845261246f816020860160208601612a81565b601f017fffffffffffffffffffffffffffffffffffffffffffffffffffffffffffffffe0169290920160200192915050565b6000828483379101908152919050565b600082516124c3818460208701612a81565b9190910192915050565b6001600160a01b0391909116815260200190565b6001600160a01b039384168152919092166020820152604081019190915260600190565b6001600160a01b0397881681529590961660208601526040850193909352606084019190915260ff16608083015260a082015260c081019190915260e00190565b6001600160a01b03929092168252602082015260400190565b604080825283519082018190526000906020906060840190828701845b8281101561259a57815115158452928401929084019060010161257c565b505050838103828501528085516125b18184612994565b91508192508381028201848801865b838110156125ea5785830385526125d8838351612457565b948701949250908601906001016125c0565b50909998505050505050505050565b600060208252611cfd6020830184612457565b60208082526015908201527f426f72696e674d6174683a20556e646572666c6f770000000000000000000000604082015260600190565b6020808252600b908201527f496e7465676572203c2030000000000000000000000000000000000000000000604082015260600190565b6020808252601c908201527f426f72696e6745524332303a205472616e73666572206661696c656400000000604082015260600190565b60208082526021908201527f5369676e6564536166654d6174683a206164646974696f6e206f766572666c6f60408201527f7700000000000000000000000000000000000000000000000000000000000000606082015260800190565b60208082526015908201527f4f776e61626c653a207a65726f20616464726573730000000000000000000000604082015260600190565b6020808252601c908201527f426f72696e674d6174683a2075696e74313238204f766572666c6f7700000000604082015260600190565b60208082526018908201527f426f72696e674d6174683a20416464204f766572666c6f770000000000000000604082015260600190565b6020808252818101527f4f776e61626c653a2063616c6c6572206973206e6f7420746865206f776e6572604082015260600190565b6020808252818101527f4f776e61626c653a2063616c6c657220213d2070656e64696e67206f776e6572604082015260600190565b6020808252601b908201527f426f72696e674d6174683a2075696e743634204f766572666c6f770000000000604082015260600190565b60208082526024908201527f5369676e6564536166654d6174683a207375627472616374696f6e206f76657260408201527f666c6f7700000000000000000000000000000000000000000000000000000000606082015260800190565b6020808252818101527f426f72696e6745524332303a205472616e7366657246726f6d206661696c6564604082015260600190565b60208082526018908201527f426f72696e674d6174683a204d756c204f766572666c6f770000000000000000604082015260600190565b81516fffffffffffffffffffffffffffffffff16815260208083015167ffffffffffffffff90811691830191909152604092830151169181019190915260600190565b6fffffffffffffffffffffffffffffffff93909316835267ffffffffffffffff918216602084015216604082015260600190565b90815260200190565b9485526001600160a01b0393841660208601529190921660408401526060830191909152608082015260a00190565b9182521515602082015260400190565b918252602082015260400190565b67ffffffffffffffff93909316835260208301919091526fffffffffffffffffffffffffffffffff16604082015260600190565b60008083357fffffffffffffffffffffffffffffffffffffffffffffffffffffffffffffffe1843603018112612a52578283fd5b83018035915067ffffffffffffffff821115612a6c578283fd5b60200191503681900382131561211557600080fd5b60005b83811015612a9c578181015183820152602001612a84565b83811115610f915750506000910152565b6001600160a01b0381168114612ac257600080fd5b50565b8015158114612ac257600080fdfea26469706673582212207c7e112fa27acbb51972551781728d9eece2bcc722c5d6393fce31e7b244e7c464736f6c634300060c0033",
  "devdoc": {
    "kind": "dev",
    "methods": {
      "add(uint256,address,address)": {
        "params": {
          "_lpToken": "Address of the LP ERC-20 token.",
          "_rewarder": "Address of the rewarder delegate.",
          "allocPoint": "AP of the new pool."
        }
      },
      "constructor": {
        "params": {
          "_evermoon": "The EVERMOON token contract address."
        }
      },
      "deposit(uint256,uint256,address)": {
        "params": {
          "amount": "LP token amount to deposit.",
          "pid": "The index of the pool. See `poolInfo`.",
          "to": "The receiver of `amount` deposit benefit."
        }
      },
      "emergencyWithdraw(uint256,address)": {
        "params": {
          "pid": "The index of the pool. See `poolInfo`.",
          "to": "Receiver of the LP tokens."
        }
      },
      "harvest(uint256,address)": {
        "params": {
          "pid": "The index of the pool. See `poolInfo`.",
          "to": "Receiver of EVERMOON rewards."
        }
      },
      "massUpdatePools(uint256[])": {
        "params": {
          "pids": "Pool IDs of all to be updated. Make sure to update all active pools."
        }
      },
      "pendingEvermoon(uint256,address)": {
        "params": {
          "_pid": "The index of the pool. See `poolInfo`.",
          "_user": "Address of user."
        },
        "returns": {
          "pending": "EVERMOON reward for a given user."
        }
      },
      "set(uint256,uint256,address,bool)": {
        "params": {
          "_allocPoint": "New AP of the pool.",
          "_pid": "The index of the pool. See `poolInfo`.",
          "_rewarder": "Address of the rewarder delegate.",
          "overwrite": "True if _rewarder should be `set`. Otherwise `_rewarder` is ignored."
        }
      },
      "setEvermoonPerSecond(uint256)": {
        "params": {
          "_evermoonPerSecond": "The amount of Evermoon to be distributed per second."
        }
      },
      "updatePool(uint256)": {
        "params": {
          "pid": "The index of the pool. See `poolInfo`."
        },
        "returns": {
          "pool": "Returns the pool that was updated."
        }
      },
      "withdraw(uint256,uint256,address)": {
        "params": {
          "amount": "LP token amount to withdraw.",
          "pid": "The index of the pool. See `poolInfo`.",
          "to": "Receiver of the LP tokens."
        }
      },
      "withdrawAndHarvest(uint256,uint256,address)": {
        "params": {
          "amount": "LP token amount to withdraw.",
          "pid": "The index of the pool. See `poolInfo`.",
          "to": "Receiver of the LP tokens and EVERMOON rewards."
        }
      }
    },
    "stateVariables": {
      "totalAllocPoint": {
        "details": "Total allocation points. Must be the sum of all allocation points in all pools."
      }
    },
    "version": 1
  },
  "userdoc": {
    "kind": "user",
    "methods": {
      "EVERMOON()": {
        "notice": "Address of EVERMOON contract."
      },
      "add(uint256,address,address)": {
        "notice": "Add a new LP to the pool. Can only be called by the owner. DO NOT add the same LP token more than once. Rewards will be messed up if you do."
      },
      "deposit(uint256,uint256,address)": {
        "notice": "Deposit LP tokens to MCV2 for EVERMOON allocation."
      },
      "emergencyWithdraw(uint256,address)": {
        "notice": "Withdraw without caring about rewards. EMERGENCY ONLY."
      },
      "harvest(uint256,address)": {
        "notice": "Harvest proceeds for transaction sender to `to`."
      },
      "lpToken(uint256)": {
        "notice": "Address of the LP token for each MCV2 pool."
      },
      "massUpdatePools(uint256[])": {
        "notice": "Update reward variables for all pools. Be careful of gas spending!"
      },
      "pendingEvermoon(uint256,address)": {
        "notice": "View function to see pending EVERMOON on frontend."
      },
      "poolInfo(uint256)": {
        "notice": "Info of each MCV2 pool."
      },
      "poolLength()": {
        "notice": "Returns the number of MCV2 pools."
      },
      "rewarder(uint256)": {
        "notice": "Address of each `IRewarder` contract in MCV2."
      },
      "set(uint256,uint256,address,bool)": {
        "notice": "Update the given pool's EVERMOON allocation point and `IRewarder` contract. Can only be called by the owner."
      },
      "setEvermoonPerSecond(uint256)": {
        "notice": "Sets the evermoon per second to be distributed. Can only be called by the owner."
      },
      "updatePool(uint256)": {
        "notice": "Update reward variables of the given pool."
      },
      "userInfo(uint256,address)": {
        "notice": "Info of each user that stakes LP tokens."
      },
      "withdraw(uint256,uint256,address)": {
        "notice": "Withdraw LP tokens from MCV2."
      },
      "withdrawAndHarvest(uint256,uint256,address)": {
        "notice": "Withdraw LP tokens from MCV2 and harvest proceeds for transaction sender to `to`."
      }
    },
    "notice": "The (older) MasterChef contract gives out a constant number of EVERMOON tokens per block. It is the only address with minting rights for EVERMOON. The idea for this MasterChef V2 (MCV2) contract is therefore to be the owner of a dummy token that is deposited into the MasterChef V1 (MCV1) contract. The allocation point for this pool on MCV1 is the total allocation point for all pools that receive double incentives.",
    "version": 1
  },
  "storageLayout": {
    "storage": [
      {
        "astId": 149,
        "contract": "contracts/MinichefV2.sol:MiniChefV2",
        "label": "owner",
        "offset": 0,
        "slot": "0",
        "type": "t_address"
      },
      {
        "astId": 151,
        "contract": "contracts/MinichefV2.sol:MiniChefV2",
        "label": "pendingOwner",
        "offset": 0,
        "slot": "1",
        "type": "t_address"
      },
      {
        "astId": 886,
        "contract": "contracts/MinichefV2.sol:MiniChefV2",
        "label": "poolInfo",
        "offset": 0,
        "slot": "2",
        "type": "t_array(t_struct(PoolInfo)879_storage)dyn_storage"
      },
      {
        "astId": 890,
        "contract": "contracts/MinichefV2.sol:MiniChefV2",
        "label": "lpToken",
        "offset": 0,
        "slot": "3",
        "type": "t_array(t_contract(IERC20)337)dyn_storage"
      },
      {
        "astId": 894,
        "contract": "contracts/MinichefV2.sol:MiniChefV2",
        "label": "rewarder",
        "offset": 0,
        "slot": "4",
        "type": "t_array(t_contract(IRewarder)1975)dyn_storage"
      },
      {
        "astId": 901,
        "contract": "contracts/MinichefV2.sol:MiniChefV2",
        "label": "userInfo",
        "offset": 0,
        "slot": "5",
        "type": "t_mapping(t_uint256,t_mapping(t_address,t_struct(UserInfo)872_storage))"
      },
      {
        "astId": 904,
        "contract": "contracts/MinichefV2.sol:MiniChefV2",
        "label": "totalAllocPoint",
        "offset": 0,
        "slot": "6",
        "type": "t_uint256"
      },
      {
        "astId": 906,
        "contract": "contracts/MinichefV2.sol:MiniChefV2",
        "label": "evermoonPerSecond",
        "offset": 0,
        "slot": "7",
        "type": "t_uint256"
      }
    ],
    "types": {
      "t_address": {
        "encoding": "inplace",
        "label": "address",
        "numberOfBytes": "20"
      },
      "t_array(t_contract(IERC20)337)dyn_storage": {
        "base": "t_contract(IERC20)337",
        "encoding": "dynamic_array",
        "label": "contract IERC20[]",
        "numberOfBytes": "32"
      },
      "t_array(t_contract(IRewarder)1975)dyn_storage": {
        "base": "t_contract(IRewarder)1975",
        "encoding": "dynamic_array",
        "label": "contract IRewarder[]",
        "numberOfBytes": "32"
      },
      "t_array(t_struct(PoolInfo)879_storage)dyn_storage": {
        "base": "t_struct(PoolInfo)879_storage",
        "encoding": "dynamic_array",
        "label": "struct MiniChefV2.PoolInfo[]",
        "numberOfBytes": "32"
      },
      "t_contract(IERC20)337": {
        "encoding": "inplace",
        "label": "contract IERC20",
        "numberOfBytes": "20"
      },
      "t_contract(IRewarder)1975": {
        "encoding": "inplace",
        "label": "contract IRewarder",
        "numberOfBytes": "20"
      },
      "t_int256": {
        "encoding": "inplace",
        "label": "int256",
        "numberOfBytes": "32"
      },
      "t_mapping(t_address,t_struct(UserInfo)872_storage)": {
        "encoding": "mapping",
        "key": "t_address",
        "label": "mapping(address => struct MiniChefV2.UserInfo)",
        "numberOfBytes": "32",
        "value": "t_struct(UserInfo)872_storage"
      },
      "t_mapping(t_uint256,t_mapping(t_address,t_struct(UserInfo)872_storage))": {
        "encoding": "mapping",
        "key": "t_uint256",
        "label": "mapping(uint256 => mapping(address => struct MiniChefV2.UserInfo))",
        "numberOfBytes": "32",
        "value": "t_mapping(t_address,t_struct(UserInfo)872_storage)"
      },
      "t_struct(PoolInfo)879_storage": {
        "encoding": "inplace",
        "label": "struct MiniChefV2.PoolInfo",
        "members": [
          {
            "astId": 874,
            "contract": "contracts/MinichefV2.sol:MiniChefV2",
            "label": "accEvermoonPerShare",
            "offset": 0,
            "slot": "0",
            "type": "t_uint128"
          },
          {
            "astId": 876,
            "contract": "contracts/MinichefV2.sol:MiniChefV2",
            "label": "lastRewardTime",
            "offset": 16,
            "slot": "0",
            "type": "t_uint64"
          },
          {
            "astId": 878,
            "contract": "contracts/MinichefV2.sol:MiniChefV2",
            "label": "allocPoint",
            "offset": 24,
            "slot": "0",
            "type": "t_uint64"
          }
        ],
        "numberOfBytes": "32"
      },
      "t_struct(UserInfo)872_storage": {
        "encoding": "inplace",
        "label": "struct MiniChefV2.UserInfo",
        "members": [
          {
            "astId": 869,
            "contract": "contracts/MinichefV2.sol:MiniChefV2",
            "label": "amount",
            "offset": 0,
            "slot": "0",
            "type": "t_uint256"
          },
          {
            "astId": 871,
            "contract": "contracts/MinichefV2.sol:MiniChefV2",
            "label": "rewardDebt",
            "offset": 0,
            "slot": "1",
            "type": "t_int256"
          }
        ],
        "numberOfBytes": "64"
      },
      "t_uint128": {
        "encoding": "inplace",
        "label": "uint128",
        "numberOfBytes": "16"
      },
      "t_uint256": {
        "encoding": "inplace",
        "label": "uint256",
        "numberOfBytes": "32"
      },
      "t_uint64": {
        "encoding": "inplace",
        "label": "uint64",
        "numberOfBytes": "8"
      }
    }
  }
}