{
  "_format": "hh-sol-artifact-1",
  "contractName": "SacredBeast",
  "sourceName": "contracts/SacredBeast.sol",
  "abi": [
    {
      "inputs": [
        {
          "internalType": "contract IERC20",
          "name": "_foodToken",
          "type": "address"
        },
        {
          "internalType": "address payable",
          "name": "_seller",
          "type": "address"
        }
      ],
      "stateMutability": "nonpayable",
      "type": "constructor"
    },
    {
      "anonymous": false,
      "inputs": [
        {
          "indexed": true,
          "internalType": "address",
          "name": "owner",
          "type": "address"
        },
        {
          "indexed": true,
          "internalType": "address",
          "name": "approved",
          "type": "address"
        },
        {
          "indexed": true,
          "internalType": "uint256",
          "name": "tokenId",
          "type": "uint256"
        }
      ],
      "name": "Approval",
      "type": "event"
    },
    {
      "anonymous": false,
      "inputs": [
        {
          "indexed": true,
          "internalType": "address",
          "name": "owner",
          "type": "address"
        },
        {
          "indexed": true,
          "internalType": "address",
          "name": "operator",
          "type": "address"
        },
        {
          "indexed": false,
          "internalType": "bool",
          "name": "approved",
          "type": "bool"
        }
      ],
      "name": "ApprovalForAll",
      "type": "event"
    },
    {
      "anonymous": false,
      "inputs": [
        {
          "indexed": false,
          "internalType": "uint256",
          "name": "tokenId",
          "type": "uint256"
        },
        {
          "indexed": false,
          "internalType": "uint256",
          "name": "evolForm",
          "type": "uint256"
        }
      ],
      "name": "Evole",
      "type": "event"
    },
    {
      "anonymous": false,
      "inputs": [
        {
          "indexed": false,
          "internalType": "uint256",
          "name": "tokenId",
          "type": "uint256"
        },
        {
          "indexed": false,
          "internalType": "uint256",
          "name": "amount",
          "type": "uint256"
        },
        {
          "indexed": false,
          "internalType": "uint256",
          "name": "unlockTime",
          "type": "uint256"
        }
      ],
      "name": "Feed",
      "type": "event"
    },
    {
      "anonymous": false,
      "inputs": [
        {
          "indexed": false,
          "internalType": "uint256",
          "name": "index",
          "type": "uint256"
        },
        {
          "indexed": false,
          "internalType": "uint256",
          "name": "duration",
          "type": "uint256"
        },
        {
          "indexed": false,
          "internalType": "uint256",
          "name": "multiplier",
          "type": "uint256"
        }
      ],
      "name": "NewLockChoice",
      "type": "event"
    },
    {
      "anonymous": false,
      "inputs": [
        {
          "indexed": true,
          "internalType": "address",
          "name": "previousOwner",
          "type": "address"
        },
        {
          "indexed": true,
          "internalType": "address",
          "name": "newOwner",
          "type": "address"
        }
      ],
      "name": "OwnershipTransferred",
      "type": "event"
    },
    {
      "anonymous": false,
      "inputs": [
        {
          "indexed": false,
          "internalType": "uint256",
          "name": "tokenId",
          "type": "uint256"
        },
        {
          "indexed": false,
          "internalType": "uint256",
          "name": "amount",
          "type": "uint256"
        }
      ],
      "name": "Reclaim",
      "type": "event"
    },
    {
      "anonymous": false,
      "inputs": [
        {
          "indexed": false,
          "internalType": "address",
          "name": "claimer",
          "type": "address"
        },
        {
          "indexed": false,
          "internalType": "address",
          "name": "rewardToken",
          "type": "address"
        },
        {
          "indexed": false,
          "internalType": "uint256",
          "name": "reward",
          "type": "uint256"
        }
      ],
      "name": "RewardPaid",
      "type": "event"
    },
    {
      "anonymous": false,
      "inputs": [
        {
          "indexed": true,
          "internalType": "address",
          "name": "from",
          "type": "address"
        },
        {
          "indexed": true,
          "internalType": "address",
          "name": "to",
          "type": "address"
        },
        {
          "indexed": true,
          "internalType": "uint256",
          "name": "tokenId",
          "type": "uint256"
        }
      ],
      "name": "Transfer",
      "type": "event"
    },
    {
      "anonymous": false,
      "inputs": [
        {
          "indexed": false,
          "internalType": "uint256",
          "name": "index",
          "type": "uint256"
        },
        {
          "indexed": false,
          "internalType": "uint256",
          "name": "duration",
          "type": "uint256"
        },
        {
          "indexed": false,
          "internalType": "uint256",
          "name": "multiplier",
          "type": "uint256"
        }
      ],
      "name": "UpdateLockChoice",
      "type": "event"
    },
    {
      "inputs": [],
      "name": "MAX_SUPPLY",
      "outputs": [
        {
          "internalType": "uint256",
          "name": "",
          "type": "uint256"
        }
      ],
      "stateMutability": "view",
      "type": "function"
    },
    {
      "inputs": [],
      "name": "PRICE_PER_UNIT",
      "outputs": [
        {
          "internalType": "uint256",
          "name": "",
          "type": "uint256"
        }
      ],
      "stateMutability": "view",
      "type": "function"
    },
    {
      "inputs": [
        {
          "internalType": "uint256",
          "name": "_duration",
          "type": "uint256"
        },
        {
          "internalType": "uint256",
          "name": "_multiplier",
          "type": "uint256"
        }
      ],
      "name": "addLockChoice",
      "outputs": [],
      "stateMutability": "nonpayable",
      "type": "function"
    },
    {
      "inputs": [
        {
          "internalType": "address",
          "name": "_rewardsToken",
          "type": "address"
        },
        {
          "internalType": "address",
          "name": "_distributor",
          "type": "address"
        }
      ],
      "name": "addReward",
      "outputs": [],
      "stateMutability": "nonpayable",
      "type": "function"
    },
    {
      "inputs": [
        {
          "internalType": "address",
          "name": "to",
          "type": "address"
        },
        {
          "internalType": "uint256",
          "name": "tokenId",
          "type": "uint256"
        }
      ],
      "name": "approve",
      "outputs": [],
      "stateMutability": "nonpayable",
      "type": "function"
    },
    {
      "inputs": [
        {
          "internalType": "address",
          "name": "_rewardsToken",
          "type": "address"
        },
        {
          "internalType": "address",
          "name": "_distributor",
          "type": "address"
        },
        {
          "internalType": "bool",
          "name": "_approved",
          "type": "bool"
        }
      ],
      "name": "approveRewardDistributor",
      "outputs": [],
      "stateMutability": "nonpayable",
      "type": "function"
    },
    {
      "inputs": [
        {
          "internalType": "address",
          "name": "owner",
          "type": "address"
        }
      ],
      "name": "balanceOf",
      "outputs": [
        {
          "internalType": "uint256",
          "name": "",
          "type": "uint256"
        }
      ],
      "stateMutability": "view",
      "type": "function"
    },
    {
      "inputs": [
        {
          "internalType": "uint256",
          "name": "_tokenId",
          "type": "uint256"
        }
      ],
      "name": "evolutionNFT",
      "outputs": [],
      "stateMutability": "nonpayable",
      "type": "function"
    },
    {
      "inputs": [
        {
          "internalType": "uint256",
          "name": "_tokenId",
          "type": "uint256"
        },
        {
          "internalType": "uint256",
          "name": "_amount",
          "type": "uint256"
        },
        {
          "internalType": "uint256",
          "name": "_lockIndex",
          "type": "uint256"
        }
      ],
      "name": "feed",
      "outputs": [],
      "stateMutability": "nonpayable",
      "type": "function"
    },
    {
      "inputs": [
        {
          "internalType": "uint256",
          "name": "tokenId",
          "type": "uint256"
        }
      ],
      "name": "getApproved",
      "outputs": [
        {
          "internalType": "address",
          "name": "",
          "type": "address"
        }
      ],
      "stateMutability": "view",
      "type": "function"
    },
    {
      "inputs": [
        {
          "internalType": "uint256",
          "name": "_tokenId",
          "type": "uint256"
        }
      ],
      "name": "getReward",
      "outputs": [],
      "stateMutability": "nonpayable",
      "type": "function"
    },
    {
      "inputs": [
        {
          "internalType": "address",
          "name": "_rewardsToken",
          "type": "address"
        }
      ],
      "name": "getRewardForDuration",
      "outputs": [
        {
          "internalType": "uint256",
          "name": "",
          "type": "uint256"
        }
      ],
      "stateMutability": "view",
      "type": "function"
    },
    {
      "inputs": [
        {
          "internalType": "uint256",
          "name": "_tokenId",
          "type": "uint256"
        }
      ],
      "name": "getunlock",
      "outputs": [
        {
          "internalType": "uint256",
          "name": "",
          "type": "uint256"
        }
      ],
      "stateMutability": "view",
      "type": "function"
    },
    {
      "inputs": [
        {
          "internalType": "address",
          "name": "owner",
          "type": "address"
        },
        {
          "internalType": "address",
          "name": "operator",
          "type": "address"
        }
      ],
      "name": "isApprovedForAll",
      "outputs": [
        {
          "internalType": "bool",
          "name": "",
          "type": "bool"
        }
      ],
      "stateMutability": "view",
      "type": "function"
    },
    {
      "inputs": [
        {
          "internalType": "address",
          "name": "_rewardsToken",
          "type": "address"
        }
      ],
      "name": "lastTimeRewardApplicable",
      "outputs": [
        {
          "internalType": "uint256",
          "name": "",
          "type": "uint256"
        }
      ],
      "stateMutability": "view",
      "type": "function"
    },
    {
      "inputs": [
        {
          "internalType": "uint256",
          "name": "",
          "type": "uint256"
        }
      ],
      "name": "lockChoices",
      "outputs": [
        {
          "internalType": "uint256",
          "name": "duration",
          "type": "uint256"
        },
        {
          "internalType": "uint256",
          "name": "multiplier",
          "type": "uint256"
        }
      ],
      "stateMutability": "view",
      "type": "function"
    },
    {
      "inputs": [],
      "name": "lockedSupply",
      "outputs": [
        {
          "internalType": "uint256",
          "name": "",
          "type": "uint256"
        }
      ],
      "stateMutability": "view",
      "type": "function"
    },
    {
      "inputs": [
        {
          "internalType": "uint256",
          "name": "_numberOfTokens",
          "type": "uint256"
        }
      ],
      "name": "mintBeast",
      "outputs": [],
      "stateMutability": "nonpayable",
      "type": "function"
    },
    {
      "inputs": [],
      "name": "name",
      "outputs": [
        {
          "internalType": "string",
          "name": "",
          "type": "string"
        }
      ],
      "stateMutability": "view",
      "type": "function"
    },
    {
      "inputs": [
        {
          "internalType": "uint256",
          "name": "",
          "type": "uint256"
        }
      ],
      "name": "nft",
      "outputs": [
        {
          "internalType": "uint8",
          "name": "evolForm",
          "type": "uint8"
        },
        {
          "internalType": "uint8",
          "name": "race",
          "type": "uint8"
        },
        {
          "internalType": "uint256",
          "name": "exp",
          "type": "uint256"
        }
      ],
      "stateMutability": "view",
      "type": "function"
    },
    {
      "inputs": [
        {
          "internalType": "uint256",
          "name": "",
          "type": "uint256"
        },
        {
          "internalType": "uint256",
          "name": "",
          "type": "uint256"
        }
      ],
      "name": "nftLocks",
      "outputs": [
        {
          "internalType": "uint256",
          "name": "amount",
          "type": "uint256"
        },
        {
          "internalType": "uint256",
          "name": "unlockTime",
          "type": "uint256"
        },
        {
          "components": [
            {
              "internalType": "uint256",
              "name": "duration",
              "type": "uint256"
            },
            {
              "internalType": "uint256",
              "name": "multiplier",
              "type": "uint256"
            }
          ],
          "internalType": "struct SacredBeast.LockChoice",
          "name": "lockChoice",
          "type": "tuple"
        }
      ],
      "stateMutability": "view",
      "type": "function"
    },
    {
      "inputs": [
        {
          "internalType": "uint256",
          "name": "",
          "type": "uint256"
        },
        {
          "internalType": "address",
          "name": "",
          "type": "address"
        }
      ],
      "name": "nftRewardPerTokenPaid",
      "outputs": [
        {
          "internalType": "uint256",
          "name": "",
          "type": "uint256"
        }
      ],
      "stateMutability": "view",
      "type": "function"
    },
    {
      "inputs": [],
      "name": "owner",
      "outputs": [
        {
          "internalType": "address",
          "name": "",
          "type": "address"
        }
      ],
      "stateMutability": "view",
      "type": "function"
    },
    {
      "inputs": [
        {
          "internalType": "uint256",
          "name": "tokenId",
          "type": "uint256"
        }
      ],
      "name": "ownerOf",
      "outputs": [
        {
          "internalType": "address",
          "name": "",
          "type": "address"
        }
      ],
      "stateMutability": "view",
      "type": "function"
    },
    {
      "inputs": [
        {
          "internalType": "uint256",
          "name": "_tokenId",
          "type": "uint256"
        }
      ],
      "name": "reclaimExpiredLocks",
      "outputs": [],
      "stateMutability": "nonpayable",
      "type": "function"
    },
    {
      "inputs": [
        {
          "internalType": "address",
          "name": "tokenAddress",
          "type": "address"
        },
        {
          "internalType": "uint256",
          "name": "tokenAmount",
          "type": "uint256"
        }
      ],
      "name": "recoverERC20",
      "outputs": [],
      "stateMutability": "nonpayable",
      "type": "function"
    },
    {
      "inputs": [],
      "name": "renounceOwnership",
      "outputs": [],
      "stateMutability": "nonpayable",
      "type": "function"
    },
    {
      "inputs": [
        {
          "internalType": "address",
          "name": "",
          "type": "address"
        }
      ],
      "name": "rewardData",
      "outputs": [
        {
          "internalType": "uint256",
          "name": "periodFinish",
          "type": "uint256"
        },
        {
          "internalType": "uint256",
          "name": "rewardRate",
          "type": "uint256"
        },
        {
          "internalType": "uint256",
          "name": "lastUpdateTime",
          "type": "uint256"
        },
        {
          "internalType": "uint256",
          "name": "rewardPerTokenStored",
          "type": "uint256"
        }
      ],
      "stateMutability": "view",
      "type": "function"
    },
    {
      "inputs": [
        {
          "internalType": "address",
          "name": "",
          "type": "address"
        },
        {
          "internalType": "address",
          "name": "",
          "type": "address"
        }
      ],
      "name": "rewardDistributors",
      "outputs": [
        {
          "internalType": "bool",
          "name": "",
          "type": "bool"
        }
      ],
      "stateMutability": "view",
      "type": "function"
    },
    {
      "inputs": [
        {
          "internalType": "address",
          "name": "_rewardsToken",
          "type": "address"
        }
      ],
      "name": "rewardPerToken",
      "outputs": [
        {
          "internalType": "uint256",
          "name": "",
          "type": "uint256"
        }
      ],
      "stateMutability": "view",
      "type": "function"
    },
    {
      "inputs": [
        {
          "internalType": "uint256",
          "name": "",
          "type": "uint256"
        }
      ],
      "name": "rewardTokens",
      "outputs": [
        {
          "internalType": "address",
          "name": "",
          "type": "address"
        }
      ],
      "stateMutability": "view",
      "type": "function"
    },
    {
      "inputs": [
        {
          "internalType": "uint256",
          "name": "",
          "type": "uint256"
        },
        {
          "internalType": "address",
          "name": "",
          "type": "address"
        }
      ],
      "name": "rewards",
      "outputs": [
        {
          "internalType": "uint256",
          "name": "",
          "type": "uint256"
        }
      ],
      "stateMutability": "view",
      "type": "function"
    },
    {
      "inputs": [],
      "name": "rewardsDuration",
      "outputs": [
        {
          "internalType": "uint256",
          "name": "",
          "type": "uint256"
        }
      ],
      "stateMutability": "view",
      "type": "function"
    },
    {
      "inputs": [
        {
          "internalType": "address",
          "name": "from",
          "type": "address"
        },
        {
          "internalType": "address",
          "name": "to",
          "type": "address"
        },
        {
          "internalType": "uint256",
          "name": "tokenId",
          "type": "uint256"
        }
      ],
      "name": "safeTransferFrom",
      "outputs": [],
      "stateMutability": "nonpayable",
      "type": "function"
    },
    {
      "inputs": [
        {
          "internalType": "address",
          "name": "from",
          "type": "address"
        },
        {
          "internalType": "address",
          "name": "to",
          "type": "address"
        },
        {
          "internalType": "uint256",
          "name": "tokenId",
          "type": "uint256"
        },
        {
          "internalType": "bytes",
          "name": "_data",
          "type": "bytes"
        }
      ],
      "name": "safeTransferFrom",
      "outputs": [],
      "stateMutability": "nonpayable",
      "type": "function"
    },
    {
      "inputs": [],
      "name": "seller",
      "outputs": [
        {
          "internalType": "address payable",
          "name": "",
          "type": "address"
        }
      ],
      "stateMutability": "view",
      "type": "function"
    },
    {
      "inputs": [
        {
          "internalType": "address",
          "name": "operator",
          "type": "address"
        },
        {
          "internalType": "bool",
          "name": "approved",
          "type": "bool"
        }
      ],
      "name": "setApprovalForAll",
      "outputs": [],
      "stateMutability": "nonpayable",
      "type": "function"
    },
    {
      "inputs": [
        {
          "internalType": "uint256",
          "name": "_lockIndex",
          "type": "uint256"
        },
        {
          "internalType": "uint256",
          "name": "_duration",
          "type": "uint256"
        },
        {
          "internalType": "uint256",
          "name": "_multiplier",
          "type": "uint256"
        }
      ],
      "name": "setLockChoice",
      "outputs": [],
      "stateMutability": "nonpayable",
      "type": "function"
    },
    {
      "inputs": [
        {
          "internalType": "bytes4",
          "name": "interfaceId",
          "type": "bytes4"
        }
      ],
      "name": "supportsInterface",
      "outputs": [
        {
          "internalType": "bool",
          "name": "",
          "type": "bool"
        }
      ],
      "stateMutability": "view",
      "type": "function"
    },
    {
      "inputs": [],
      "name": "symbol",
      "outputs": [
        {
          "internalType": "string",
          "name": "",
          "type": "string"
        }
      ],
      "stateMutability": "view",
      "type": "function"
    },
    {
      "inputs": [
        {
          "internalType": "uint256",
          "name": "index",
          "type": "uint256"
        }
      ],
      "name": "tokenByIndex",
      "outputs": [
        {
          "internalType": "uint256",
          "name": "",
          "type": "uint256"
        }
      ],
      "stateMutability": "view",
      "type": "function"
    },
    {
      "inputs": [
        {
          "internalType": "address",
          "name": "owner",
          "type": "address"
        },
        {
          "internalType": "uint256",
          "name": "index",
          "type": "uint256"
        }
      ],
      "name": "tokenOfOwnerByIndex",
      "outputs": [
        {
          "internalType": "uint256",
          "name": "",
          "type": "uint256"
        }
      ],
      "stateMutability": "view",
      "type": "function"
    },
    {
      "inputs": [
        {
          "internalType": "uint256",
          "name": "_tokenId",
          "type": "uint256"
        }
      ],
      "name": "tokenURI",
      "outputs": [
        {
          "internalType": "string",
          "name": "",
          "type": "string"
        }
      ],
      "stateMutability": "view",
      "type": "function"
    },
    {
      "inputs": [],
      "name": "totalERC20Supply",
      "outputs": [
        {
          "internalType": "uint256",
          "name": "",
          "type": "uint256"
        }
      ],
      "stateMutability": "view",
      "type": "function"
    },
    {
      "inputs": [],
      "name": "totalSupply",
      "outputs": [
        {
          "internalType": "uint256",
          "name": "",
          "type": "uint256"
        }
      ],
      "stateMutability": "view",
      "type": "function"
    },
    {
      "inputs": [
        {
          "internalType": "address",
          "name": "from",
          "type": "address"
        },
        {
          "internalType": "address",
          "name": "to",
          "type": "address"
        },
        {
          "internalType": "uint256",
          "name": "tokenId",
          "type": "uint256"
        }
      ],
      "name": "transferFrom",
      "outputs": [],
      "stateMutability": "nonpayable",
      "type": "function"
    },
    {
      "inputs": [
        {
          "internalType": "address",
          "name": "newOwner",
          "type": "address"
        }
      ],
      "name": "transferOwnership",
      "outputs": [],
      "stateMutability": "nonpayable",
      "type": "function"
    },
    {
      "inputs": [
        {
          "internalType": "address payable",
          "name": "_to",
          "type": "address"
        }
      ],
      "name": "withdrawETH",
      "outputs": [],
      "stateMutability": "nonpayable",
      "type": "function"
    }
  ],
  "bytecode": "0x6080604052612710600e556703782dace9d90000600f553480156200002357600080fd5b506040516200482738038062004827833981016040819052620000469162000214565b604080518082018252600c81526b14d050d491510810915054d560a21b60208083019182528351808501909452600384526229a1a160e91b908401528151919291620000959160009162000155565b508051620000ab90600190602084019062000155565b505050620000c8620000c2620000ff60201b60201c565b62000103565b6001600b55600c80546001600160a01b039384166001600160a01b031991821617909155600d805492909316911617905562000290565b3390565b600a80546001600160a01b038381166001600160a01b0319831681179093556040519116919082907f8be0079c531659141344cd1fd0a4f28419497f9722a3daafe3b4186f6b6457e090600090a35050565b828054620001639062000253565b90600052602060002090601f016020900481019282620001875760008555620001d2565b82601f10620001a257805160ff1916838001178555620001d2565b82800160010185558215620001d2579182015b82811115620001d2578251825591602001919060010190620001b5565b50620001e0929150620001e4565b5090565b5b80821115620001e05760008155600101620001e5565b6001600160a01b03811681146200021157600080fd5b50565b600080604083850312156200022857600080fd5b82516200023581620001fb565b60208401519092506200024881620001fb565b809150509250929050565b600181811c908216806200026857607f821691505b602082108114156200028a57634e487b7160e01b600052602260045260246000fd5b50919050565b61458780620002a06000396000f3fe608060405234801561001057600080fd5b50600436106103205760003560e01c80636815b6d6116101a7578063a22cb465116100ee578063ca5c7b9111610097578063f2db11af11610071578063f2db11af1461077c578063f2fde38b146107a7578063f6d30e6b146107ba57600080fd5b8063ca5c7b9114610724578063e985e9c51461072d578063f12297771461076957600080fd5b8063b88d4fde116100c8578063b88d4fde146106eb578063bcd11014146106fe578063c87b56dd1461071157600080fd5b8063a22cb46514610685578063a444914b14610698578063af9ea7c3146106c057600080fd5b80637bb7bed111610150578063919cbc4e1161012a578063919cbc4e1461062057806395d89b41146106295780639d0214cb1461063157600080fd5b80637bb7bed1146105e95780638980f11f146105fc5780638da5cb5b1461060f57600080fd5b8063715018a611610181578063715018a6146105bb57806373de83c4146105c35780637a0dedf6146105d657600080fd5b80636815b6d61461058c578063690d83201461059557806370a08231146105a857600080fd5b806332cb6b0c1161026b57806348e5d9f8116102145780636352211e116101ee5780636352211e14610553578063638634ee146105665780636724c9101461057957600080fd5b806348e5d9f8146104d85780634f6ccce71461052d578063545edc341461054057600080fd5b806340b47e1a1161024557806340b47e1a1461049f57806342842e0e146104b25780634404972a146104c557600080fd5b806332cb6b0c1461045e578063386a95251461046757806339fc97131461047157600080fd5b806318c0c519116102cd5780632514057e116102a75780632514057e146104005780632a314a92146104385780632f745c591461044b57600080fd5b806318c0c519146103c75780631c4b774b146103da57806323b872dd146103ed57600080fd5b806308551a53116102fe57806308551a531461038d578063095ea7b3146103a057806318160ddd146103b557600080fd5b806301ffc9a71461032557806306fdde031461034d578063081812fc14610362575b600080fd5b610338610333366004613a78565b6107cd565b60405190151581526020015b60405180910390f35b610355610829565b6040516103449190613b0b565b610375610370366004613b1e565b6108bb565b6040516001600160a01b039091168152602001610344565b600d54610375906001600160a01b031681565b6103b36103ae366004613b4c565b610966565b005b6008545b604051908152602001610344565b6103b96103d5366004613b1e565b610a98565b6103b36103e8366004613b1e565b610bf5565b6103b36103fb366004613b78565b61101e565b61041361040e366004613bb9565b6110a5565b6040805193845260208085019390935281519084015201516060820152608001610344565b6103b3610446366004613b1e565b6110ff565b6103b9610459366004613b4c565b6112aa565b6103b9600e5481565b6103b962093a8081565b61033861047f366004613bdb565b601660209081526000928352604080842090915290825290205460ff1681565b6103b36104ad366004613bdb565b611352565b6103b36104c0366004613b78565b61148f565b6103b36104d3366004613bb9565b6114aa565b61050d6104e6366004613c14565b60156020526000908152604090208054600182015460028301546003909301549192909184565b604080519485526020850193909352918301526060820152608001610344565b6103b961053b366004613b1e565b6115c1565b6103b361054e366004613c31565b611665565b610375610561366004613b1e565b611736565b6103b9610574366004613c14565b6117c1565b6103b3610587366004613c6b565b6117e5565b6103b960115481565b6103b36105a3366004613c14565b6118bc565b6103b96105b6366004613c14565b61194f565b6103b36119e9565b6103b36105d1366004613b1e565b611a4f565b6103b36105e4366004613c31565b611c6d565b6103756105f7366004613b1e565b612008565b6103b361060a366004613b4c565b612032565b600a546001600160a01b0316610375565b6103b9600f5481565b61035561220c565b61066561063f366004613b1e565b6010602052600090815260409020805460019091015460ff808316926101009004169083565b6040805160ff948516815293909216602084015290820152606001610344565b6103b3610693366004613cb6565b61221b565b6106ab6106a6366004613b1e565b612226565b60408051928352602083019190915201610344565b6103b96106ce366004613ce4565b601860209081526000928352604080842090915290825290205481565b6103b36106f9366004613d38565b612254565b6103b961070c366004613c14565b6122e2565b61035561071f366004613b1e565b61230c565b6103b960125481565b61033861073b366004613bdb565b6001600160a01b03918216600090815260056020908152604080832093909416825291909152205460ff1690565b6103b9610777366004613c14565b612500565b6103b961078a366004613ce4565b601960209081526000928352604080842090915290825290205481565b6103b36107b5366004613c14565b612539565b6103b36107c8366004613b1e565b61261b565b60007fffffffff0000000000000000000000000000000000000000000000000000000082167f780e9d630000000000000000000000000000000000000000000000000000000014806108235750610823826128d5565b92915050565b60606000805461083890613e36565b80601f016020809104026020016040519081016040528092919081815260200182805461086490613e36565b80156108b15780601f10610886576101008083540402835291602001916108b1565b820191906000526020600020905b81548152906001019060200180831161089457829003601f168201915b5050505050905090565b6000818152600260205260408120546001600160a01b031661094a5760405162461bcd60e51b815260206004820152602c60248201527f4552433732313a20617070726f76656420717565727920666f72206e6f6e657860448201527f697374656e7420746f6b656e000000000000000000000000000000000000000060648201526084015b60405180910390fd5b506000908152600460205260409020546001600160a01b031690565b600061097182611736565b9050806001600160a01b0316836001600160a01b031614156109fb5760405162461bcd60e51b815260206004820152602160248201527f4552433732313a20617070726f76616c20746f2063757272656e74206f776e6560448201527f72000000000000000000000000000000000000000000000000000000000000006064820152608401610941565b336001600160a01b0382161480610a175750610a17813361073b565b610a895760405162461bcd60e51b815260206004820152603860248201527f4552433732313a20617070726f76652063616c6c6572206973206e6f74206f7760448201527f6e6572206e6f7220617070726f76656420666f7220616c6c00000000000000006064820152608401610941565b610a9383836129b8565b505050565b60008181526002602052604081205482906001600160a01b0316610afe5760405162461bcd60e51b815260206004820152601460248201527f546f6b656e20646f6573206e6f742065786973740000000000000000000000006044820152606401610941565b33610b0884611736565b6001600160a01b031614610b5e5760405162461bcd60e51b815260206004820152601060248201527f4e6f74204f776e6572206f66204e4654000000000000000000000000000000006044820152606401610941565b6000838152601a6020526040812080549091805b82811015610be95742848281548110610b8d57610b8d613e84565b9060005260206000209060040201600101541115610bd757838181548110610bb757610bb7613e84565b90600052602060002090600402016000015482610bd49190613ee2565b91505b80610be181613efa565b915050610b72565b50935050505b50919050565b6002600b541415610c485760405162461bcd60e51b815260206004820152601f60248201527f5265656e7472616e637947756172643a207265656e7472616e742063616c6c006044820152606401610941565b6002600b55600c5460125482916001600160a01b031690600090610c6c8382612a3e565b6001600160a01b038416600090815260156020526040902060030155610c91836117c1565b6001600160a01b038416600090815260156020526040902060020155610cce846000908152600260205260409020546001600160a01b0316151590565b610d405760405162461bcd60e51b815260206004820152602f60248201527f4552433732314d657461646174613a2055524920717565727920666f72206e6f60448201527f6e6578697374656e7420746f6b656e00000000000000000000000000000000006064820152608401610941565b6000848152601b6020526040902060020154610d60908590859084612aec565b60008581526019602090815260408083206001600160a01b0388168085529083528184209490945560158252808320600301548884526018835281842094845293825280832093909355868252601b90522054601154909250905060015b601454811015610ea25760148181548110610ddb57610ddb613e84565b6000918252602090912001546001600160a01b03169350610dfc8483612a3e565b6001600160a01b038516600090815260156020526040902060030155610e21846117c1565b6001600160a01b038516600090815260156020526040902060020155610e4985858585612aec565b60008681526019602090815260408083206001600160a01b038916808552908352818420949094556015825280832060030154898452601883528184209484529390915290205580610e9a81613efa565b915050610dbe565b5060005b60145481101561101157600060148281548110610ec557610ec5613e84565b60009182526020808320909101548983526019825260408084206001600160a01b03909216808552919092529120549091508015610ffc5760008881526019602090815260408083206001600160a01b03861680855292528083209290925590517fa9059cbb0000000000000000000000000000000000000000000000000000000081523360048201526024810183905263a9059cbb90604401602060405180830381600087803b158015610f7957600080fd5b505af1158015610f8d573d6000803e3d6000fd5b505050506040513d601f19601f82011682018060405250810190610fb19190613f33565b50604080513381526001600160a01b03841660208201529081018290527f540798df468d7b23d11f156fdb954cb19ad414d150722a7b6d55ba369dea792e9060600160405180910390a15b5050808061100990613efa565b915050610ea6565b50506001600b5550505050565b6110283382612b6a565b61109a5760405162461bcd60e51b815260206004820152603160248201527f4552433732313a207472616e736665722063616c6c6572206973206e6f74206f60448201527f776e6572206e6f7220617070726f7665640000000000000000000000000000006064820152608401610941565b610a93838383612c6e565b601a60205281600052604060002081815481106110c157600080fd5b600091825260209182902060049091020180546001820154604080518082019091526002840154815260039093015493830193909352935090915083565b3361110982611736565b6001600160a01b03161461111c57600080fd5b6000818152601060205260409020546111399060ff166005614070565b61114690620f424061407f565b61115890670de0b6b3a764000061407f565b6000828152601060205260409020600101541161117457600080fd5b600081815260106020526040902054600660ff9091161061119457600080fd5b60008181526010602052604090205460ff16600114156112215760006111dc6005837f2a314a9200000000000000000000000000000000000000000000000000000000612e5e565b6000838152601060205260409020805460ff909216610100027fffffffffffffffffffffffffffffffffffffffffffffffffffffffffffff00ff909216919091179055505b600081815260106020526040812080546001929061124390849060ff166140bc565b82546101009290920a60ff8181021990931691831602179091556000838152601060209081526040918290205482518681529316908301527f7c5df07daff086a5c44a8baad5d3e79781acaa5ec7654211fa8e30cc7322211392500160405180910390a150565b60006112b58361194f565b82106113295760405162461bcd60e51b815260206004820152602b60248201527f455243373231456e756d657261626c653a206f776e657220696e646578206f7560448201527f74206f6620626f756e64730000000000000000000000000000000000000000006064820152608401610941565b506001600160a01b03919091166000908152600660209081526040808320938352929052205490565b600a546001600160a01b031633146113ac5760405162461bcd60e51b815260206004820181905260248201527f4f776e61626c653a2063616c6c6572206973206e6f7420746865206f776e65726044820152606401610941565b6001600160a01b038216600090815260156020526040902060020154156113d257600080fd5b6014805460018082019092557fce6d7b5282bd9a3661ae061feed1dbda4e52ab073b1f9285be6e155d9c38d4ec0180547fffffffffffffffffffffffff0000000000000000000000000000000000000000166001600160a01b03948516908117909155600090815260156020908152604080832042600282018190559055601682528083209490951682529290925291902080547fffffffffffffffffffffffffffffffffffffffffffffffffffffffffffffff00169091179055565b610a9383838360405180602001604052806000815250612254565b600a546001600160a01b031633146115045760405162461bcd60e51b815260206004820181905260248201527f4f776e61626c653a2063616c6c6572206973206e6f7420746865206f776e65726044820152606401610941565b604080518082018252838152602080820184815260178054600181018255600082905293517fc624b66cc0138b8fabc209247f72d758e1cf3343756d543badbf24212bed8c1560029095029485015590517fc624b66cc0138b8fabc209247f72d758e1cf3343756d543badbf24212bed8c1690930192909255905482519081529081018490529081018290527fa41017d8802e7e891c590c66e4f54b95797591f870898950d292f779fd6f95f89060600160405180910390a15050565b60006115cc60085490565b82106116405760405162461bcd60e51b815260206004820152602c60248201527f455243373231456e756d657261626c653a20676c6f62616c20696e646578206f60448201527f7574206f6620626f756e647300000000000000000000000000000000000000006064820152608401610941565b6008828154811061165357611653613e84565b90600052602060002001549050919050565b600a546001600160a01b031633146116bf5760405162461bcd60e51b815260206004820181905260248201527f4f776e61626c653a2063616c6c6572206973206e6f7420746865206f776e65726044820152606401610941565b6000601784815481106116d4576116d4613e84565b60009182526020918290206002909102018481556001810184905560408051878152928301869052820184905291507f995322dc15f5c8a0198e5dbadbb1142f145efaa71fba43947f92505288ac5e129060600160405180910390a150505050565b6000818152600260205260408120546001600160a01b0316806108235760405162461bcd60e51b815260206004820152602960248201527f4552433732313a206f776e657220717565727920666f72206e6f6e657869737460448201527f656e7420746f6b656e00000000000000000000000000000000000000000000006064820152608401610941565b6001600160a01b038116600090815260156020526040812054610823904290612f0f565b600a546001600160a01b0316331461183f5760405162461bcd60e51b815260206004820181905260248201527f4f776e61626c653a2063616c6c6572206973206e6f7420746865206f776e65726044820152606401610941565b6001600160a01b03831660009081526015602052604090206002015461186457600080fd5b6001600160a01b0392831660009081526016602090815260408083209490951682529290925291902080547fffffffffffffffffffffffffffffffffffffffffffffffffffffffffffffff0016911515919091179055565b600a546001600160a01b031633146119165760405162461bcd60e51b815260206004820181905260248201527f4f776e61626c653a2063616c6c6572206973206e6f7420746865206f776e65726044820152606401610941565b6040516001600160a01b038216904780156108fc02916000818181858888f1935050505015801561194b573d6000803e3d6000fd5b5050565b60006001600160a01b0382166119cd5760405162461bcd60e51b815260206004820152602a60248201527f4552433732313a2062616c616e636520717565727920666f7220746865207a6560448201527f726f2061646472657373000000000000000000000000000000000000000000006064820152608401610941565b506001600160a01b031660009081526003602052604090205490565b600a546001600160a01b03163314611a435760405162461bcd60e51b815260206004820181905260248201527f4f776e61626c653a2063616c6c6572206973206e6f7420746865206f776e65726044820152606401610941565b611a4d6000612f25565b565b600e5481611a5c60085490565b611a669190613ee2565b1115611ab45760405162461bcd60e51b815260206004820181905260248201527f507572636861736520776f756c6420657863656564206d617820737570706c796044820152606401610941565b600081600f54611ac4919061407f565b600c54600d546040517f23b872dd0000000000000000000000000000000000000000000000000000000081523360048201526001600160a01b0391821660248201526044810184905292935016906323b872dd90606401602060405180830381600087803b158015611b3557600080fd5b505af1158015611b49573d6000803e3d6000fd5b505050506040513d601f19601f82011682018060405250810190611b6d9190613f33565b611bb95760405162461bcd60e51b815260206004820152601060248201527f57726f6e672070617920616d6f756e74000000000000000000000000000000006044820152606401610941565b60005b82811015610a93576000611bcf60085490565b9050600e54611bdd60085490565b1015611c5a57611bed3382612f8f565b6040805160608101825260018082526000602080840182815284860183815287845260109092529490912092518354945160ff908116610100027fffffffffffffffffffffffffffffffffffffffffffffffffffffffffffff000090961691161793909317825591519101555b5080611c6581613efa565b915050611bbc565b60008381526002602052604090205483906001600160a01b0316611cd35760405162461bcd60e51b815260206004820152601460248201527f546f6b656e20646f6573206e6f742065786973740000000000000000000000006044820152606401610941565b600c546040517f23b872dd000000000000000000000000000000000000000000000000000000008152336004820152306024820152604481018590526001600160a01b03909116906323b872dd90606401602060405180830381600087803b158015611d3e57600080fd5b505af1158015611d52573d6000803e3d6000fd5b505050506040513d601f19601f82011682018060405250810190611d769190613f33565b611d7f57600080fd5b82601154611d8d9190613ee2565b6011556000848152601b602052604090208054611dab908590613ee2565b808255611db9908590613ee2565b81600201819055508360126000828254611dd39190613ee2565b92505081905550600060178481548110611def57611def613e84565b906000526020600020906002020190506000611e2a868360405180604001604052908160008201548152602001600182015481525050612fa9565b905080601060008981526020019081526020016000206001016000828254611e529190613ee2565b90915550508154600090611e669042613ee2565b6000898152601a6020526040902054909150801580611ebf57506000898152601a602052604090208290611e9b6001846140e1565b81548110611eab57611eab613e84565b906000526020600020906004020160010154105b15611f3a576000898152601a6020908152604080832081516060810183528c8152808401878152835180850185528a5481526001808c01548288015294830190815283548086018555938752958590209151600490930290910191825551918101919091559151805160028401550151600390910155611fbc565b6000898152601a602052604090208890611f556001846140e1565b81548110611f6557611f65613e84565b906000526020600020906004020160000154611f819190613ee2565b60008a8152601a60205260409020611f9a6001846140e1565b81548110611faa57611faa613e84565b60009182526020909120600490910201555b604080518a8152602081018a90529081018390527fd08d1e82229a1d0f8cd0a1da06c35f597af0438b2690e2288fe64999b6df50a69060600160405180910390a1505050505050505050565b6014818154811061201857600080fd5b6000918252602090912001546001600160a01b0316905081565b600a546001600160a01b0316331461208c5760405162461bcd60e51b815260206004820181905260248201527f4f776e61626c653a2063616c6c6572206973206e6f7420746865206f776e65726044820152606401610941565b600c546001600160a01b03838116911614156120ea5760405162461bcd60e51b815260206004820152601d60248201527f43616e6e6f74207769746864726177207374616b696e6720746f6b656e0000006044820152606401610941565b6001600160a01b038216600090815260156020526040902060020154156121535760405162461bcd60e51b815260206004820152601c60248201527f43616e6e6f742077697468647261772072657761726420746f6b656e000000006044820152606401610941565b816001600160a01b031663a9059cbb612174600a546001600160a01b031690565b6040517fffffffff0000000000000000000000000000000000000000000000000000000060e084901b1681526001600160a01b03909116600482015260248101849052604401602060405180830381600087803b1580156121d457600080fd5b505af11580156121e8573d6000803e3d6000fd5b505050506040513d601f19601f82011682018060405250810190610a939190613f33565b60606001805461083890613e36565b61194b338383612fca565b6017818154811061223657600080fd5b60009182526020909120600290910201805460019091015490915082565b61225e3383612b6a565b6122d05760405162461bcd60e51b815260206004820152603160248201527f4552433732313a207472616e736665722063616c6c6572206973206e6f74206f60448201527f776e6572206e6f7220617070726f7665640000000000000000000000000000006064820152608401610941565b6122dc848484846130b7565b50505050565b6001600160a01b0381166000908152601560205260408120600101546108239062093a809061407f565b6000818152600260205260409020546060906001600160a01b03166123995760405162461bcd60e51b815260206004820152602f60248201527f4552433732314d657461646174613a2055524920717565727920666f72206e6f60448201527f6e6578697374656e7420746f6b656e00000000000000000000000000000000006064820152608401610941565b60006123b060408051602081019091526000815290565b905060006123bd84613140565b6040516020016123cd9190614114565b604080517fffffffffffffffffffffffffffffffffffffffffffffffffffffffffffffffe081840301815291815260008681526010602052908120600101549192509061241990613140565b6000868152601060205260408120549192509061243d90610100900460ff16613140565b6000878152601060205260408120549192509061245c9060ff16613140565b905060008086511161247d57604051806020016040528060008152506124a2565b85838360405160200161249293929190614159565b6040516020818303038152906040525b90506124d485858486856040516020016124c09594939291906141f9565b604051602081830303815290604052613272565b6040516020016124e491906143ed565b6040516020818303038152906040529650505050505050919050565b600c5460009081906001600160a01b0384811691161461252257601154612526565b6012545b90506125328382612a3e565b9392505050565b600a546001600160a01b031633146125935760405162461bcd60e51b815260206004820181905260248201527f4f776e61626c653a2063616c6c6572206973206e6f7420746865206f776e65726044820152606401610941565b6001600160a01b03811661260f5760405162461bcd60e51b815260206004820152602660248201527f4f776e61626c653a206e6577206f776e657220697320746865207a65726f206160448201527f64647265737300000000000000000000000000000000000000000000000000006064820152608401610941565b61261881612f25565b50565b60008181526002602052604090205481906001600160a01b03166126815760405162461bcd60e51b815260206004820152601460248201527f546f6b656e20646f6573206e6f742065786973740000000000000000000000006044820152606401610941565b3361268b83611736565b6001600160a01b0316146126e15760405162461bcd60e51b815260206004820152601060248201527f4e6f74204f776e6572206f66204e4654000000000000000000000000000000006044820152606401610941565b6000828152601a60209081526040808320601b909252822081549192909190805b828110156127af574285828154811061271d5761271d613e84565b906000526020600020906004020160010154111561279d5784818154811061274757612747613e84565b906000526020600020906004020160000154826127649190613ee2565b915084818154811061277857612778613e84565b6000918252602082206004909102018181556001810182905560028101829055600301555b806127a781613efa565b915050612702565b508083600201546127c091906140e1565b600284015582546127d29082906140e1565b83556011546127e29082906140e1565b6011556012546127f39082906140e1565b601255600c546040517fa9059cbb000000000000000000000000000000000000000000000000000000008152336004820152602481018390526001600160a01b039091169063a9059cbb90604401602060405180830381600087803b15801561285b57600080fd5b505af115801561286f573d6000803e3d6000fd5b505050506040513d601f19601f820116820180604052508101906128939190613f33565b5060408051878152602081018390527fc266233ef087afa73a2a6f7c129f3c7184bbdae1c5b5763a4b9b378a6ae11fe7910160405180910390a1505050505050565b60007fffffffff0000000000000000000000000000000000000000000000000000000082167f80ac58cd00000000000000000000000000000000000000000000000000000000148061296857507fffffffff0000000000000000000000000000000000000000000000000000000082167f5b5e139f00000000000000000000000000000000000000000000000000000000145b8061082357507f01ffc9a7000000000000000000000000000000000000000000000000000000007fffffffff00000000000000000000000000000000000000000000000000000000831614610823565b600081815260046020526040902080547fffffffffffffffffffffffff0000000000000000000000000000000000000000166001600160a01b0384169081179091558190612a0582611736565b6001600160a01b03167f8c5be1e5ebec7d5bd14f71427d1e84f3dd0314c0f7b2291e5b200ac8c7c3b92560405160405180910390a45050565b600081612a6757506001600160a01b038216600090815260156020526040902060030154610823565b6001600160a01b03831660009081526015602052604090206001810154600290910154839190612a96866117c1565b612aa091906140e1565b612aaa919061407f565b612abc90670de0b6b3a764000061407f565b612ac69190614461565b6001600160a01b0384166000908152601560205260409020600301546125329190613ee2565b60008481526019602090815260408083206001600160a01b03871680855290835281842054888552601884528285209185529252822054670de0b6b3a764000090612b378786612a3e565b612b4191906140e1565b612b4b908661407f565b612b559190614461565b612b5f9190613ee2565b90505b949350505050565b6000818152600260205260408120546001600160a01b0316612bf45760405162461bcd60e51b815260206004820152602c60248201527f4552433732313a206f70657261746f7220717565727920666f72206e6f6e657860448201527f697374656e7420746f6b656e00000000000000000000000000000000000000006064820152608401610941565b6000612bff83611736565b9050806001600160a01b0316846001600160a01b03161480612c3a5750836001600160a01b0316612c2f846108bb565b6001600160a01b0316145b80612b6257506001600160a01b0380821660009081526005602090815260408083209388168352929052205460ff16612b62565b826001600160a01b0316612c8182611736565b6001600160a01b031614612cfd5760405162461bcd60e51b815260206004820152602960248201527f4552433732313a207472616e73666572206f6620746f6b656e2074686174206960448201527f73206e6f74206f776e00000000000000000000000000000000000000000000006064820152608401610941565b6001600160a01b038216612d785760405162461bcd60e51b8152602060048201526024808201527f4552433732313a207472616e7366657220746f20746865207a65726f2061646460448201527f72657373000000000000000000000000000000000000000000000000000000006064820152608401610941565b612d8383838361344b565b612d8e6000826129b8565b6001600160a01b0383166000908152600360205260408120805460019290612db79084906140e1565b90915550506001600160a01b0382166000908152600360205260408120805460019290612de5908490613ee2565b909155505060008181526002602052604080822080547fffffffffffffffffffffffff0000000000000000000000000000000000000000166001600160a01b0386811691821790925591518493918716917fddf252ad1be2c89b69c2b068fc378daa952ba7f163c4a11628f55a4df523b3ef91a4505050565b6000612e6b846001613ee2565b60408051446020820152439181019190915232606090811b7fffffffffffffffffffffffffffffffffffffffff00000000000000000000000016908201523a60748201527fffffffff00000000000000000000000000000000000000000000000000000000841660948201526098810185905260b8016040516020818303038152906040528051906020012060001c612f049190614475565b612b62906001613ee2565b6000818310612f1e5781612532565b5090919050565b600a80546001600160a01b038381167fffffffffffffffffffffffff0000000000000000000000000000000000000000831681179093556040519116919082907f8be0079c531659141344cd1fd0a4f28419497f9722a3daafe3b4186f6b6457e090600090a35050565b61194b828260405180602001604052806000815250613503565b60008282602001518360000151612fc0919061407f565b612532919061407f565b816001600160a01b0316836001600160a01b0316141561302c5760405162461bcd60e51b815260206004820152601960248201527f4552433732313a20617070726f766520746f2063616c6c6572000000000000006044820152606401610941565b6001600160a01b0383811660008181526005602090815260408083209487168084529482529182902080547fffffffffffffffffffffffffffffffffffffffffffffffffffffffffffffff001686151590811790915591519182527f17307eab39ab6107e8899845ad3d59bd9653f200f220920489ca2b5937696c31910160405180910390a3505050565b6130c2848484612c6e565b6130ce8484848461358c565b6122dc5760405162461bcd60e51b815260206004820152603260248201527f4552433732313a207472616e7366657220746f206e6f6e20455243373231526560448201527f63656976657220696d706c656d656e74657200000000000000000000000000006064820152608401610941565b60608161318057505060408051808201909152600181527f3000000000000000000000000000000000000000000000000000000000000000602082015290565b8160005b81156131aa578061319481613efa565b91506131a39050600a83614461565b9150613184565b60008167ffffffffffffffff8111156131c5576131c5613d09565b6040519080825280601f01601f1916602001820160405280156131ef576020820181803683370190505b5090505b8415612b62576132046001836140e1565b9150613211600a86614475565b61321c906030613ee2565b60f81b81838151811061323157613231613e84565b60200101907effffffffffffffffffffffffffffffffffffffffffffffffffffffffffffff1916908160001a90535061326b600a86614461565b94506131f3565b606081516000141561329257505060408051602081019091526000815290565b600060405180606001604052806040815260200161451260409139905060006003845160026132c19190613ee2565b6132cb9190614461565b6132d690600461407f565b905060006132e5826020613ee2565b67ffffffffffffffff8111156132fd576132fd613d09565b6040519080825280601f01601f191660200182016040528015613327576020820181803683370190505b509050818152600183018586518101602084015b81831015613393576003830192508251603f8160121c168501518253600182019150603f81600c1c168501518253600182019150603f8160061c168501518253600182019150603f811685015182535060010161333b565b6003895106600181146133ad57600281146133f75761343d565b7f3d3d0000000000000000000000000000000000000000000000000000000000007ffffffffffffffffffffffffffffffffffffffffffffffffffffffffffffffffe83015261343d565b7f3d000000000000000000000000000000000000000000000000000000000000007fffffffffffffffffffffffffffffffffffffffffffffffffffffffffffffffff8301525b509398975050505050505050565b6001600160a01b0383166134a6576134a181600880546000838152600960205260408120829055600182018355919091527ff3f7a9fe364faab93b216da50a3214154f22a0a2b415b23a84c8169e8b636ee30155565b6134c9565b816001600160a01b0316836001600160a01b0316146134c9576134c98382613754565b6001600160a01b0382166134e057610a93816137f1565b826001600160a01b0316826001600160a01b031614610a9357610a9382826138a0565b61350d83836138e4565b61351a600084848461358c565b610a935760405162461bcd60e51b815260206004820152603260248201527f4552433732313a207472616e7366657220746f206e6f6e20455243373231526560448201527f63656976657220696d706c656d656e74657200000000000000000000000000006064820152608401610941565b60006001600160a01b0384163b1561374c576040517f150b7a020000000000000000000000000000000000000000000000000000000081526001600160a01b0385169063150b7a02906135e9903390899088908890600401614489565b602060405180830381600087803b15801561360357600080fd5b505af1925050508015613651575060408051601f3d9081017fffffffffffffffffffffffffffffffffffffffffffffffffffffffffffffffe016820190925261364e918101906144c5565b60015b613701573d80801561367f576040519150601f19603f3d011682016040523d82523d6000602084013e613684565b606091505b5080516136f95760405162461bcd60e51b815260206004820152603260248201527f4552433732313a207472616e7366657220746f206e6f6e20455243373231526560448201527f63656976657220696d706c656d656e74657200000000000000000000000000006064820152608401610941565b805181602001fd5b7fffffffff00000000000000000000000000000000000000000000000000000000167f150b7a0200000000000000000000000000000000000000000000000000000000149050612b62565b506001612b62565b600060016137618461194f565b61376b91906140e1565b6000838152600760205260409020549091508082146137be576001600160a01b03841660009081526006602090815260408083208584528252808320548484528184208190558352600790915290208190555b5060009182526007602090815260408084208490556001600160a01b039094168352600681528383209183525290812055565b600854600090613803906001906140e1565b6000838152600960205260408120546008805493945090928490811061382b5761382b613e84565b90600052602060002001549050806008838154811061384c5761384c613e84565b6000918252602080832090910192909255828152600990915260408082208490558582528120556008805480613884576138846144e2565b6001900381819060005260206000200160009055905550505050565b60006138ab8361194f565b6001600160a01b039093166000908152600660209081526040808320868452825280832085905593825260079052919091209190915550565b6001600160a01b03821661393a5760405162461bcd60e51b815260206004820181905260248201527f4552433732313a206d696e7420746f20746865207a65726f20616464726573736044820152606401610941565b6000818152600260205260409020546001600160a01b03161561399f5760405162461bcd60e51b815260206004820152601c60248201527f4552433732313a20746f6b656e20616c7265616479206d696e746564000000006044820152606401610941565b6139ab6000838361344b565b6001600160a01b03821660009081526003602052604081208054600192906139d4908490613ee2565b909155505060008181526002602052604080822080547fffffffffffffffffffffffff0000000000000000000000000000000000000000166001600160a01b03861690811790915590518392907fddf252ad1be2c89b69c2b068fc378daa952ba7f163c4a11628f55a4df523b3ef908290a45050565b7fffffffff000000000000000000000000000000000000000000000000000000008116811461261857600080fd5b600060208284031215613a8a57600080fd5b813561253281613a4a565b60005b83811015613ab0578181015183820152602001613a98565b838111156122dc5750506000910152565b60008151808452613ad9816020860160208601613a95565b601f017fffffffffffffffffffffffffffffffffffffffffffffffffffffffffffffffe0169290920160200192915050565b6020815260006125326020830184613ac1565b600060208284031215613b3057600080fd5b5035919050565b6001600160a01b038116811461261857600080fd5b60008060408385031215613b5f57600080fd5b8235613b6a81613b37565b946020939093013593505050565b600080600060608486031215613b8d57600080fd5b8335613b9881613b37565b92506020840135613ba881613b37565b929592945050506040919091013590565b60008060408385031215613bcc57600080fd5b50508035926020909101359150565b60008060408385031215613bee57600080fd5b8235613bf981613b37565b91506020830135613c0981613b37565b809150509250929050565b600060208284031215613c2657600080fd5b813561253281613b37565b600080600060608486031215613c4657600080fd5b505081359360208301359350604090920135919050565b801515811461261857600080fd5b600080600060608486031215613c8057600080fd5b8335613c8b81613b37565b92506020840135613c9b81613b37565b91506040840135613cab81613c5d565b809150509250925092565b60008060408385031215613cc957600080fd5b8235613cd481613b37565b91506020830135613c0981613c5d565b60008060408385031215613cf757600080fd5b823591506020830135613c0981613b37565b7f4e487b7100000000000000000000000000000000000000000000000000000000600052604160045260246000fd5b60008060008060808587031215613d4e57600080fd5b8435613d5981613b37565b93506020850135613d6981613b37565b925060408501359150606085013567ffffffffffffffff80821115613d8d57600080fd5b818701915087601f830112613da157600080fd5b813581811115613db357613db3613d09565b604051601f82017fffffffffffffffffffffffffffffffffffffffffffffffffffffffffffffffe0908116603f01168101908382118183101715613df957613df9613d09565b816040528281528a6020848701011115613e1257600080fd5b82602086016020830137600060208483010152809550505050505092959194509250565b600181811c90821680613e4a57607f821691505b60208210811415610bef577f4e487b7100000000000000000000000000000000000000000000000000000000600052602260045260246000fd5b7f4e487b7100000000000000000000000000000000000000000000000000000000600052603260045260246000fd5b7f4e487b7100000000000000000000000000000000000000000000000000000000600052601160045260246000fd5b60008219821115613ef557613ef5613eb3565b500190565b60007fffffffffffffffffffffffffffffffffffffffffffffffffffffffffffffffff821415613f2c57613f2c613eb3565b5060010190565b600060208284031215613f4557600080fd5b815161253281613c5d565b600181815b80851115613fa957817fffffffffffffffffffffffffffffffffffffffffffffffffffffffffffffffff04821115613f8f57613f8f613eb3565b80851615613f9c57918102915b93841c9390800290613f55565b509250929050565b600082613fc057506001610823565b81613fcd57506000610823565b8160018114613fe35760028114613fed57614009565b6001915050610823565b60ff841115613ffe57613ffe613eb3565b50506001821b610823565b5060208310610133831016604e8410600b841016171561402c575081810a610823565b6140368383613f50565b807fffffffffffffffffffffffffffffffffffffffffffffffffffffffffffffffff0482111561406857614068613eb3565b029392505050565b600061253260ff841683613fb1565b6000817fffffffffffffffffffffffffffffffffffffffffffffffffffffffffffffffff04831182151516156140b7576140b7613eb3565b500290565b600060ff821660ff84168060ff038211156140d9576140d9613eb3565b019392505050565b6000828210156140f3576140f3613eb3565b500390565b6000815161410a818560208601613a95565b9290920192915050565b7f534143524544204245415354202300000000000000000000000000000000000081526000825161414c81600e850160208701613a95565b91909101600e0192915050565b6000845161416b818460208901613a95565b80830190507f2f0000000000000000000000000000000000000000000000000000000000000080825285516141a7816001850160208a01613a95565b600192019182015283516141c2816002840160208801613a95565b7f2e706e67000000000000000000000000000000000000000000000000000000006002929091019182015260060195945050505050565b7f7b226e616d65223a220000000000000000000000000000000000000000000000815260008651614231816009850160208b01613a95565b7f222c20226465736372697074696f6e223a2253616372656420426561737420696009918401918201527f7320746865206d797374686963616c206265617374206f6620455645524d4f4f60298201527f4e20776f726c642e2049742063616e20636f6e73756d6520455645524d4f4f4e60498201527f20546f6b656e20666f722065787020616e6420676574207374726f6e6765722e60698201527f222c2022657870223a220000000000000000000000000000000000000000000060898201528651614306816093840160208b01613a95565b7f222c202265766f6c466f726d223a2200000000000000000000000000000000006093929091019182015285516143448160a2840160208a01613a95565b6143e06143b76143b161438861438260a2868801017f222c202272616365223a220000000000000000000000000000000000000000008152600b0190565b8a6140f8565b7f222c2022696d616765223a2022000000000000000000000000000000000000008152600d0190565b876140f8565b7f227d000000000000000000000000000000000000000000000000000000000000815260020190565b9998505050505050505050565b7f646174613a6170706c69636174696f6e2f6a736f6e3b6261736536342c00000081526000825161442581601d850160208701613a95565b91909101601d0192915050565b7f4e487b7100000000000000000000000000000000000000000000000000000000600052601260045260246000fd5b60008261447057614470614432565b500490565b60008261448457614484614432565b500690565b60006001600160a01b038087168352808616602084015250836040830152608060608301526144bb6080830184613ac1565b9695505050505050565b6000602082840312156144d757600080fd5b815161253281613a4a565b7f4e487b7100000000000000000000000000000000000000000000000000000000600052603160045260246000fdfe4142434445464748494a4b4c4d4e4f505152535455565758595a6162636465666768696a6b6c6d6e6f707172737475767778797a303132333435363738392b2fa26469706673582212205387e379808a240a38e94ddb5e7be64d6ca7fc54ebaa8e0a15841d5bd814747264736f6c63430008090033",
  "linkReferences": {},
  "deployedLinkReferences": {}
}