{
  "address": "0xF0Ce8B8158bA00F923C29eE4e1290d3E5d4D61fA",
  "abi": [
    {
      "inputs": [
        {
          "internalType": "contract IERC20",
          "name": "_foodToken",
          "type": "address"
        },
        {
          "internalType": "address payable",
          "name": "_seller",
          "type": "address"
        }
      ],
      "stateMutability": "nonpayable",
      "type": "constructor"
    },
    {
      "anonymous": false,
      "inputs": [
        {
          "indexed": true,
          "internalType": "address",
          "name": "owner",
          "type": "address"
        },
        {
          "indexed": true,
          "internalType": "address",
          "name": "approved",
          "type": "address"
        },
        {
          "indexed": true,
          "internalType": "uint256",
          "name": "tokenId",
          "type": "uint256"
        }
      ],
      "name": "Approval",
      "type": "event"
    },
    {
      "anonymous": false,
      "inputs": [
        {
          "indexed": true,
          "internalType": "address",
          "name": "owner",
          "type": "address"
        },
        {
          "indexed": true,
          "internalType": "address",
          "name": "operator",
          "type": "address"
        },
        {
          "indexed": false,
          "internalType": "bool",
          "name": "approved",
          "type": "bool"
        }
      ],
      "name": "ApprovalForAll",
      "type": "event"
    },
    {
      "anonymous": false,
      "inputs": [
        {
          "indexed": false,
          "internalType": "uint256",
          "name": "tokenId",
          "type": "uint256"
        },
        {
          "indexed": false,
          "internalType": "uint256",
          "name": "amount",
          "type": "uint256"
        },
        {
          "indexed": false,
          "internalType": "uint256",
          "name": "unlockTime",
          "type": "uint256"
        },
        {
          "components": [
            {
              "internalType": "uint256",
              "name": "duration",
              "type": "uint256"
            },
            {
              "internalType": "uint256",
              "name": "multiplier",
              "type": "uint256"
            },
            {
              "internalType": "uint256",
              "name": "penalty",
              "type": "uint256"
            }
          ],
          "indexed": false,
          "internalType": "struct SacredBeast.LockChoice",
          "name": "choice",
          "type": "tuple"
        }
      ],
      "name": "Feed",
      "type": "event"
    },
    {
      "anonymous": false,
      "inputs": [
        {
          "indexed": true,
          "internalType": "address",
          "name": "previousOwner",
          "type": "address"
        },
        {
          "indexed": true,
          "internalType": "address",
          "name": "newOwner",
          "type": "address"
        }
      ],
      "name": "OwnershipTransferred",
      "type": "event"
    },
    {
      "anonymous": false,
      "inputs": [
        {
          "indexed": false,
          "internalType": "uint256",
          "name": "tokenId",
          "type": "uint256"
        },
        {
          "indexed": false,
          "internalType": "uint256",
          "name": "amount",
          "type": "uint256"
        }
      ],
      "name": "Reclaim",
      "type": "event"
    },
    {
      "anonymous": false,
      "inputs": [
        {
          "indexed": false,
          "internalType": "address",
          "name": "claimer",
          "type": "address"
        },
        {
          "indexed": false,
          "internalType": "address",
          "name": "rewardToken",
          "type": "address"
        },
        {
          "indexed": false,
          "internalType": "uint256",
          "name": "reward",
          "type": "uint256"
        }
      ],
      "name": "RewardPaid",
      "type": "event"
    },
    {
      "anonymous": false,
      "inputs": [
        {
          "indexed": true,
          "internalType": "address",
          "name": "from",
          "type": "address"
        },
        {
          "indexed": true,
          "internalType": "address",
          "name": "to",
          "type": "address"
        },
        {
          "indexed": true,
          "internalType": "uint256",
          "name": "tokenId",
          "type": "uint256"
        }
      ],
      "name": "Transfer",
      "type": "event"
    },
    {
      "inputs": [
        {
          "internalType": "uint256",
          "name": "_duration",
          "type": "uint256"
        },
        {
          "internalType": "uint256",
          "name": "_multiplier",
          "type": "uint256"
        },
        {
          "internalType": "uint256",
          "name": "_penalty",
          "type": "uint256"
        }
      ],
      "name": "AddlockChoice",
      "outputs": [],
      "stateMutability": "nonpayable",
      "type": "function"
    },
    {
      "inputs": [],
      "name": "MAX_SUPPLY",
      "outputs": [
        {
          "internalType": "uint256",
          "name": "",
          "type": "uint256"
        }
      ],
      "stateMutability": "view",
      "type": "function"
    },
    {
      "inputs": [],
      "name": "PRICE_PER_UNIT",
      "outputs": [
        {
          "internalType": "uint256",
          "name": "",
          "type": "uint256"
        }
      ],
      "stateMutability": "view",
      "type": "function"
    },
    {
      "inputs": [
        {
          "internalType": "uint256",
          "name": "_lockIndex",
          "type": "uint256"
        },
        {
          "internalType": "uint256",
          "name": "_duration",
          "type": "uint256"
        },
        {
          "internalType": "uint256",
          "name": "_multiplier",
          "type": "uint256"
        },
        {
          "internalType": "uint256",
          "name": "_penalty",
          "type": "uint256"
        }
      ],
      "name": "SetLockChoice",
      "outputs": [],
      "stateMutability": "nonpayable",
      "type": "function"
    },
    {
      "inputs": [
        {
          "internalType": "address",
          "name": "_rewardsToken",
          "type": "address"
        },
        {
          "internalType": "address",
          "name": "_distributor",
          "type": "address"
        }
      ],
      "name": "addReward",
      "outputs": [],
      "stateMutability": "nonpayable",
      "type": "function"
    },
    {
      "inputs": [
        {
          "internalType": "address",
          "name": "to",
          "type": "address"
        },
        {
          "internalType": "uint256",
          "name": "tokenId",
          "type": "uint256"
        }
      ],
      "name": "approve",
      "outputs": [],
      "stateMutability": "nonpayable",
      "type": "function"
    },
    {
      "inputs": [
        {
          "internalType": "address",
          "name": "_rewardsToken",
          "type": "address"
        },
        {
          "internalType": "address",
          "name": "_distributor",
          "type": "address"
        },
        {
          "internalType": "bool",
          "name": "_approved",
          "type": "bool"
        }
      ],
      "name": "approveRewardDistributor",
      "outputs": [],
      "stateMutability": "nonpayable",
      "type": "function"
    },
    {
      "inputs": [
        {
          "internalType": "address",
          "name": "owner",
          "type": "address"
        }
      ],
      "name": "balanceOf",
      "outputs": [
        {
          "internalType": "uint256",
          "name": "",
          "type": "uint256"
        }
      ],
      "stateMutability": "view",
      "type": "function"
    },
    {
      "inputs": [
        {
          "internalType": "uint256",
          "name": "",
          "type": "uint256"
        }
      ],
      "name": "balances",
      "outputs": [
        {
          "internalType": "uint256",
          "name": "total",
          "type": "uint256"
        },
        {
          "internalType": "uint256",
          "name": "unlocked",
          "type": "uint256"
        },
        {
          "internalType": "uint256",
          "name": "locked",
          "type": "uint256"
        },
        {
          "internalType": "uint256",
          "name": "earned",
          "type": "uint256"
        }
      ],
      "stateMutability": "view",
      "type": "function"
    },
    {
      "inputs": [
        {
          "internalType": "uint256",
          "name": "_tokenId",
          "type": "uint256"
        }
      ],
      "name": "evolutionNFT",
      "outputs": [],
      "stateMutability": "nonpayable",
      "type": "function"
    },
    {
      "inputs": [
        {
          "internalType": "uint256",
          "name": "_tokenId",
          "type": "uint256"
        },
        {
          "internalType": "uint256",
          "name": "_amount",
          "type": "uint256"
        },
        {
          "internalType": "uint256",
          "name": "_lockIndex",
          "type": "uint256"
        }
      ],
      "name": "feed",
      "outputs": [],
      "stateMutability": "nonpayable",
      "type": "function"
    },
    {
      "inputs": [
        {
          "internalType": "uint256",
          "name": "_tokenId",
          "type": "uint256"
        }
      ],
      "name": "feededlists",
      "outputs": [
        {
          "internalType": "uint256",
          "name": "",
          "type": "uint256"
        }
      ],
      "stateMutability": "view",
      "type": "function"
    },
    {
      "inputs": [
        {
          "internalType": "uint256",
          "name": "tokenId",
          "type": "uint256"
        }
      ],
      "name": "getApproved",
      "outputs": [
        {
          "internalType": "address",
          "name": "",
          "type": "address"
        }
      ],
      "stateMutability": "view",
      "type": "function"
    },
    {
      "inputs": [
        {
          "internalType": "uint256",
          "name": "_tokenId",
          "type": "uint256"
        }
      ],
      "name": "getReward",
      "outputs": [],
      "stateMutability": "nonpayable",
      "type": "function"
    },
    {
      "inputs": [
        {
          "internalType": "address",
          "name": "_rewardsToken",
          "type": "address"
        }
      ],
      "name": "getRewardForDuration",
      "outputs": [
        {
          "internalType": "uint256",
          "name": "",
          "type": "uint256"
        }
      ],
      "stateMutability": "view",
      "type": "function"
    },
    {
      "inputs": [
        {
          "internalType": "uint256",
          "name": "_tokenId",
          "type": "uint256"
        }
      ],
      "name": "getunlockamount",
      "outputs": [
        {
          "internalType": "uint256",
          "name": "",
          "type": "uint256"
        }
      ],
      "stateMutability": "view",
      "type": "function"
    },
    {
      "inputs": [
        {
          "internalType": "address",
          "name": "owner",
          "type": "address"
        },
        {
          "internalType": "address",
          "name": "operator",
          "type": "address"
        }
      ],
      "name": "isApprovedForAll",
      "outputs": [
        {
          "internalType": "bool",
          "name": "",
          "type": "bool"
        }
      ],
      "stateMutability": "view",
      "type": "function"
    },
    {
      "inputs": [
        {
          "internalType": "address",
          "name": "_rewardsToken",
          "type": "address"
        }
      ],
      "name": "lastTimeRewardApplicable",
      "outputs": [
        {
          "internalType": "uint256",
          "name": "",
          "type": "uint256"
        }
      ],
      "stateMutability": "view",
      "type": "function"
    },
    {
      "inputs": [
        {
          "internalType": "uint256",
          "name": "",
          "type": "uint256"
        }
      ],
      "name": "lockChoices",
      "outputs": [
        {
          "internalType": "uint256",
          "name": "duration",
          "type": "uint256"
        },
        {
          "internalType": "uint256",
          "name": "multiplier",
          "type": "uint256"
        },
        {
          "internalType": "uint256",
          "name": "penalty",
          "type": "uint256"
        }
      ],
      "stateMutability": "view",
      "type": "function"
    },
    {
      "inputs": [],
      "name": "lockedSupply",
      "outputs": [
        {
          "internalType": "uint256",
          "name": "",
          "type": "uint256"
        }
      ],
      "stateMutability": "view",
      "type": "function"
    },
    {
      "inputs": [
        {
          "internalType": "uint256",
          "name": "_numberOfTokens",
          "type": "uint256"
        }
      ],
      "name": "mintBeast",
      "outputs": [],
      "stateMutability": "nonpayable",
      "type": "function"
    },
    {
      "inputs": [],
      "name": "name",
      "outputs": [
        {
          "internalType": "string",
          "name": "",
          "type": "string"
        }
      ],
      "stateMutability": "view",
      "type": "function"
    },
    {
      "inputs": [
        {
          "internalType": "uint256",
          "name": "",
          "type": "uint256"
        }
      ],
      "name": "nft",
      "outputs": [
        {
          "internalType": "uint8",
          "name": "evolForm",
          "type": "uint8"
        },
        {
          "internalType": "uint256",
          "name": "exp",
          "type": "uint256"
        }
      ],
      "stateMutability": "view",
      "type": "function"
    },
    {
      "inputs": [
        {
          "internalType": "uint256",
          "name": "",
          "type": "uint256"
        },
        {
          "internalType": "uint256",
          "name": "",
          "type": "uint256"
        }
      ],
      "name": "nftLocks",
      "outputs": [
        {
          "internalType": "uint256",
          "name": "amount",
          "type": "uint256"
        },
        {
          "internalType": "uint256",
          "name": "unlockTime",
          "type": "uint256"
        },
        {
          "components": [
            {
              "internalType": "uint256",
              "name": "duration",
              "type": "uint256"
            },
            {
              "internalType": "uint256",
              "name": "multiplier",
              "type": "uint256"
            },
            {
              "internalType": "uint256",
              "name": "penalty",
              "type": "uint256"
            }
          ],
          "internalType": "struct SacredBeast.LockChoice",
          "name": "lockChoice",
          "type": "tuple"
        }
      ],
      "stateMutability": "view",
      "type": "function"
    },
    {
      "inputs": [
        {
          "internalType": "uint256",
          "name": "",
          "type": "uint256"
        },
        {
          "internalType": "address",
          "name": "",
          "type": "address"
        }
      ],
      "name": "nftRewardPerTokenPaid",
      "outputs": [
        {
          "internalType": "uint256",
          "name": "",
          "type": "uint256"
        }
      ],
      "stateMutability": "view",
      "type": "function"
    },
    {
      "inputs": [],
      "name": "owner",
      "outputs": [
        {
          "internalType": "address",
          "name": "",
          "type": "address"
        }
      ],
      "stateMutability": "view",
      "type": "function"
    },
    {
      "inputs": [
        {
          "internalType": "uint256",
          "name": "tokenId",
          "type": "uint256"
        }
      ],
      "name": "ownerOf",
      "outputs": [
        {
          "internalType": "address",
          "name": "",
          "type": "address"
        }
      ],
      "stateMutability": "view",
      "type": "function"
    },
    {
      "inputs": [
        {
          "internalType": "uint256",
          "name": "_tokenId",
          "type": "uint256"
        }
      ],
      "name": "reclaimExpiredLocks",
      "outputs": [],
      "stateMutability": "nonpayable",
      "type": "function"
    },
    {
      "inputs": [
        {
          "internalType": "address",
          "name": "tokenAddress",
          "type": "address"
        },
        {
          "internalType": "uint256",
          "name": "tokenAmount",
          "type": "uint256"
        }
      ],
      "name": "recoverERC20",
      "outputs": [],
      "stateMutability": "nonpayable",
      "type": "function"
    },
    {
      "inputs": [],
      "name": "renounceOwnership",
      "outputs": [],
      "stateMutability": "nonpayable",
      "type": "function"
    },
    {
      "inputs": [
        {
          "internalType": "address",
          "name": "",
          "type": "address"
        }
      ],
      "name": "rewardData",
      "outputs": [
        {
          "internalType": "uint256",
          "name": "periodFinish",
          "type": "uint256"
        },
        {
          "internalType": "uint256",
          "name": "rewardRate",
          "type": "uint256"
        },
        {
          "internalType": "uint256",
          "name": "lastUpdateTime",
          "type": "uint256"
        },
        {
          "internalType": "uint256",
          "name": "rewardPerTokenStored",
          "type": "uint256"
        }
      ],
      "stateMutability": "view",
      "type": "function"
    },
    {
      "inputs": [
        {
          "internalType": "address",
          "name": "",
          "type": "address"
        },
        {
          "internalType": "address",
          "name": "",
          "type": "address"
        }
      ],
      "name": "rewardDistributors",
      "outputs": [
        {
          "internalType": "bool",
          "name": "",
          "type": "bool"
        }
      ],
      "stateMutability": "view",
      "type": "function"
    },
    {
      "inputs": [
        {
          "internalType": "address",
          "name": "_rewardsToken",
          "type": "address"
        }
      ],
      "name": "rewardPerToken",
      "outputs": [
        {
          "internalType": "uint256",
          "name": "",
          "type": "uint256"
        }
      ],
      "stateMutability": "view",
      "type": "function"
    },
    {
      "inputs": [
        {
          "internalType": "uint256",
          "name": "",
          "type": "uint256"
        }
      ],
      "name": "rewardTokens",
      "outputs": [
        {
          "internalType": "address",
          "name": "",
          "type": "address"
        }
      ],
      "stateMutability": "view",
      "type": "function"
    },
    {
      "inputs": [
        {
          "internalType": "uint256",
          "name": "",
          "type": "uint256"
        },
        {
          "internalType": "address",
          "name": "",
          "type": "address"
        }
      ],
      "name": "rewards",
      "outputs": [
        {
          "internalType": "uint256",
          "name": "",
          "type": "uint256"
        }
      ],
      "stateMutability": "view",
      "type": "function"
    },
    {
      "inputs": [],
      "name": "rewardsDuration",
      "outputs": [
        {
          "internalType": "uint256",
          "name": "",
          "type": "uint256"
        }
      ],
      "stateMutability": "view",
      "type": "function"
    },
    {
      "inputs": [
        {
          "internalType": "address",
          "name": "from",
          "type": "address"
        },
        {
          "internalType": "address",
          "name": "to",
          "type": "address"
        },
        {
          "internalType": "uint256",
          "name": "tokenId",
          "type": "uint256"
        }
      ],
      "name": "safeTransferFrom",
      "outputs": [],
      "stateMutability": "nonpayable",
      "type": "function"
    },
    {
      "inputs": [
        {
          "internalType": "address",
          "name": "from",
          "type": "address"
        },
        {
          "internalType": "address",
          "name": "to",
          "type": "address"
        },
        {
          "internalType": "uint256",
          "name": "tokenId",
          "type": "uint256"
        },
        {
          "internalType": "bytes",
          "name": "_data",
          "type": "bytes"
        }
      ],
      "name": "safeTransferFrom",
      "outputs": [],
      "stateMutability": "nonpayable",
      "type": "function"
    },
    {
      "inputs": [],
      "name": "seller",
      "outputs": [
        {
          "internalType": "address payable",
          "name": "",
          "type": "address"
        }
      ],
      "stateMutability": "view",
      "type": "function"
    },
    {
      "inputs": [
        {
          "internalType": "address",
          "name": "operator",
          "type": "address"
        },
        {
          "internalType": "bool",
          "name": "approved",
          "type": "bool"
        }
      ],
      "name": "setApprovalForAll",
      "outputs": [],
      "stateMutability": "nonpayable",
      "type": "function"
    },
    {
      "inputs": [
        {
          "internalType": "bytes4",
          "name": "interfaceId",
          "type": "bytes4"
        }
      ],
      "name": "supportsInterface",
      "outputs": [
        {
          "internalType": "bool",
          "name": "",
          "type": "bool"
        }
      ],
      "stateMutability": "view",
      "type": "function"
    },
    {
      "inputs": [],
      "name": "symbol",
      "outputs": [
        {
          "internalType": "string",
          "name": "",
          "type": "string"
        }
      ],
      "stateMutability": "view",
      "type": "function"
    },
    {
      "inputs": [
        {
          "internalType": "uint256",
          "name": "index",
          "type": "uint256"
        }
      ],
      "name": "tokenByIndex",
      "outputs": [
        {
          "internalType": "uint256",
          "name": "",
          "type": "uint256"
        }
      ],
      "stateMutability": "view",
      "type": "function"
    },
    {
      "inputs": [
        {
          "internalType": "address",
          "name": "owner",
          "type": "address"
        },
        {
          "internalType": "uint256",
          "name": "index",
          "type": "uint256"
        }
      ],
      "name": "tokenOfOwnerByIndex",
      "outputs": [
        {
          "internalType": "uint256",
          "name": "",
          "type": "uint256"
        }
      ],
      "stateMutability": "view",
      "type": "function"
    },
    {
      "inputs": [
        {
          "internalType": "uint256",
          "name": "_tokenId",
          "type": "uint256"
        }
      ],
      "name": "tokenURI",
      "outputs": [
        {
          "internalType": "string",
          "name": "",
          "type": "string"
        }
      ],
      "stateMutability": "view",
      "type": "function"
    },
    {
      "inputs": [],
      "name": "totalERC20Supply",
      "outputs": [
        {
          "internalType": "uint256",
          "name": "",
          "type": "uint256"
        }
      ],
      "stateMutability": "view",
      "type": "function"
    },
    {
      "inputs": [],
      "name": "totalSupply",
      "outputs": [
        {
          "internalType": "uint256",
          "name": "",
          "type": "uint256"
        }
      ],
      "stateMutability": "view",
      "type": "function"
    },
    {
      "inputs": [
        {
          "internalType": "address",
          "name": "from",
          "type": "address"
        },
        {
          "internalType": "address",
          "name": "to",
          "type": "address"
        },
        {
          "internalType": "uint256",
          "name": "tokenId",
          "type": "uint256"
        }
      ],
      "name": "transferFrom",
      "outputs": [],
      "stateMutability": "nonpayable",
      "type": "function"
    },
    {
      "inputs": [
        {
          "internalType": "address",
          "name": "newOwner",
          "type": "address"
        }
      ],
      "name": "transferOwnership",
      "outputs": [],
      "stateMutability": "nonpayable",
      "type": "function"
    },
    {
      "inputs": [
        {
          "internalType": "address payable",
          "name": "_to",
          "type": "address"
        }
      ],
      "name": "withdrawETH",
      "outputs": [],
      "stateMutability": "nonpayable",
      "type": "function"
    }
  ],
  "transactionHash": "0x828b8cd9df0aceb5dfc2ecb1b811c6c31c60b1c9e10ef2e12b7ff3ae746e8219",
  "args": [
    "0xf91375fbf40d920c31016E1473c6D44F334Af13F",
    "0x870317bbE804fd33c0eD50af9329C8c2653bd56F"
  ],
  "solcInputHash": "7ffde0d4fb9dde21ee134d01d0e02ef8",
  "bytecode": "0x6080604052612710600e55678ac7230489e80000600f553480156200002357600080fd5b50604051620047b2380380620047b2833981016040819052620000469162000214565b604080518082018252600c81526b14d050d491510810915054d560a21b60208083019182528351808501909452600384526229a1a160e91b908401528151919291620000959160009162000155565b508051620000ab90600190602084019062000155565b505050620000c8620000c2620000ff60201b60201c565b62000103565b6001600b55600c80546001600160a01b039384166001600160a01b031991821617909155600d805492909316911617905562000290565b3390565b600a80546001600160a01b038381166001600160a01b0319831681179093556040519116919082907f8be0079c531659141344cd1fd0a4f28419497f9722a3daafe3b4186f6b6457e090600090a35050565b828054620001639062000253565b90600052602060002090601f016020900481019282620001875760008555620001d2565b82601f10620001a257805160ff1916838001178555620001d2565b82800160010185558215620001d2579182015b82811115620001d2578251825591602001919060010190620001b5565b50620001e0929150620001e4565b5090565b5b80821115620001e05760008155600101620001e5565b6001600160a01b03811681146200021157600080fd5b50565b600080604083850312156200022857600080fd5b82516200023581620001fb565b60208401519092506200024881620001fb565b809150509250929050565b600181811c908216806200026857607f821691505b602082108114156200028a57634e487b7160e01b600052602260045260246000fd5b50919050565b61451280620002a06000396000f3fe608060405234801561001057600080fd5b50600436106103365760003560e01c80636815b6d6116101b2578063a22cb465116100f9578063ca5c7b91116100a2578063f12297771161007c578063f1229777146107b6578063f2db11af146107c9578063f2fde38b146107f4578063f6d30e6b1461080757600080fd5b8063ca5c7b911461075e578063e3736ad414610767578063e985e9c51461077a57600080fd5b8063b88d4fde116100d3578063b88d4fde14610725578063bcd1101414610738578063c87b56dd1461074b57600080fd5b8063a22cb465146106b9578063a444914b146106cc578063af9ea7c3146106fa57600080fd5b80637bb7bed11161015b578063919cbc4e11610135578063919cbc4e1461066257806395d89b411461066b5780639d0214cb1461067357600080fd5b80637bb7bed11461062b5780638980f11f1461063e5780638da5cb5b1461065157600080fd5b8063715018a61161018c578063715018a6146105fd57806373de83c4146106055780637a0dedf61461061857600080fd5b80636815b6d6146105ce578063690d8320146105d757806370a08231146105ea57600080fd5b806332cb6b0c1161028157806348e5d9f81161022a57806355a971621161020457806355a97162146105755780636352211e14610595578063638634ee146105a85780636724c910146105bb57600080fd5b806348e5d9f8146104d85780634903b0d11461052d5780634f6ccce71461056257600080fd5b806340b47e1a1161025b57806340b47e1a1461049f57806342842e0e146104b2578063461285c6146104c557600080fd5b806332cb6b0c1461045e578063386a95251461046757806339fc97131461047157600080fd5b80631c4b774b116102e35780632a314a92116102bd5780632a314a92146104255780632e38f84f146104385780632f745c591461044b57600080fd5b80631c4b774b146103dd57806323b872dd146103f05780632514057e1461040357600080fd5b806308551a531161031457806308551a53146103a3578063095ea7b3146103b657806318160ddd146103cb57600080fd5b806301ffc9a71461033b57806306fdde0314610363578063081812fc14610378575b600080fd5b61034e6103493660046139a0565b61081a565b60405190151581526020015b60405180910390f35b61036b610876565b60405161035a9190613a33565b61038b610386366004613a46565b610908565b6040516001600160a01b03909116815260200161035a565b600d5461038b906001600160a01b031681565b6103c96103c4366004613a74565b6109b3565b005b6008545b60405190815260200161035a565b6103c96103eb366004613a46565b610ae5565b6103c96103fe366004613aa0565b610f0e565b610416610411366004613ae1565b610f95565b60405161035a93929190613b03565b6103c9610433366004613a46565b610ffa565b6103cf610446366004613a46565b6110ac565b6103cf610459366004613a74565b611191565b6103cf600e5481565b6103cf62093a8081565b61034e61047f366004613b32565b601560209081526000928352604080842090915290825290205460ff1681565b6103c96104ad366004613b32565b611239565b6103c96104c0366004613aa0565b611376565b6103c96104d3366004613b6b565b611391565b61050d6104e6366004613b9d565b60146020526000908152604090208054600182015460028301546003909301549192909184565b60408051948552602085019390935291830152606082015260800161035a565b61050d61053b366004613a46565b601a6020526000908152604090208054600182015460028301546003909301549192909184565b6103cf610570366004613a46565b611471565b6103cf610583366004613a46565b60009081526019602052604090205490565b61038b6105a3366004613a46565b611515565b6103cf6105b6366004613b9d565b6115a0565b6103c96105c9366004613bc8565b6115c4565b6103cf60115481565b6103c96105e5366004613b9d565b61169b565b6103cf6105f8366004613b9d565b61172e565b6103c96117c8565b6103c9610613366004613a46565b61182e565b6103c9610626366004613c13565b611a36565b61038b610639366004613a46565b611dd4565b6103c961064c366004613a74565b611dfe565b600a546001600160a01b031661038b565b6103cf600f5481565b61036b611fd8565b6106a0610681366004613a46565b6010602052600090815260409020805460019091015460ff9091169082565b6040805160ff909316835260208301919091520161035a565b6103c96106c7366004613c3f565b611fe7565b6106df6106da366004613a46565b611ff2565b6040805193845260208401929092529082015260600161035a565b6103cf610708366004613c6d565b601760209081526000928352604080842090915290825290205481565b6103c9610733366004613cc1565b612025565b6103cf610746366004613b9d565b6120b3565b61036b610759366004613a46565b6120dd565b6103cf60125481565b6103c9610775366004613c13565b6122b6565b61034e610788366004613b32565b6001600160a01b03918216600090815260056020908152604080832093909416825291909152205460ff1690565b6103cf6107c4366004613b9d565b612404565b6103cf6107d7366004613c6d565b601860209081526000928352604080842090915290825290205481565b6103c9610802366004613b9d565b61243d565b6103c9610815366004613a46565b61251f565b60007fffffffff0000000000000000000000000000000000000000000000000000000082167f780e9d6300000000000000000000000000000000000000000000000000000000148061087057506108708261283e565b92915050565b60606000805461088590613dbf565b80601f01602080910402602001604051908101604052809291908181526020018280546108b190613dbf565b80156108fe5780601f106108d3576101008083540402835291602001916108fe565b820191906000526020600020905b8154815290600101906020018083116108e157829003601f168201915b5050505050905090565b6000818152600260205260408120546001600160a01b03166109975760405162461bcd60e51b815260206004820152602c60248201527f4552433732313a20617070726f76656420717565727920666f72206e6f6e657860448201527f697374656e7420746f6b656e000000000000000000000000000000000000000060648201526084015b60405180910390fd5b506000908152600460205260409020546001600160a01b031690565b60006109be82611515565b9050806001600160a01b0316836001600160a01b03161415610a485760405162461bcd60e51b815260206004820152602160248201527f4552433732313a20617070726f76616c20746f2063757272656e74206f776e6560448201527f7200000000000000000000000000000000000000000000000000000000000000606482015260840161098e565b336001600160a01b0382161480610a645750610a648133610788565b610ad65760405162461bcd60e51b815260206004820152603860248201527f4552433732313a20617070726f76652063616c6c6572206973206e6f74206f7760448201527f6e6572206e6f7220617070726f76656420666f7220616c6c0000000000000000606482015260840161098e565b610ae08383612921565b505050565b6002600b541415610b385760405162461bcd60e51b815260206004820152601f60248201527f5265656e7472616e637947756172643a207265656e7472616e742063616c6c00604482015260640161098e565b6002600b55600c5460125482916001600160a01b031690600090610b5c83826129a7565b6001600160a01b038416600090815260146020526040902060030155610b81836115a0565b6001600160a01b038416600090815260146020526040902060020155610bbe846000908152600260205260409020546001600160a01b0316151590565b610c305760405162461bcd60e51b815260206004820152602f60248201527f4552433732314d657461646174613a2055524920717565727920666f72206e6f60448201527f6e6578697374656e7420746f6b656e0000000000000000000000000000000000606482015260840161098e565b6000848152601a6020526040902060020154610c50908590859084612a55565b60008581526018602090815260408083206001600160a01b0388168085529083528184209490945560148252808320600301548884526017835281842094845293825280832093909355868252601a90522054601154909250905060015b601354811015610d925760138181548110610ccb57610ccb613e13565b6000918252602090912001546001600160a01b03169350610cec84836129a7565b6001600160a01b038516600090815260146020526040902060030155610d11846115a0565b6001600160a01b038516600090815260146020526040902060020155610d3985858585612a55565b60008681526018602090815260408083206001600160a01b038916808552908352818420949094556014825280832060030154898452601783528184209484529390915290205580610d8a81613e71565b915050610cae565b5060005b601354811015610f0157600060138281548110610db557610db5613e13565b60009182526020808320909101548983526018825260408084206001600160a01b03909216808552919092529120549091508015610eec5760008881526018602090815260408083206001600160a01b03861680855292528083209290925590517fa9059cbb0000000000000000000000000000000000000000000000000000000081523360048201526024810183905263a9059cbb90604401602060405180830381600087803b158015610e6957600080fd5b505af1158015610e7d573d6000803e3d6000fd5b505050506040513d601f19601f82011682018060405250810190610ea19190613eaa565b50604080513381526001600160a01b03841660208201529081018290527f540798df468d7b23d11f156fdb954cb19ad414d150722a7b6d55ba369dea792e9060600160405180910390a15b50508080610ef990613e71565b915050610d96565b50506001600b5550505050565b610f183382612ad3565b610f8a5760405162461bcd60e51b815260206004820152603160248201527f4552433732313a207472616e736665722063616c6c6572206973206e6f74206f60448201527f776e6572206e6f7220617070726f766564000000000000000000000000000000606482015260840161098e565b610ae0838383612bd7565b60196020528160005260406000208181548110610fb157600080fd5b6000918252602091829020600590910201805460018201546040805160608101825260028501548152600385015495810195909552600490930154928401929092529350915083565b3361100482611515565b6001600160a01b03161461101757600080fd5b6000818152601060205260409020546110349060ff166005613fe7565b61104190620f4240613ff6565b61105390670de0b6b3a7640000613ff6565b6000828152601060205260409020600101541161106f57600080fd5b600081815260106020526040812080546001929061109190849060ff16614033565b92506101000a81548160ff021916908360ff16021790555050565b6000818152601960209081526040808320601a90925282208154839042846110d5600184614058565b815481106110e5576110e5613e13565b906000526020600020906005020160010154116111085782600201549150611188565b60005b81811015611186574285828154811061112657611126613e13565b906000526020600020906005020160010154111561114357611186565b84818154811061115557611155613e13565b90600052602060002090600502016000015483611172919061406f565b92508061117e81613e71565b91505061110b565b505b50949350505050565b600061119c8361172e565b82106112105760405162461bcd60e51b815260206004820152602b60248201527f455243373231456e756d657261626c653a206f776e657220696e646578206f7560448201527f74206f6620626f756e6473000000000000000000000000000000000000000000606482015260840161098e565b506001600160a01b03919091166000908152600660209081526040808320938352929052205490565b600a546001600160a01b031633146112935760405162461bcd60e51b815260206004820181905260248201527f4f776e61626c653a2063616c6c6572206973206e6f7420746865206f776e6572604482015260640161098e565b6001600160a01b038216600090815260146020526040902060020154156112b957600080fd5b6013805460018082019092557f66de8ffda797e3de9c05e8fc57b3bf0ec28a930d40b0d285d93c06501cf6a0900180547fffffffffffffffffffffffff0000000000000000000000000000000000000000166001600160a01b03948516908117909155600090815260146020908152604080832042600282018190559055601582528083209490951682529290925291902080547fffffffffffffffffffffffffffffffffffffffffffffffffffffffffffffff00169091179055565b610ae083838360405180602001604052806000815250612025565b600a546001600160a01b031633146113eb5760405162461bcd60e51b815260206004820181905260248201527f4f776e61626c653a2063616c6c6572206973206e6f7420746865206f776e6572604482015260640161098e565b600181111561143c5760405162461bcd60e51b815260206004820152601760248201527f50656e616c74792063616e6e6f74206578636565642031000000000000000000604482015260640161098e565b60006016858154811061145157611451613e13565b506000525060408051606081018252938452602084019290925291015250565b600061147c60085490565b82106114f05760405162461bcd60e51b815260206004820152602c60248201527f455243373231456e756d657261626c653a20676c6f62616c20696e646578206f60448201527f7574206f6620626f756e64730000000000000000000000000000000000000000606482015260840161098e565b6008828154811061150357611503613e13565b90600052602060002001549050919050565b6000818152600260205260408120546001600160a01b0316806108705760405162461bcd60e51b815260206004820152602960248201527f4552433732313a206f776e657220717565727920666f72206e6f6e657869737460448201527f656e7420746f6b656e0000000000000000000000000000000000000000000000606482015260840161098e565b6001600160a01b038116600090815260146020526040812054610870904290612dc7565b600a546001600160a01b0316331461161e5760405162461bcd60e51b815260206004820181905260248201527f4f776e61626c653a2063616c6c6572206973206e6f7420746865206f776e6572604482015260640161098e565b6001600160a01b03831660009081526014602052604090206002015461164357600080fd5b6001600160a01b0392831660009081526015602090815260408083209490951682529290925291902080547fffffffffffffffffffffffffffffffffffffffffffffffffffffffffffffff0016911515919091179055565b600a546001600160a01b031633146116f55760405162461bcd60e51b815260206004820181905260248201527f4f776e61626c653a2063616c6c6572206973206e6f7420746865206f776e6572604482015260640161098e565b6040516001600160a01b038216904780156108fc02916000818181858888f1935050505015801561172a573d6000803e3d6000fd5b5050565b60006001600160a01b0382166117ac5760405162461bcd60e51b815260206004820152602a60248201527f4552433732313a2062616c616e636520717565727920666f7220746865207a6560448201527f726f206164647265737300000000000000000000000000000000000000000000606482015260840161098e565b506001600160a01b031660009081526003602052604090205490565b600a546001600160a01b031633146118225760405162461bcd60e51b815260206004820181905260248201527f4f776e61626c653a2063616c6c6572206973206e6f7420746865206f776e6572604482015260640161098e565b61182c6000612ddd565b565b600e548161183b60085490565b611845919061406f565b11156118935760405162461bcd60e51b815260206004820181905260248201527f507572636861736520776f756c6420657863656564206d617820737570706c79604482015260640161098e565b600081600f546118a39190613ff6565b600c54600d546040517f23b872dd0000000000000000000000000000000000000000000000000000000081523360048201526001600160a01b0391821660248201526044810184905292935016906323b872dd90606401602060405180830381600087803b15801561191457600080fd5b505af1158015611928573d6000803e3d6000fd5b505050506040513d601f19601f8201168201806040525081019061194c9190613eaa565b6119985760405162461bcd60e51b815260206004820152601060248201527f57726f6e672070617920616d6f756e7400000000000000000000000000000000604482015260640161098e565b60005b82811015610ae05760006119ae60085490565b9050600e546119bc60085490565b1015611a23576119cc3382612e47565b6040805180820182526001808252600060208084018281528683526010909152939020915182547fffffffffffffffffffffffffffffffffffffffffffffffffffffffffffffff001660ff90911617825591519101555b5080611a2e81613e71565b91505061199b565b60008381526002602052604090205483906001600160a01b0316611a9c5760405162461bcd60e51b815260206004820152601460248201527f546f6b656e20646f6573206e6f74206578697374000000000000000000000000604482015260640161098e565b600c546040517f23b872dd000000000000000000000000000000000000000000000000000000008152336004820152306024820152604481018590526001600160a01b03909116906323b872dd90606401602060405180830381600087803b158015611b0757600080fd5b505af1158015611b1b573d6000803e3d6000fd5b505050506040513d601f19601f82011682018060405250810190611b3f9190613eaa565b611b4857600080fd5b82601154611b56919061406f565b6011556000848152601a602052604090208054611b7490859061406f565b81556002810154611b8690859061406f565b8160020181905550600060168481548110611ba357611ba3613e13565b9060005260206000209060030201604051806060016040529081600082015481526020016001820154815260200160028201548152505090506000611be88683612e61565b905080601060008981526020019081526020016000206001016000828254611c10919061406f565b90915550508151600090611c24904261406f565b600089815260196020526040902054909150801580611c7d575060008981526019602052604090208290611c59600184614058565b81548110611c6957611c69613e13565b906000526020600020906005020160010154105b15611ced57600089815260196020908152604080832081516060810183528c81528084018781528184018a81528354600181810186559488529686902092516005909702909201958655519185019190915551805160028501559182015160038401550151600490910155611d6f565b60008981526019602052604090208890611d08600184614058565b81548110611d1857611d18613e13565b906000526020600020906005020160000154611d34919061406f565b60008a8152601960205260409020611d4d600184614058565b81548110611d5d57611d5d613e13565b60009182526020909120600590910201555b604080518a815260208082018b90528183018590528651606083015286015160808201529085015160a08201527f9599cdf805559aee8405ed71751ea685766fcd1a6dd992b6e4811e30b4e76ac29060c00160405180910390a1505050505050505050565b60138181548110611de457600080fd5b6000918252602090912001546001600160a01b0316905081565b600a546001600160a01b03163314611e585760405162461bcd60e51b815260206004820181905260248201527f4f776e61626c653a2063616c6c6572206973206e6f7420746865206f776e6572604482015260640161098e565b600c546001600160a01b0383811691161415611eb65760405162461bcd60e51b815260206004820152601d60248201527f43616e6e6f74207769746864726177207374616b696e6720746f6b656e000000604482015260640161098e565b6001600160a01b03821660009081526014602052604090206002015415611f1f5760405162461bcd60e51b815260206004820152601c60248201527f43616e6e6f742077697468647261772072657761726420746f6b656e00000000604482015260640161098e565b816001600160a01b031663a9059cbb611f40600a546001600160a01b031690565b6040517fffffffff0000000000000000000000000000000000000000000000000000000060e084901b1681526001600160a01b03909116600482015260248101849052604401602060405180830381600087803b158015611fa057600080fd5b505af1158015611fb4573d6000803e3d6000fd5b505050506040513d601f19601f82011682018060405250810190610ae09190613eaa565b60606001805461088590613dbf565b61172a338383612e82565b6016818154811061200257600080fd5b600091825260209091206003909102018054600182015460029092015490925083565b61202f3383612ad3565b6120a15760405162461bcd60e51b815260206004820152603160248201527f4552433732313a207472616e736665722063616c6c6572206973206e6f74206f60448201527f776e6572206e6f7220617070726f766564000000000000000000000000000000606482015260840161098e565b6120ad84848484612f6f565b50505050565b6001600160a01b0381166000908152601460205260408120600101546108709062093a8090613ff6565b6000818152600260205260409020546060906001600160a01b031661216a5760405162461bcd60e51b815260206004820152602f60248201527f4552433732314d657461646174613a2055524920717565727920666f72206e6f60448201527f6e6578697374656e7420746f6b656e0000000000000000000000000000000000606482015260840161098e565b6000612174612ff8565b9050600061218184613018565b60405160200161219191906140a3565b604080517fffffffffffffffffffffffffffffffffffffffffffffffffffffffffffffffe08184030181529181526000868152601060205290812060010154919250906121dd90613018565b600086815260106020526040812054919250906121fc9060ff16613018565b905060008085511161221d576040518060200160405280600081525061225b565b600087815260106020526040902054859061223a9060ff16613018565b60405160200161224b9291906140e8565b6040516020818303038152906040525b905061228b84848484604051602001612277949392919061416a565b60405160208183030381529060405261314a565b60405160200161229b9190614328565b60405160208183030381529060405295505050505050919050565b600a546001600160a01b031633146123105760405162461bcd60e51b815260206004820181905260248201527f4f776e61626c653a2063616c6c6572206973206e6f7420746865206f776e6572604482015260640161098e565b60018111156123615760405162461bcd60e51b815260206004820152601760248201527f50656e616c74792063616e6e6f74206578636565642031000000000000000000604482015260640161098e565b604080516060810182529384526020840192835283019081526016805460018101825560009190915292517fd833147d7dc355ba459fc788f669e58cfaf9dc25ddcd0702e87d69c7b512428960039094029384015590517fd833147d7dc355ba459fc788f669e58cfaf9dc25ddcd0702e87d69c7b512428a830155517fd833147d7dc355ba459fc788f669e58cfaf9dc25ddcd0702e87d69c7b512428b90910155565b600c5460009081906001600160a01b038481169116146124265760115461242a565b6012545b905061243683826129a7565b9392505050565b600a546001600160a01b031633146124975760405162461bcd60e51b815260206004820181905260248201527f4f776e61626c653a2063616c6c6572206973206e6f7420746865206f776e6572604482015260640161098e565b6001600160a01b0381166125135760405162461bcd60e51b815260206004820152602660248201527f4f776e61626c653a206e6577206f776e657220697320746865207a65726f206160448201527f6464726573730000000000000000000000000000000000000000000000000000606482015260840161098e565b61251c81612ddd565b50565b60008181526002602052604090205481906001600160a01b03166125855760405162461bcd60e51b815260206004820152601460248201527f546f6b656e20646f6573206e6f74206578697374000000000000000000000000604482015260640161098e565b3361258f83611515565b6001600160a01b0316146125e55760405162461bcd60e51b815260206004820152601060248201527f4e6f74204f776e6572206f66204e465400000000000000000000000000000000604482015260640161098e565b6000828152601960209081526040808320601a90925282208154919290914284612610600184614058565b8154811061262057612620613e13565b9060005260206000209060050201600101541161265c57600283015460008781526019602052604081209193506126579190613922565b612719565b60005b81811015612717574285828154811061267a5761267a613e13565b906000526020600020906005020160010154111561269757612717565b8481815481106126a9576126a9613e13565b906000526020600020906005020160000154836126c6919061406f565b92508481815481106126da576126da613e13565b600091825260208220600590910201818155600181018290556002810182905560038101829055600401558061270f81613e71565b91505061265f565b505b8183600201546127299190614058565b6002840155825461273b908390614058565b835560115461274b908390614058565b60115560125461275c908390614058565b601255600c546040517fa9059cbb000000000000000000000000000000000000000000000000000000008152336004820152602481018490526001600160a01b039091169063a9059cbb90604401602060405180830381600087803b1580156127c457600080fd5b505af11580156127d8573d6000803e3d6000fd5b505050506040513d601f19601f820116820180604052508101906127fc9190613eaa565b5060408051878152602081018490527fc266233ef087afa73a2a6f7c129f3c7184bbdae1c5b5763a4b9b378a6ae11fe7910160405180910390a1505050505050565b60007fffffffff0000000000000000000000000000000000000000000000000000000082167f80ac58cd0000000000000000000000000000000000000000000000000000000014806128d157507fffffffff0000000000000000000000000000000000000000000000000000000082167f5b5e139f00000000000000000000000000000000000000000000000000000000145b8061087057507f01ffc9a7000000000000000000000000000000000000000000000000000000007fffffffff00000000000000000000000000000000000000000000000000000000831614610870565b600081815260046020526040902080547fffffffffffffffffffffffff0000000000000000000000000000000000000000166001600160a01b038416908117909155819061296e82611515565b6001600160a01b03167f8c5be1e5ebec7d5bd14f71427d1e84f3dd0314c0f7b2291e5b200ac8c7c3b92560405160405180910390a45050565b6000816129d057506001600160a01b038216600090815260146020526040902060030154610870565b6001600160a01b038316600090815260146020526040902060018101546002909101548391906129ff866115a0565b612a099190614058565b612a139190613ff6565b612a2590670de0b6b3a7640000613ff6565b612a2f919061439c565b6001600160a01b038416600090815260146020526040902060030154612436919061406f565b60008481526018602090815260408083206001600160a01b03871680855290835281842054888552601784528285209185529252822054670de0b6b3a764000090612aa087866129a7565b612aaa9190614058565b612ab49086613ff6565b612abe919061439c565b612ac8919061406f565b90505b949350505050565b6000818152600260205260408120546001600160a01b0316612b5d5760405162461bcd60e51b815260206004820152602c60248201527f4552433732313a206f70657261746f7220717565727920666f72206e6f6e657860448201527f697374656e7420746f6b656e0000000000000000000000000000000000000000606482015260840161098e565b6000612b6883611515565b9050806001600160a01b0316846001600160a01b03161480612ba35750836001600160a01b0316612b9884610908565b6001600160a01b0316145b80612acb57506001600160a01b0380821660009081526005602090815260408083209388168352929052205460ff16612acb565b826001600160a01b0316612bea82611515565b6001600160a01b031614612c665760405162461bcd60e51b815260206004820152602960248201527f4552433732313a207472616e73666572206f6620746f6b656e2074686174206960448201527f73206e6f74206f776e0000000000000000000000000000000000000000000000606482015260840161098e565b6001600160a01b038216612ce15760405162461bcd60e51b8152602060048201526024808201527f4552433732313a207472616e7366657220746f20746865207a65726f2061646460448201527f7265737300000000000000000000000000000000000000000000000000000000606482015260840161098e565b612cec838383613323565b612cf7600082612921565b6001600160a01b0383166000908152600360205260408120805460019290612d20908490614058565b90915550506001600160a01b0382166000908152600360205260408120805460019290612d4e90849061406f565b909155505060008181526002602052604080822080547fffffffffffffffffffffffff0000000000000000000000000000000000000000166001600160a01b0386811691821790925591518493918716917fddf252ad1be2c89b69c2b068fc378daa952ba7f163c4a11628f55a4df523b3ef91a4505050565b6000818310612dd65781612436565b5090919050565b600a80546001600160a01b038381167fffffffffffffffffffffffff0000000000000000000000000000000000000000831681179093556040519116919082907f8be0079c531659141344cd1fd0a4f28419497f9722a3daafe3b4186f6b6457e090600090a35050565b61172a8282604051806020016040528060008152506133db565b60008282602001518360000151612e789190613ff6565b6124369190613ff6565b816001600160a01b0316836001600160a01b03161415612ee45760405162461bcd60e51b815260206004820152601960248201527f4552433732313a20617070726f766520746f2063616c6c657200000000000000604482015260640161098e565b6001600160a01b0383811660008181526005602090815260408083209487168084529482529182902080547fffffffffffffffffffffffffffffffffffffffffffffffffffffffffffffff001686151590811790915591519182527f17307eab39ab6107e8899845ad3d59bd9653f200f220920489ca2b5937696c31910160405180910390a3505050565b612f7a848484612bd7565b612f8684848484613464565b6120ad5760405162461bcd60e51b815260206004820152603260248201527f4552433732313a207472616e7366657220746f206e6f6e20455243373231526560448201527f63656976657220696d706c656d656e7465720000000000000000000000000000606482015260840161098e565b606060405180608001604052806050815260200161444d60509139905090565b60608161305857505060408051808201909152600181527f3000000000000000000000000000000000000000000000000000000000000000602082015290565b8160005b8115613082578061306c81613e71565b915061307b9050600a8361439c565b915061305c565b60008167ffffffffffffffff81111561309d5761309d613c92565b6040519080825280601f01601f1916602001820160405280156130c7576020820181803683370190505b5090505b8415612acb576130dc600183614058565b91506130e9600a866143b0565b6130f490603061406f565b60f81b81838151811061310957613109613e13565b60200101907effffffffffffffffffffffffffffffffffffffffffffffffffffffffffffff1916908160001a905350613143600a8661439c565b94506130cb565b606081516000141561316a57505060408051602081019091526000815290565b600060405180606001604052806040815260200161449d6040913990506000600384516002613199919061406f565b6131a3919061439c565b6131ae906004613ff6565b905060006131bd82602061406f565b67ffffffffffffffff8111156131d5576131d5613c92565b6040519080825280601f01601f1916602001820160405280156131ff576020820181803683370190505b509050818152600183018586518101602084015b8183101561326b576003830192508251603f8160121c168501518253600182019150603f81600c1c168501518253600182019150603f8160061c168501518253600182019150603f8116850151825350600101613213565b60038951066001811461328557600281146132cf57613315565b7f3d3d0000000000000000000000000000000000000000000000000000000000007ffffffffffffffffffffffffffffffffffffffffffffffffffffffffffffffffe830152613315565b7f3d000000000000000000000000000000000000000000000000000000000000007fffffffffffffffffffffffffffffffffffffffffffffffffffffffffffffffff8301525b509398975050505050505050565b6001600160a01b03831661337e5761337981600880546000838152600960205260408120829055600182018355919091527ff3f7a9fe364faab93b216da50a3214154f22a0a2b415b23a84c8169e8b636ee30155565b6133a1565b816001600160a01b0316836001600160a01b0316146133a1576133a1838261362c565b6001600160a01b0382166133b857610ae0816136c9565b826001600160a01b0316826001600160a01b031614610ae057610ae08282613778565b6133e583836137bc565b6133f26000848484613464565b610ae05760405162461bcd60e51b815260206004820152603260248201527f4552433732313a207472616e7366657220746f206e6f6e20455243373231526560448201527f63656976657220696d706c656d656e7465720000000000000000000000000000606482015260840161098e565b60006001600160a01b0384163b15613624576040517f150b7a020000000000000000000000000000000000000000000000000000000081526001600160a01b0385169063150b7a02906134c19033908990889088906004016143c4565b602060405180830381600087803b1580156134db57600080fd5b505af1925050508015613529575060408051601f3d9081017fffffffffffffffffffffffffffffffffffffffffffffffffffffffffffffffe016820190925261352691810190614400565b60015b6135d9573d808015613557576040519150601f19603f3d011682016040523d82523d6000602084013e61355c565b606091505b5080516135d15760405162461bcd60e51b815260206004820152603260248201527f4552433732313a207472616e7366657220746f206e6f6e20455243373231526560448201527f63656976657220696d706c656d656e7465720000000000000000000000000000606482015260840161098e565b805181602001fd5b7fffffffff00000000000000000000000000000000000000000000000000000000167f150b7a0200000000000000000000000000000000000000000000000000000000149050612acb565b506001612acb565b600060016136398461172e565b6136439190614058565b600083815260076020526040902054909150808214613696576001600160a01b03841660009081526006602090815260408083208584528252808320548484528184208190558352600790915290208190555b5060009182526007602090815260408084208490556001600160a01b039094168352600681528383209183525290812055565b6008546000906136db90600190614058565b6000838152600960205260408120546008805493945090928490811061370357613703613e13565b90600052602060002001549050806008838154811061372457613724613e13565b600091825260208083209091019290925582815260099091526040808220849055858252812055600880548061375c5761375c61441d565b6001900381819060005260206000200160009055905550505050565b60006137838361172e565b6001600160a01b039093166000908152600660209081526040808320868452825280832085905593825260079052919091209190915550565b6001600160a01b0382166138125760405162461bcd60e51b815260206004820181905260248201527f4552433732313a206d696e7420746f20746865207a65726f2061646472657373604482015260640161098e565b6000818152600260205260409020546001600160a01b0316156138775760405162461bcd60e51b815260206004820152601c60248201527f4552433732313a20746f6b656e20616c7265616479206d696e74656400000000604482015260640161098e565b61388360008383613323565b6001600160a01b03821660009081526003602052604081208054600192906138ac90849061406f565b909155505060008181526002602052604080822080547fffffffffffffffffffffffff0000000000000000000000000000000000000000166001600160a01b03861690811790915590518392907fddf252ad1be2c89b69c2b068fc378daa952ba7f163c4a11628f55a4df523b3ef908290a45050565b508054600082556005029060005260206000209081019061251c91905b8082111561396e576000808255600182018190556002820181905560038201819055600482015560050161393f565b5090565b7fffffffff000000000000000000000000000000000000000000000000000000008116811461251c57600080fd5b6000602082840312156139b257600080fd5b813561243681613972565b60005b838110156139d85781810151838201526020016139c0565b838111156120ad5750506000910152565b60008151808452613a018160208601602086016139bd565b601f017fffffffffffffffffffffffffffffffffffffffffffffffffffffffffffffffe0169290920160200192915050565b60208152600061243660208301846139e9565b600060208284031215613a5857600080fd5b5035919050565b6001600160a01b038116811461251c57600080fd5b60008060408385031215613a8757600080fd5b8235613a9281613a5f565b946020939093013593505050565b600080600060608486031215613ab557600080fd5b8335613ac081613a5f565b92506020840135613ad081613a5f565b929592945050506040919091013590565b60008060408385031215613af457600080fd5b50508035926020909101359150565b8381526020810183905260a08101612acb60408301848051825260208082015190830152604090810151910152565b60008060408385031215613b4557600080fd5b8235613b5081613a5f565b91506020830135613b6081613a5f565b809150509250929050565b60008060008060808587031215613b8157600080fd5b5050823594602084013594506040840135936060013592509050565b600060208284031215613baf57600080fd5b813561243681613a5f565b801515811461251c57600080fd5b600080600060608486031215613bdd57600080fd5b8335613be881613a5f565b92506020840135613bf881613a5f565b91506040840135613c0881613bba565b809150509250925092565b600080600060608486031215613c2857600080fd5b505081359360208301359350604090920135919050565b60008060408385031215613c5257600080fd5b8235613c5d81613a5f565b91506020830135613b6081613bba565b60008060408385031215613c8057600080fd5b823591506020830135613b6081613a5f565b7f4e487b7100000000000000000000000000000000000000000000000000000000600052604160045260246000fd5b60008060008060808587031215613cd757600080fd5b8435613ce281613a5f565b93506020850135613cf281613a5f565b925060408501359150606085013567ffffffffffffffff80821115613d1657600080fd5b818701915087601f830112613d2a57600080fd5b813581811115613d3c57613d3c613c92565b604051601f82017fffffffffffffffffffffffffffffffffffffffffffffffffffffffffffffffe0908116603f01168101908382118183101715613d8257613d82613c92565b816040528281528a6020848701011115613d9b57600080fd5b82602086016020830137600060208483010152809550505050505092959194509250565b600181811c90821680613dd357607f821691505b60208210811415613e0d577f4e487b7100000000000000000000000000000000000000000000000000000000600052602260045260246000fd5b50919050565b7f4e487b7100000000000000000000000000000000000000000000000000000000600052603260045260246000fd5b7f4e487b7100000000000000000000000000000000000000000000000000000000600052601160045260246000fd5b60007fffffffffffffffffffffffffffffffffffffffffffffffffffffffffffffffff821415613ea357613ea3613e42565b5060010190565b600060208284031215613ebc57600080fd5b815161243681613bba565b600181815b80851115613f2057817fffffffffffffffffffffffffffffffffffffffffffffffffffffffffffffffff04821115613f0657613f06613e42565b80851615613f1357918102915b93841c9390800290613ecc565b509250929050565b600082613f3757506001610870565b81613f4457506000610870565b8160018114613f5a5760028114613f6457613f80565b6001915050610870565b60ff841115613f7557613f75613e42565b50506001821b610870565b5060208310610133831016604e8410600b8410161715613fa3575081810a610870565b613fad8383613ec7565b807fffffffffffffffffffffffffffffffffffffffffffffffffffffffffffffffff04821115613fdf57613fdf613e42565b029392505050565b600061243660ff841683613f28565b6000817fffffffffffffffffffffffffffffffffffffffffffffffffffffffffffffffff048311821515161561402e5761402e613e42565b500290565b600060ff821660ff84168060ff0382111561405057614050613e42565b019392505050565b60008282101561406a5761406a613e42565b500390565b6000821982111561408257614082613e42565b500190565b600081516140998185602086016139bd565b9290920192915050565b7f53414352454420424541535420230000000000000000000000000000000000008152600082516140db81600e8501602087016139bd565b91909101600e0192915050565b600083516140fa8184602088016139bd565b7f2f0000000000000000000000000000000000000000000000000000000000000090830190815283516141348160018401602088016139bd565b7f2e706e670000000000000000000000000000000000000000000000000000000060019290910191820152600501949350505050565b7f7b226e616d65223a2200000000000000000000000000000000000000000000008152600085516141a2816009850160208a016139bd565b7f222c20226465736372697074696f6e223a2253616372656420426561737420696009918401918201527f7320746865206d797374686963616c206265617374206f6620455645524d4f4f60298201527f4e20776f726c642e2049742063616e20636f6e73756d6520455645524d4f4f4e60498201527f20546f6b656e20666f722065787020616e6420676574207374726f6e6765722e60698201527f222c2022657870223a220000000000000000000000000000000000000000000060898201528551614277816093840160208a016139bd565b7f222c202265766f6c466f726d223a2200000000000000000000000000000000006093929091019182015284516142b58160a28401602089016139bd565b61431c6142f36142ed60a2848601017f222c2022696d616765223a2022000000000000000000000000000000000000008152600d0190565b87614087565b7f227d000000000000000000000000000000000000000000000000000000000000815260020190565b98975050505050505050565b7f646174613a6170706c69636174696f6e2f6a736f6e3b6261736536342c00000081526000825161436081601d8501602087016139bd565b91909101601d0192915050565b7f4e487b7100000000000000000000000000000000000000000000000000000000600052601260045260246000fd5b6000826143ab576143ab61436d565b500490565b6000826143bf576143bf61436d565b500690565b60006001600160a01b038087168352808616602084015250836040830152608060608301526143f660808301846139e9565b9695505050505050565b60006020828403121561441257600080fd5b815161243681613972565b7f4e487b7100000000000000000000000000000000000000000000000000000000600052603160045260246000fdfe68747470733a2f2f676174657761792e70696e6174612e636c6f75642f697066732f516d5543454e456848426a34416559727848784e6f564462706f7075624245694e6369776d3745797262644753634142434445464748494a4b4c4d4e4f505152535455565758595a6162636465666768696a6b6c6d6e6f707172737475767778797a303132333435363738392b2fa2646970667358221220f8f4dfd299ce18787443f4dbe7c0f6980094a3e3d2ff0a7f8df0ec73293c3d4564736f6c63430008090033",
  "devdoc": {
    "kind": "dev",
    "methods": {
      "approve(address,uint256)": {
        "details": "See {IERC721-approve}."
      },
      "balanceOf(address)": {
        "details": "See {IERC721-balanceOf}."
      },
      "getApproved(uint256)": {
        "details": "See {IERC721-getApproved}."
      },
      "isApprovedForAll(address,address)": {
        "details": "See {IERC721-isApprovedForAll}."
      },
      "name()": {
        "details": "See {IERC721Metadata-name}."
      },
      "owner()": {
        "details": "Returns the address of the current owner."
      },
      "ownerOf(uint256)": {
        "details": "See {IERC721-ownerOf}."
      },
      "renounceOwnership()": {
        "details": "Leaves the contract without owner. It will not be possible to call `onlyOwner` functions anymore. Can only be called by the current owner. NOTE: Renouncing ownership will leave the contract without an owner, thereby removing any functionality that is only available to the owner."
      },
      "safeTransferFrom(address,address,uint256)": {
        "details": "See {IERC721-safeTransferFrom}."
      },
      "safeTransferFrom(address,address,uint256,bytes)": {
        "details": "See {IERC721-safeTransferFrom}."
      },
      "setApprovalForAll(address,bool)": {
        "details": "See {IERC721-setApprovalForAll}."
      },
      "supportsInterface(bytes4)": {
        "details": "See {IERC165-supportsInterface}."
      },
      "symbol()": {
        "details": "See {IERC721Metadata-symbol}."
      },
      "tokenByIndex(uint256)": {
        "details": "See {IERC721Enumerable-tokenByIndex}."
      },
      "tokenOfOwnerByIndex(address,uint256)": {
        "details": "See {IERC721Enumerable-tokenOfOwnerByIndex}."
      },
      "totalSupply()": {
        "details": "See {IERC721Enumerable-totalSupply}."
      },
      "transferFrom(address,address,uint256)": {
        "details": "See {IERC721-transferFrom}."
      },
      "transferOwnership(address)": {
        "details": "Transfers ownership of the contract to a new account (`newOwner`). Can only be called by the current owner."
      }
    },
    "version": 1
  },
  "userdoc": {
    "kind": "user",
    "methods": {},
    "version": 1
  },
  "storageLayout": {
    "storage": [
      {
        "astId": 2048,
        "contract": "contracts/SacredBeast.sol:SacredBeast",
        "label": "_name",
        "offset": 0,
        "slot": "0",
        "type": "t_string_storage"
      },
      {
        "astId": 2050,
        "contract": "contracts/SacredBeast.sol:SacredBeast",
        "label": "_symbol",
        "offset": 0,
        "slot": "1",
        "type": "t_string_storage"
      },
      {
        "astId": 2054,
        "contract": "contracts/SacredBeast.sol:SacredBeast",
        "label": "_owners",
        "offset": 0,
        "slot": "2",
        "type": "t_mapping(t_uint256,t_address)"
      },
      {
        "astId": 2058,
        "contract": "contracts/SacredBeast.sol:SacredBeast",
        "label": "_balances",
        "offset": 0,
        "slot": "3",
        "type": "t_mapping(t_address,t_uint256)"
      },
      {
        "astId": 2062,
        "contract": "contracts/SacredBeast.sol:SacredBeast",
        "label": "_tokenApprovals",
        "offset": 0,
        "slot": "4",
        "type": "t_mapping(t_uint256,t_address)"
      },
      {
        "astId": 2068,
        "contract": "contracts/SacredBeast.sol:SacredBeast",
        "label": "_operatorApprovals",
        "offset": 0,
        "slot": "5",
        "type": "t_mapping(t_address,t_mapping(t_address,t_bool))"
      },
      {
        "astId": 3002,
        "contract": "contracts/SacredBeast.sol:SacredBeast",
        "label": "_ownedTokens",
        "offset": 0,
        "slot": "6",
        "type": "t_mapping(t_address,t_mapping(t_uint256,t_uint256))"
      },
      {
        "astId": 3006,
        "contract": "contracts/SacredBeast.sol:SacredBeast",
        "label": "_ownedTokensIndex",
        "offset": 0,
        "slot": "7",
        "type": "t_mapping(t_uint256,t_uint256)"
      },
      {
        "astId": 3009,
        "contract": "contracts/SacredBeast.sol:SacredBeast",
        "label": "_allTokens",
        "offset": 0,
        "slot": "8",
        "type": "t_array(t_uint256)dyn_storage"
      },
      {
        "astId": 3013,
        "contract": "contracts/SacredBeast.sol:SacredBeast",
        "label": "_allTokensIndex",
        "offset": 0,
        "slot": "9",
        "type": "t_mapping(t_uint256,t_uint256)"
      },
      {
        "astId": 7,
        "contract": "contracts/SacredBeast.sol:SacredBeast",
        "label": "_owner",
        "offset": 0,
        "slot": "10",
        "type": "t_address"
      },
      {
        "astId": 207,
        "contract": "contracts/SacredBeast.sol:SacredBeast",
        "label": "_status",
        "offset": 0,
        "slot": "11",
        "type": "t_uint256"
      },
      {
        "astId": 5283,
        "contract": "contracts/SacredBeast.sol:SacredBeast",
        "label": "foodToken",
        "offset": 0,
        "slot": "12",
        "type": "t_contract(IERC20)860"
      },
      {
        "astId": 5285,
        "contract": "contracts/SacredBeast.sol:SacredBeast",
        "label": "seller",
        "offset": 0,
        "slot": "13",
        "type": "t_address_payable"
      },
      {
        "astId": 5288,
        "contract": "contracts/SacredBeast.sol:SacredBeast",
        "label": "MAX_SUPPLY",
        "offset": 0,
        "slot": "14",
        "type": "t_uint256"
      },
      {
        "astId": 5291,
        "contract": "contracts/SacredBeast.sol:SacredBeast",
        "label": "PRICE_PER_UNIT",
        "offset": 0,
        "slot": "15",
        "type": "t_uint256"
      },
      {
        "astId": 5334,
        "contract": "contracts/SacredBeast.sol:SacredBeast",
        "label": "nft",
        "offset": 0,
        "slot": "16",
        "type": "t_mapping(t_uint256,t_struct(BeastStat)5311_storage)"
      },
      {
        "astId": 5336,
        "contract": "contracts/SacredBeast.sol:SacredBeast",
        "label": "totalERC20Supply",
        "offset": 0,
        "slot": "17",
        "type": "t_uint256"
      },
      {
        "astId": 5338,
        "contract": "contracts/SacredBeast.sol:SacredBeast",
        "label": "lockedSupply",
        "offset": 0,
        "slot": "18",
        "type": "t_uint256"
      },
      {
        "astId": 5341,
        "contract": "contracts/SacredBeast.sol:SacredBeast",
        "label": "rewardTokens",
        "offset": 0,
        "slot": "19",
        "type": "t_array(t_address)dyn_storage"
      },
      {
        "astId": 5346,
        "contract": "contracts/SacredBeast.sol:SacredBeast",
        "label": "rewardData",
        "offset": 0,
        "slot": "20",
        "type": "t_mapping(t_address,t_struct(Reward)5329_storage)"
      },
      {
        "astId": 5357,
        "contract": "contracts/SacredBeast.sol:SacredBeast",
        "label": "rewardDistributors",
        "offset": 0,
        "slot": "21",
        "type": "t_mapping(t_address,t_mapping(t_address,t_bool))"
      },
      {
        "astId": 5361,
        "contract": "contracts/SacredBeast.sol:SacredBeast",
        "label": "lockChoices",
        "offset": 0,
        "slot": "22",
        "type": "t_array(t_struct(LockChoice)5298_storage)dyn_storage"
      },
      {
        "astId": 5367,
        "contract": "contracts/SacredBeast.sol:SacredBeast",
        "label": "nftRewardPerTokenPaid",
        "offset": 0,
        "slot": "23",
        "type": "t_mapping(t_uint256,t_mapping(t_address,t_uint256))"
      },
      {
        "astId": 5373,
        "contract": "contracts/SacredBeast.sol:SacredBeast",
        "label": "rewards",
        "offset": 0,
        "slot": "24",
        "type": "t_mapping(t_uint256,t_mapping(t_address,t_uint256))"
      },
      {
        "astId": 5379,
        "contract": "contracts/SacredBeast.sol:SacredBeast",
        "label": "nftLocks",
        "offset": 0,
        "slot": "25",
        "type": "t_mapping(t_uint256,t_array(t_struct(LockedInfo)5306_storage)dyn_storage)"
      },
      {
        "astId": 5384,
        "contract": "contracts/SacredBeast.sol:SacredBeast",
        "label": "balances",
        "offset": 0,
        "slot": "26",
        "type": "t_mapping(t_uint256,t_struct(Balances)5320_storage)"
      },
      {
        "astId": 5386,
        "contract": "contracts/SacredBeast.sol:SacredBeast",
        "label": "_paused",
        "offset": 0,
        "slot": "27",
        "type": "t_bool"
      }
    ],
    "types": {
      "t_address": {
        "encoding": "inplace",
        "label": "address",
        "numberOfBytes": "20"
      },
      "t_address_payable": {
        "encoding": "inplace",
        "label": "address payable",
        "numberOfBytes": "20"
      },
      "t_array(t_address)dyn_storage": {
        "base": "t_address",
        "encoding": "dynamic_array",
        "label": "address[]",
        "numberOfBytes": "32"
      },
      "t_array(t_struct(LockChoice)5298_storage)dyn_storage": {
        "base": "t_struct(LockChoice)5298_storage",
        "encoding": "dynamic_array",
        "label": "struct SacredBeast.LockChoice[]",
        "numberOfBytes": "32"
      },
      "t_array(t_struct(LockedInfo)5306_storage)dyn_storage": {
        "base": "t_struct(LockedInfo)5306_storage",
        "encoding": "dynamic_array",
        "label": "struct SacredBeast.LockedInfo[]",
        "numberOfBytes": "32"
      },
      "t_array(t_uint256)dyn_storage": {
        "base": "t_uint256",
        "encoding": "dynamic_array",
        "label": "uint256[]",
        "numberOfBytes": "32"
      },
      "t_bool": {
        "encoding": "inplace",
        "label": "bool",
        "numberOfBytes": "1"
      },
      "t_contract(IERC20)860": {
        "encoding": "inplace",
        "label": "contract IERC20",
        "numberOfBytes": "20"
      },
      "t_mapping(t_address,t_bool)": {
        "encoding": "mapping",
        "key": "t_address",
        "label": "mapping(address => bool)",
        "numberOfBytes": "32",
        "value": "t_bool"
      },
      "t_mapping(t_address,t_mapping(t_address,t_bool))": {
        "encoding": "mapping",
        "key": "t_address",
        "label": "mapping(address => mapping(address => bool))",
        "numberOfBytes": "32",
        "value": "t_mapping(t_address,t_bool)"
      },
      "t_mapping(t_address,t_mapping(t_uint256,t_uint256))": {
        "encoding": "mapping",
        "key": "t_address",
        "label": "mapping(address => mapping(uint256 => uint256))",
        "numberOfBytes": "32",
        "value": "t_mapping(t_uint256,t_uint256)"
      },
      "t_mapping(t_address,t_struct(Reward)5329_storage)": {
        "encoding": "mapping",
        "key": "t_address",
        "label": "mapping(address => struct SacredBeast.Reward)",
        "numberOfBytes": "32",
        "value": "t_struct(Reward)5329_storage"
      },
      "t_mapping(t_address,t_uint256)": {
        "encoding": "mapping",
        "key": "t_address",
        "label": "mapping(address => uint256)",
        "numberOfBytes": "32",
        "value": "t_uint256"
      },
      "t_mapping(t_uint256,t_address)": {
        "encoding": "mapping",
        "key": "t_uint256",
        "label": "mapping(uint256 => address)",
        "numberOfBytes": "32",
        "value": "t_address"
      },
      "t_mapping(t_uint256,t_array(t_struct(LockedInfo)5306_storage)dyn_storage)": {
        "encoding": "mapping",
        "key": "t_uint256",
        "label": "mapping(uint256 => struct SacredBeast.LockedInfo[])",
        "numberOfBytes": "32",
        "value": "t_array(t_struct(LockedInfo)5306_storage)dyn_storage"
      },
      "t_mapping(t_uint256,t_mapping(t_address,t_uint256))": {
        "encoding": "mapping",
        "key": "t_uint256",
        "label": "mapping(uint256 => mapping(address => uint256))",
        "numberOfBytes": "32",
        "value": "t_mapping(t_address,t_uint256)"
      },
      "t_mapping(t_uint256,t_struct(Balances)5320_storage)": {
        "encoding": "mapping",
        "key": "t_uint256",
        "label": "mapping(uint256 => struct SacredBeast.Balances)",
        "numberOfBytes": "32",
        "value": "t_struct(Balances)5320_storage"
      },
      "t_mapping(t_uint256,t_struct(BeastStat)5311_storage)": {
        "encoding": "mapping",
        "key": "t_uint256",
        "label": "mapping(uint256 => struct SacredBeast.BeastStat)",
        "numberOfBytes": "32",
        "value": "t_struct(BeastStat)5311_storage"
      },
      "t_mapping(t_uint256,t_uint256)": {
        "encoding": "mapping",
        "key": "t_uint256",
        "label": "mapping(uint256 => uint256)",
        "numberOfBytes": "32",
        "value": "t_uint256"
      },
      "t_string_storage": {
        "encoding": "bytes",
        "label": "string",
        "numberOfBytes": "32"
      },
      "t_struct(Balances)5320_storage": {
        "encoding": "inplace",
        "label": "struct SacredBeast.Balances",
        "members": [
          {
            "astId": 5313,
            "contract": "contracts/SacredBeast.sol:SacredBeast",
            "label": "total",
            "offset": 0,
            "slot": "0",
            "type": "t_uint256"
          },
          {
            "astId": 5315,
            "contract": "contracts/SacredBeast.sol:SacredBeast",
            "label": "unlocked",
            "offset": 0,
            "slot": "1",
            "type": "t_uint256"
          },
          {
            "astId": 5317,
            "contract": "contracts/SacredBeast.sol:SacredBeast",
            "label": "locked",
            "offset": 0,
            "slot": "2",
            "type": "t_uint256"
          },
          {
            "astId": 5319,
            "contract": "contracts/SacredBeast.sol:SacredBeast",
            "label": "earned",
            "offset": 0,
            "slot": "3",
            "type": "t_uint256"
          }
        ],
        "numberOfBytes": "128"
      },
      "t_struct(BeastStat)5311_storage": {
        "encoding": "inplace",
        "label": "struct SacredBeast.BeastStat",
        "members": [
          {
            "astId": 5308,
            "contract": "contracts/SacredBeast.sol:SacredBeast",
            "label": "evolForm",
            "offset": 0,
            "slot": "0",
            "type": "t_uint8"
          },
          {
            "astId": 5310,
            "contract": "contracts/SacredBeast.sol:SacredBeast",
            "label": "exp",
            "offset": 0,
            "slot": "1",
            "type": "t_uint256"
          }
        ],
        "numberOfBytes": "64"
      },
      "t_struct(LockChoice)5298_storage": {
        "encoding": "inplace",
        "label": "struct SacredBeast.LockChoice",
        "members": [
          {
            "astId": 5293,
            "contract": "contracts/SacredBeast.sol:SacredBeast",
            "label": "duration",
            "offset": 0,
            "slot": "0",
            "type": "t_uint256"
          },
          {
            "astId": 5295,
            "contract": "contracts/SacredBeast.sol:SacredBeast",
            "label": "multiplier",
            "offset": 0,
            "slot": "1",
            "type": "t_uint256"
          },
          {
            "astId": 5297,
            "contract": "contracts/SacredBeast.sol:SacredBeast",
            "label": "penalty",
            "offset": 0,
            "slot": "2",
            "type": "t_uint256"
          }
        ],
        "numberOfBytes": "96"
      },
      "t_struct(LockedInfo)5306_storage": {
        "encoding": "inplace",
        "label": "struct SacredBeast.LockedInfo",
        "members": [
          {
            "astId": 5300,
            "contract": "contracts/SacredBeast.sol:SacredBeast",
            "label": "amount",
            "offset": 0,
            "slot": "0",
            "type": "t_uint256"
          },
          {
            "astId": 5302,
            "contract": "contracts/SacredBeast.sol:SacredBeast",
            "label": "unlockTime",
            "offset": 0,
            "slot": "1",
            "type": "t_uint256"
          },
          {
            "astId": 5305,
            "contract": "contracts/SacredBeast.sol:SacredBeast",
            "label": "lockChoice",
            "offset": 0,
            "slot": "2",
            "type": "t_struct(LockChoice)5298_storage"
          }
        ],
        "numberOfBytes": "160"
      },
      "t_struct(Reward)5329_storage": {
        "encoding": "inplace",
        "label": "struct SacredBeast.Reward",
        "members": [
          {
            "astId": 5322,
            "contract": "contracts/SacredBeast.sol:SacredBeast",
            "label": "periodFinish",
            "offset": 0,
            "slot": "0",
            "type": "t_uint256"
          },
          {
            "astId": 5324,
            "contract": "contracts/SacredBeast.sol:SacredBeast",
            "label": "rewardRate",
            "offset": 0,
            "slot": "1",
            "type": "t_uint256"
          },
          {
            "astId": 5326,
            "contract": "contracts/SacredBeast.sol:SacredBeast",
            "label": "lastUpdateTime",
            "offset": 0,
            "slot": "2",
            "type": "t_uint256"
          },
          {
            "astId": 5328,
            "contract": "contracts/SacredBeast.sol:SacredBeast",
            "label": "rewardPerTokenStored",
            "offset": 0,
            "slot": "3",
            "type": "t_uint256"
          }
        ],
        "numberOfBytes": "128"
      },
      "t_uint256": {
        "encoding": "inplace",
        "label": "uint256",
        "numberOfBytes": "32"
      },
      "t_uint8": {
        "encoding": "inplace",
        "label": "uint8",
        "numberOfBytes": "1"
      }
    }
  }
}