{
  "address": "0x7B3FcB0C177fd8654272eBB9C5F084f62D9D964e",
  "abi": [
    {
      "inputs": [
        {
          "internalType": "contract IERC20",
          "name": "_foodToken",
          "type": "address"
        },
        {
          "internalType": "address payable",
          "name": "_seller",
          "type": "address"
        }
      ],
      "stateMutability": "nonpayable",
      "type": "constructor"
    },
    {
      "anonymous": false,
      "inputs": [
        {
          "indexed": true,
          "internalType": "address",
          "name": "owner",
          "type": "address"
        },
        {
          "indexed": true,
          "internalType": "address",
          "name": "approved",
          "type": "address"
        },
        {
          "indexed": true,
          "internalType": "uint256",
          "name": "tokenId",
          "type": "uint256"
        }
      ],
      "name": "Approval",
      "type": "event"
    },
    {
      "anonymous": false,
      "inputs": [
        {
          "indexed": true,
          "internalType": "address",
          "name": "owner",
          "type": "address"
        },
        {
          "indexed": true,
          "internalType": "address",
          "name": "operator",
          "type": "address"
        },
        {
          "indexed": false,
          "internalType": "bool",
          "name": "approved",
          "type": "bool"
        }
      ],
      "name": "ApprovalForAll",
      "type": "event"
    },
    {
      "anonymous": false,
      "inputs": [
        {
          "indexed": false,
          "internalType": "uint256",
          "name": "tokenId",
          "type": "uint256"
        },
        {
          "indexed": false,
          "internalType": "uint256",
          "name": "evolForm",
          "type": "uint256"
        }
      ],
      "name": "Evole",
      "type": "event"
    },
    {
      "anonymous": false,
      "inputs": [
        {
          "indexed": false,
          "internalType": "uint256",
          "name": "tokenId",
          "type": "uint256"
        },
        {
          "indexed": false,
          "internalType": "uint256",
          "name": "amount",
          "type": "uint256"
        },
        {
          "indexed": false,
          "internalType": "uint256",
          "name": "unlockTime",
          "type": "uint256"
        },
        {
          "components": [
            {
              "internalType": "uint256",
              "name": "duration",
              "type": "uint256"
            },
            {
              "internalType": "uint256",
              "name": "multiplier",
              "type": "uint256"
            }
          ],
          "indexed": false,
          "internalType": "struct SacredBeast.LockChoice",
          "name": "choice",
          "type": "tuple"
        }
      ],
      "name": "Feed",
      "type": "event"
    },
    {
      "anonymous": false,
      "inputs": [
        {
          "indexed": false,
          "internalType": "uint256",
          "name": "index",
          "type": "uint256"
        },
        {
          "indexed": false,
          "internalType": "uint256",
          "name": "duration",
          "type": "uint256"
        },
        {
          "indexed": false,
          "internalType": "uint256",
          "name": "multiplier",
          "type": "uint256"
        }
      ],
      "name": "NewLockChoice",
      "type": "event"
    },
    {
      "anonymous": false,
      "inputs": [
        {
          "indexed": true,
          "internalType": "address",
          "name": "previousOwner",
          "type": "address"
        },
        {
          "indexed": true,
          "internalType": "address",
          "name": "newOwner",
          "type": "address"
        }
      ],
      "name": "OwnershipTransferred",
      "type": "event"
    },
    {
      "anonymous": false,
      "inputs": [
        {
          "indexed": false,
          "internalType": "uint256",
          "name": "tokenId",
          "type": "uint256"
        },
        {
          "indexed": false,
          "internalType": "uint256",
          "name": "amount",
          "type": "uint256"
        }
      ],
      "name": "Reclaim",
      "type": "event"
    },
    {
      "anonymous": false,
      "inputs": [
        {
          "indexed": false,
          "internalType": "address",
          "name": "claimer",
          "type": "address"
        },
        {
          "indexed": false,
          "internalType": "address",
          "name": "rewardToken",
          "type": "address"
        },
        {
          "indexed": false,
          "internalType": "uint256",
          "name": "reward",
          "type": "uint256"
        }
      ],
      "name": "RewardPaid",
      "type": "event"
    },
    {
      "anonymous": false,
      "inputs": [
        {
          "indexed": true,
          "internalType": "address",
          "name": "from",
          "type": "address"
        },
        {
          "indexed": true,
          "internalType": "address",
          "name": "to",
          "type": "address"
        },
        {
          "indexed": true,
          "internalType": "uint256",
          "name": "tokenId",
          "type": "uint256"
        }
      ],
      "name": "Transfer",
      "type": "event"
    },
    {
      "anonymous": false,
      "inputs": [
        {
          "indexed": false,
          "internalType": "uint256",
          "name": "index",
          "type": "uint256"
        },
        {
          "indexed": false,
          "internalType": "uint256",
          "name": "duration",
          "type": "uint256"
        },
        {
          "indexed": false,
          "internalType": "uint256",
          "name": "multiplier",
          "type": "uint256"
        }
      ],
      "name": "UpdateLockChoice",
      "type": "event"
    },
    {
      "inputs": [],
      "name": "MAX_SUPPLY",
      "outputs": [
        {
          "internalType": "uint256",
          "name": "",
          "type": "uint256"
        }
      ],
      "stateMutability": "view",
      "type": "function"
    },
    {
      "inputs": [],
      "name": "PRICE_PER_UNIT",
      "outputs": [
        {
          "internalType": "uint256",
          "name": "",
          "type": "uint256"
        }
      ],
      "stateMutability": "view",
      "type": "function"
    },
    {
      "inputs": [
        {
          "internalType": "uint256",
          "name": "_duration",
          "type": "uint256"
        },
        {
          "internalType": "uint256",
          "name": "_multiplier",
          "type": "uint256"
        }
      ],
      "name": "addLockChoice",
      "outputs": [],
      "stateMutability": "nonpayable",
      "type": "function"
    },
    {
      "inputs": [
        {
          "internalType": "address",
          "name": "_rewardsToken",
          "type": "address"
        },
        {
          "internalType": "address",
          "name": "_distributor",
          "type": "address"
        }
      ],
      "name": "addReward",
      "outputs": [],
      "stateMutability": "nonpayable",
      "type": "function"
    },
    {
      "inputs": [
        {
          "internalType": "address",
          "name": "to",
          "type": "address"
        },
        {
          "internalType": "uint256",
          "name": "tokenId",
          "type": "uint256"
        }
      ],
      "name": "approve",
      "outputs": [],
      "stateMutability": "nonpayable",
      "type": "function"
    },
    {
      "inputs": [
        {
          "internalType": "address",
          "name": "_rewardsToken",
          "type": "address"
        },
        {
          "internalType": "address",
          "name": "_distributor",
          "type": "address"
        },
        {
          "internalType": "bool",
          "name": "_approved",
          "type": "bool"
        }
      ],
      "name": "approveRewardDistributor",
      "outputs": [],
      "stateMutability": "nonpayable",
      "type": "function"
    },
    {
      "inputs": [
        {
          "internalType": "address",
          "name": "owner",
          "type": "address"
        }
      ],
      "name": "balanceOf",
      "outputs": [
        {
          "internalType": "uint256",
          "name": "",
          "type": "uint256"
        }
      ],
      "stateMutability": "view",
      "type": "function"
    },
    {
      "inputs": [
        {
          "internalType": "uint256",
          "name": "_tokenId",
          "type": "uint256"
        }
      ],
      "name": "evolutionNFT",
      "outputs": [],
      "stateMutability": "nonpayable",
      "type": "function"
    },
    {
      "inputs": [
        {
          "internalType": "uint256",
          "name": "_tokenId",
          "type": "uint256"
        },
        {
          "internalType": "uint256",
          "name": "_amount",
          "type": "uint256"
        },
        {
          "internalType": "uint256",
          "name": "_lockIndex",
          "type": "uint256"
        }
      ],
      "name": "feed",
      "outputs": [],
      "stateMutability": "nonpayable",
      "type": "function"
    },
    {
      "inputs": [
        {
          "internalType": "uint256",
          "name": "tokenId",
          "type": "uint256"
        }
      ],
      "name": "getApproved",
      "outputs": [
        {
          "internalType": "address",
          "name": "",
          "type": "address"
        }
      ],
      "stateMutability": "view",
      "type": "function"
    },
    {
      "inputs": [
        {
          "internalType": "uint256",
          "name": "_tokenId",
          "type": "uint256"
        }
      ],
      "name": "getReward",
      "outputs": [],
      "stateMutability": "nonpayable",
      "type": "function"
    },
    {
      "inputs": [
        {
          "internalType": "address",
          "name": "_rewardsToken",
          "type": "address"
        }
      ],
      "name": "getRewardForDuration",
      "outputs": [
        {
          "internalType": "uint256",
          "name": "",
          "type": "uint256"
        }
      ],
      "stateMutability": "view",
      "type": "function"
    },
    {
      "inputs": [
        {
          "internalType": "address",
          "name": "owner",
          "type": "address"
        },
        {
          "internalType": "address",
          "name": "operator",
          "type": "address"
        }
      ],
      "name": "isApprovedForAll",
      "outputs": [
        {
          "internalType": "bool",
          "name": "",
          "type": "bool"
        }
      ],
      "stateMutability": "view",
      "type": "function"
    },
    {
      "inputs": [
        {
          "internalType": "address",
          "name": "_rewardsToken",
          "type": "address"
        }
      ],
      "name": "lastTimeRewardApplicable",
      "outputs": [
        {
          "internalType": "uint256",
          "name": "",
          "type": "uint256"
        }
      ],
      "stateMutability": "view",
      "type": "function"
    },
    {
      "inputs": [
        {
          "internalType": "uint256",
          "name": "",
          "type": "uint256"
        }
      ],
      "name": "lockChoices",
      "outputs": [
        {
          "internalType": "uint256",
          "name": "duration",
          "type": "uint256"
        },
        {
          "internalType": "uint256",
          "name": "multiplier",
          "type": "uint256"
        }
      ],
      "stateMutability": "view",
      "type": "function"
    },
    {
      "inputs": [],
      "name": "lockedSupply",
      "outputs": [
        {
          "internalType": "uint256",
          "name": "",
          "type": "uint256"
        }
      ],
      "stateMutability": "view",
      "type": "function"
    },
    {
      "inputs": [
        {
          "internalType": "uint256",
          "name": "_numberOfTokens",
          "type": "uint256"
        }
      ],
      "name": "mintBeast",
      "outputs": [],
      "stateMutability": "nonpayable",
      "type": "function"
    },
    {
      "inputs": [],
      "name": "name",
      "outputs": [
        {
          "internalType": "string",
          "name": "",
          "type": "string"
        }
      ],
      "stateMutability": "view",
      "type": "function"
    },
    {
      "inputs": [
        {
          "internalType": "uint256",
          "name": "",
          "type": "uint256"
        }
      ],
      "name": "nft",
      "outputs": [
        {
          "internalType": "uint8",
          "name": "evolForm",
          "type": "uint8"
        },
        {
          "internalType": "uint8",
          "name": "race",
          "type": "uint8"
        },
        {
          "internalType": "uint256",
          "name": "exp",
          "type": "uint256"
        }
      ],
      "stateMutability": "view",
      "type": "function"
    },
    {
      "inputs": [
        {
          "internalType": "uint256",
          "name": "",
          "type": "uint256"
        },
        {
          "internalType": "uint256",
          "name": "",
          "type": "uint256"
        }
      ],
      "name": "nftLocks",
      "outputs": [
        {
          "internalType": "uint256",
          "name": "amount",
          "type": "uint256"
        },
        {
          "internalType": "uint256",
          "name": "unlockTime",
          "type": "uint256"
        },
        {
          "components": [
            {
              "internalType": "uint256",
              "name": "duration",
              "type": "uint256"
            },
            {
              "internalType": "uint256",
              "name": "multiplier",
              "type": "uint256"
            }
          ],
          "internalType": "struct SacredBeast.LockChoice",
          "name": "lockChoice",
          "type": "tuple"
        }
      ],
      "stateMutability": "view",
      "type": "function"
    },
    {
      "inputs": [
        {
          "internalType": "uint256",
          "name": "",
          "type": "uint256"
        },
        {
          "internalType": "address",
          "name": "",
          "type": "address"
        }
      ],
      "name": "nftRewardPerTokenPaid",
      "outputs": [
        {
          "internalType": "uint256",
          "name": "",
          "type": "uint256"
        }
      ],
      "stateMutability": "view",
      "type": "function"
    },
    {
      "inputs": [],
      "name": "owner",
      "outputs": [
        {
          "internalType": "address",
          "name": "",
          "type": "address"
        }
      ],
      "stateMutability": "view",
      "type": "function"
    },
    {
      "inputs": [
        {
          "internalType": "uint256",
          "name": "tokenId",
          "type": "uint256"
        }
      ],
      "name": "ownerOf",
      "outputs": [
        {
          "internalType": "address",
          "name": "",
          "type": "address"
        }
      ],
      "stateMutability": "view",
      "type": "function"
    },
    {
      "inputs": [
        {
          "internalType": "uint256",
          "name": "_tokenId",
          "type": "uint256"
        }
      ],
      "name": "reclaimExpiredLocks",
      "outputs": [],
      "stateMutability": "nonpayable",
      "type": "function"
    },
    {
      "inputs": [
        {
          "internalType": "address",
          "name": "tokenAddress",
          "type": "address"
        },
        {
          "internalType": "uint256",
          "name": "tokenAmount",
          "type": "uint256"
        }
      ],
      "name": "recoverERC20",
      "outputs": [],
      "stateMutability": "nonpayable",
      "type": "function"
    },
    {
      "inputs": [],
      "name": "renounceOwnership",
      "outputs": [],
      "stateMutability": "nonpayable",
      "type": "function"
    },
    {
      "inputs": [
        {
          "internalType": "address",
          "name": "",
          "type": "address"
        }
      ],
      "name": "rewardData",
      "outputs": [
        {
          "internalType": "uint256",
          "name": "periodFinish",
          "type": "uint256"
        },
        {
          "internalType": "uint256",
          "name": "rewardRate",
          "type": "uint256"
        },
        {
          "internalType": "uint256",
          "name": "lastUpdateTime",
          "type": "uint256"
        },
        {
          "internalType": "uint256",
          "name": "rewardPerTokenStored",
          "type": "uint256"
        }
      ],
      "stateMutability": "view",
      "type": "function"
    },
    {
      "inputs": [
        {
          "internalType": "address",
          "name": "",
          "type": "address"
        },
        {
          "internalType": "address",
          "name": "",
          "type": "address"
        }
      ],
      "name": "rewardDistributors",
      "outputs": [
        {
          "internalType": "bool",
          "name": "",
          "type": "bool"
        }
      ],
      "stateMutability": "view",
      "type": "function"
    },
    {
      "inputs": [
        {
          "internalType": "address",
          "name": "_rewardsToken",
          "type": "address"
        }
      ],
      "name": "rewardPerToken",
      "outputs": [
        {
          "internalType": "uint256",
          "name": "",
          "type": "uint256"
        }
      ],
      "stateMutability": "view",
      "type": "function"
    },
    {
      "inputs": [
        {
          "internalType": "uint256",
          "name": "",
          "type": "uint256"
        }
      ],
      "name": "rewardTokens",
      "outputs": [
        {
          "internalType": "address",
          "name": "",
          "type": "address"
        }
      ],
      "stateMutability": "view",
      "type": "function"
    },
    {
      "inputs": [
        {
          "internalType": "uint256",
          "name": "",
          "type": "uint256"
        },
        {
          "internalType": "address",
          "name": "",
          "type": "address"
        }
      ],
      "name": "rewards",
      "outputs": [
        {
          "internalType": "uint256",
          "name": "",
          "type": "uint256"
        }
      ],
      "stateMutability": "view",
      "type": "function"
    },
    {
      "inputs": [],
      "name": "rewardsDuration",
      "outputs": [
        {
          "internalType": "uint256",
          "name": "",
          "type": "uint256"
        }
      ],
      "stateMutability": "view",
      "type": "function"
    },
    {
      "inputs": [
        {
          "internalType": "address",
          "name": "from",
          "type": "address"
        },
        {
          "internalType": "address",
          "name": "to",
          "type": "address"
        },
        {
          "internalType": "uint256",
          "name": "tokenId",
          "type": "uint256"
        }
      ],
      "name": "safeTransferFrom",
      "outputs": [],
      "stateMutability": "nonpayable",
      "type": "function"
    },
    {
      "inputs": [
        {
          "internalType": "address",
          "name": "from",
          "type": "address"
        },
        {
          "internalType": "address",
          "name": "to",
          "type": "address"
        },
        {
          "internalType": "uint256",
          "name": "tokenId",
          "type": "uint256"
        },
        {
          "internalType": "bytes",
          "name": "_data",
          "type": "bytes"
        }
      ],
      "name": "safeTransferFrom",
      "outputs": [],
      "stateMutability": "nonpayable",
      "type": "function"
    },
    {
      "inputs": [],
      "name": "seller",
      "outputs": [
        {
          "internalType": "address payable",
          "name": "",
          "type": "address"
        }
      ],
      "stateMutability": "view",
      "type": "function"
    },
    {
      "inputs": [
        {
          "internalType": "address",
          "name": "operator",
          "type": "address"
        },
        {
          "internalType": "bool",
          "name": "approved",
          "type": "bool"
        }
      ],
      "name": "setApprovalForAll",
      "outputs": [],
      "stateMutability": "nonpayable",
      "type": "function"
    },
    {
      "inputs": [
        {
          "internalType": "uint256",
          "name": "_lockIndex",
          "type": "uint256"
        },
        {
          "internalType": "uint256",
          "name": "_duration",
          "type": "uint256"
        },
        {
          "internalType": "uint256",
          "name": "_multiplier",
          "type": "uint256"
        }
      ],
      "name": "setLockChoice",
      "outputs": [],
      "stateMutability": "nonpayable",
      "type": "function"
    },
    {
      "inputs": [
        {
          "internalType": "bytes4",
          "name": "interfaceId",
          "type": "bytes4"
        }
      ],
      "name": "supportsInterface",
      "outputs": [
        {
          "internalType": "bool",
          "name": "",
          "type": "bool"
        }
      ],
      "stateMutability": "view",
      "type": "function"
    },
    {
      "inputs": [],
      "name": "symbol",
      "outputs": [
        {
          "internalType": "string",
          "name": "",
          "type": "string"
        }
      ],
      "stateMutability": "view",
      "type": "function"
    },
    {
      "inputs": [
        {
          "internalType": "uint256",
          "name": "index",
          "type": "uint256"
        }
      ],
      "name": "tokenByIndex",
      "outputs": [
        {
          "internalType": "uint256",
          "name": "",
          "type": "uint256"
        }
      ],
      "stateMutability": "view",
      "type": "function"
    },
    {
      "inputs": [
        {
          "internalType": "address",
          "name": "owner",
          "type": "address"
        },
        {
          "internalType": "uint256",
          "name": "index",
          "type": "uint256"
        }
      ],
      "name": "tokenOfOwnerByIndex",
      "outputs": [
        {
          "internalType": "uint256",
          "name": "",
          "type": "uint256"
        }
      ],
      "stateMutability": "view",
      "type": "function"
    },
    {
      "inputs": [
        {
          "internalType": "uint256",
          "name": "_tokenId",
          "type": "uint256"
        }
      ],
      "name": "tokenURI",
      "outputs": [
        {
          "internalType": "string",
          "name": "",
          "type": "string"
        }
      ],
      "stateMutability": "view",
      "type": "function"
    },
    {
      "inputs": [],
      "name": "totalERC20Supply",
      "outputs": [
        {
          "internalType": "uint256",
          "name": "",
          "type": "uint256"
        }
      ],
      "stateMutability": "view",
      "type": "function"
    },
    {
      "inputs": [],
      "name": "totalSupply",
      "outputs": [
        {
          "internalType": "uint256",
          "name": "",
          "type": "uint256"
        }
      ],
      "stateMutability": "view",
      "type": "function"
    },
    {
      "inputs": [
        {
          "internalType": "address",
          "name": "from",
          "type": "address"
        },
        {
          "internalType": "address",
          "name": "to",
          "type": "address"
        },
        {
          "internalType": "uint256",
          "name": "tokenId",
          "type": "uint256"
        }
      ],
      "name": "transferFrom",
      "outputs": [],
      "stateMutability": "nonpayable",
      "type": "function"
    },
    {
      "inputs": [
        {
          "internalType": "address",
          "name": "newOwner",
          "type": "address"
        }
      ],
      "name": "transferOwnership",
      "outputs": [],
      "stateMutability": "nonpayable",
      "type": "function"
    },
    {
      "inputs": [
        {
          "internalType": "address payable",
          "name": "_to",
          "type": "address"
        }
      ],
      "name": "withdrawETH",
      "outputs": [],
      "stateMutability": "nonpayable",
      "type": "function"
    }
  ],
  "transactionHash": "0x029385d6c1440bd3847f1a48c429a7e02eb5b5cb398047e803388540cc6693d0",
  "args": [
    "0xf91375fbf40d920c31016E1473c6D44F334Af13F",
    "0x870317bbE804fd33c0eD50af9329C8c2653bd56F"
  ],
  "solcInputHash": "4d68999d2805c1e12db391f6deccb043",
  "bytecode": "0x6080604052612710600e556703782dace9d90000600f553480156200002357600080fd5b506040516200476a3803806200476a833981016040819052620000469162000214565b604080518082018252600c81526b14d050d491510810915054d560a21b60208083019182528351808501909452600384526229a1a160e91b908401528151919291620000959160009162000155565b508051620000ab90600190602084019062000155565b505050620000c8620000c2620000ff60201b60201c565b62000103565b6001600b55600c80546001600160a01b039384166001600160a01b031991821617909155600d805492909316911617905562000290565b3390565b600a80546001600160a01b038381166001600160a01b0319831681179093556040519116919082907f8be0079c531659141344cd1fd0a4f28419497f9722a3daafe3b4186f6b6457e090600090a35050565b828054620001639062000253565b90600052602060002090601f016020900481019282620001875760008555620001d2565b82601f10620001a257805160ff1916838001178555620001d2565b82800160010185558215620001d2579182015b82811115620001d2578251825591602001919060010190620001b5565b50620001e0929150620001e4565b5090565b5b80821115620001e05760008155600101620001e5565b6001600160a01b03811681146200021157600080fd5b50565b600080604083850312156200022857600080fd5b82516200023581620001fb565b60208401519092506200024881620001fb565b809150509250929050565b600181811c908216806200026857607f821691505b602082108114156200028a57634e487b7160e01b600052602260045260246000fd5b50919050565b6144ca80620002a06000396000f3fe608060405234801561001057600080fd5b50600436106103155760003560e01c80636815b6d6116101a7578063a22cb465116100ee578063ca5c7b9111610097578063f2db11af11610071578063f2db11af1461075e578063f2fde38b14610789578063f6d30e6b1461079c57600080fd5b8063ca5c7b9114610706578063e985e9c51461070f578063f12297771461074b57600080fd5b8063b88d4fde116100c8578063b88d4fde146106cd578063bcd11014146106e0578063c87b56dd146106f357600080fd5b8063a22cb46514610667578063a444914b1461067a578063af9ea7c3146106a257600080fd5b80637bb7bed111610150578063919cbc4e1161012a578063919cbc4e1461060257806395d89b411461060b5780639d0214cb1461061357600080fd5b80637bb7bed1146105cb5780638980f11f146105de5780638da5cb5b146105f157600080fd5b8063715018a611610181578063715018a61461059d57806373de83c4146105a55780637a0dedf6146105b857600080fd5b80636815b6d61461056e578063690d83201461057757806370a082311461058a57600080fd5b806332cb6b0c1161026b57806348e5d9f8116102145780636352211e116101ee5780636352211e14610535578063638634ee146105485780636724c9101461055b57600080fd5b806348e5d9f8146104ba5780634f6ccce71461050f578063545edc341461052257600080fd5b806340b47e1a1161024557806340b47e1a1461048157806342842e0e146104945780634404972a146104a757600080fd5b806332cb6b0c14610440578063386a95251461044957806339fc97131461045357600080fd5b806318160ddd116102cd5780632514057e116102a75780632514057e146103e25780632a314a921461041a5780632f745c591461042d57600080fd5b806318160ddd146103aa5780631c4b774b146103bc57806323b872dd146103cf57600080fd5b8063081812fc116102fe578063081812fc1461035757806308551a5314610382578063095ea7b31461039557600080fd5b806301ffc9a71461031a57806306fdde0314610342575b600080fd5b61032d6103283660046139b5565b6107af565b60405190151581526020015b60405180910390f35b61034a61080b565b6040516103399190613a48565b61036a610365366004613a5b565b61089d565b6040516001600160a01b039091168152602001610339565b600d5461036a906001600160a01b031681565b6103a86103a3366004613a89565b610948565b005b6008545b604051908152602001610339565b6103a86103ca366004613a5b565b610a7a565b6103a86103dd366004613ab5565b610ea3565b6103f56103f0366004613af6565b610f2a565b6040805193845260208085019390935281519084015201516060820152608001610339565b6103a8610428366004613a5b565b610f84565b6103ae61043b366004613a89565b61112f565b6103ae600e5481565b6103ae62093a8081565b61032d610461366004613b18565b601660209081526000928352604080842090915290825290205460ff1681565b6103a861048f366004613b18565b6111d7565b6103a86104a2366004613ab5565b611314565b6103a86104b5366004613af6565b61132f565b6104ef6104c8366004613b51565b60156020526000908152604090208054600182015460028301546003909301549192909184565b604080519485526020850193909352918301526060820152608001610339565b6103ae61051d366004613a5b565b611446565b6103a8610530366004613b6e565b6114ea565b61036a610543366004613a5b565b6115bb565b6103ae610556366004613b51565b611646565b6103a8610569366004613ba8565b61166a565b6103ae60115481565b6103a8610585366004613b51565b611741565b6103ae610598366004613b51565b6117d4565b6103a861186e565b6103a86105b3366004613a5b565b6118d4565b6103a86105c6366004613b6e565b611af2565b61036a6105d9366004613a5b565b611e9e565b6103a86105ec366004613a89565b611ec8565b600a546001600160a01b031661036a565b6103ae600f5481565b61034a6120a2565b610647610621366004613a5b565b6010602052600090815260409020805460019091015460ff808316926101009004169083565b6040805160ff948516815293909216602084015290820152606001610339565b6103a8610675366004613bf3565b6120b1565b61068d610688366004613a5b565b6120bc565b60408051928352602083019190915201610339565b6103ae6106b0366004613c21565b601860209081526000928352604080842090915290825290205481565b6103a86106db366004613c75565b6120ea565b6103ae6106ee366004613b51565b612178565b61034a610701366004613a5b565b6121a2565b6103ae60125481565b61032d61071d366004613b18565b6001600160a01b03918216600090815260056020908152604080832093909416825291909152205460ff1690565b6103ae610759366004613b51565b612396565b6103ae61076c366004613c21565b601960209081526000928352604080842090915290825290205481565b6103a8610797366004613b51565b6123cf565b6103a86107aa366004613a5b565b6124b1565b60007fffffffff0000000000000000000000000000000000000000000000000000000082167f780e9d630000000000000000000000000000000000000000000000000000000014806108055750610805826127c9565b92915050565b60606000805461081a90613d73565b80601f016020809104026020016040519081016040528092919081815260200182805461084690613d73565b80156108935780601f1061086857610100808354040283529160200191610893565b820191906000526020600020905b81548152906001019060200180831161087657829003601f168201915b5050505050905090565b6000818152600260205260408120546001600160a01b031661092c5760405162461bcd60e51b815260206004820152602c60248201527f4552433732313a20617070726f76656420717565727920666f72206e6f6e657860448201527f697374656e7420746f6b656e000000000000000000000000000000000000000060648201526084015b60405180910390fd5b506000908152600460205260409020546001600160a01b031690565b6000610953826115bb565b9050806001600160a01b0316836001600160a01b031614156109dd5760405162461bcd60e51b815260206004820152602160248201527f4552433732313a20617070726f76616c20746f2063757272656e74206f776e6560448201527f72000000000000000000000000000000000000000000000000000000000000006064820152608401610923565b336001600160a01b03821614806109f957506109f9813361071d565b610a6b5760405162461bcd60e51b815260206004820152603860248201527f4552433732313a20617070726f76652063616c6c6572206973206e6f74206f7760448201527f6e6572206e6f7220617070726f76656420666f7220616c6c00000000000000006064820152608401610923565b610a7583836128ac565b505050565b6002600b541415610acd5760405162461bcd60e51b815260206004820152601f60248201527f5265656e7472616e637947756172643a207265656e7472616e742063616c6c006044820152606401610923565b6002600b55600c5460125482916001600160a01b031690600090610af18382612932565b6001600160a01b038416600090815260156020526040902060030155610b1683611646565b6001600160a01b038416600090815260156020526040902060020155610b53846000908152600260205260409020546001600160a01b0316151590565b610bc55760405162461bcd60e51b815260206004820152602f60248201527f4552433732314d657461646174613a2055524920717565727920666f72206e6f60448201527f6e6578697374656e7420746f6b656e00000000000000000000000000000000006064820152608401610923565b6000848152601b6020526040902060020154610be59085908590846129e0565b60008581526019602090815260408083206001600160a01b0388168085529083528184209490945560158252808320600301548884526018835281842094845293825280832093909355868252601b90522054601154909250905060015b601454811015610d275760148181548110610c6057610c60613dc7565b6000918252602090912001546001600160a01b03169350610c818483612932565b6001600160a01b038516600090815260156020526040902060030155610ca684611646565b6001600160a01b038516600090815260156020526040902060020155610cce858585856129e0565b60008681526019602090815260408083206001600160a01b038916808552908352818420949094556015825280832060030154898452601883528184209484529390915290205580610d1f81613e25565b915050610c43565b5060005b601454811015610e9657600060148281548110610d4a57610d4a613dc7565b60009182526020808320909101548983526019825260408084206001600160a01b03909216808552919092529120549091508015610e815760008881526019602090815260408083206001600160a01b03861680855292528083209290925590517fa9059cbb0000000000000000000000000000000000000000000000000000000081523360048201526024810183905263a9059cbb90604401602060405180830381600087803b158015610dfe57600080fd5b505af1158015610e12573d6000803e3d6000fd5b505050506040513d601f19601f82011682018060405250810190610e369190613e5e565b50604080513381526001600160a01b03841660208201529081018290527f540798df468d7b23d11f156fdb954cb19ad414d150722a7b6d55ba369dea792e9060600160405180910390a15b50508080610e8e90613e25565b915050610d2b565b50506001600b5550505050565b610ead3382612a5e565b610f1f5760405162461bcd60e51b815260206004820152603160248201527f4552433732313a207472616e736665722063616c6c6572206973206e6f74206f60448201527f776e6572206e6f7220617070726f7665640000000000000000000000000000006064820152608401610923565b610a75838383612b62565b601a6020528160005260406000208181548110610f4657600080fd5b600091825260209182902060049091020180546001820154604080518082019091526002840154815260039093015493830193909352935090915083565b33610f8e826115bb565b6001600160a01b031614610fa157600080fd5b600081815260106020526040902054610fbe9060ff166005613f9b565b610fcb90620f4240613faa565b610fdd90670de0b6b3a7640000613faa565b60008281526010602052604090206001015411610ff957600080fd5b600081815260106020526040902054600660ff9091161061101957600080fd5b60008181526010602052604090205460ff16600114156110a65760006110616005837f2a314a9200000000000000000000000000000000000000000000000000000000612d52565b6000838152601060205260409020805460ff909216610100027fffffffffffffffffffffffffffffffffffffffffffffffffffffffffffff00ff909216919091179055505b60008181526010602052604081208054600192906110c890849060ff16613fe7565b82546101009290920a60ff8181021990931691831602179091556000838152601060209081526040918290205482518681529316908301527f7c5df07daff086a5c44a8baad5d3e79781acaa5ec7654211fa8e30cc7322211392500160405180910390a150565b600061113a836117d4565b82106111ae5760405162461bcd60e51b815260206004820152602b60248201527f455243373231456e756d657261626c653a206f776e657220696e646578206f7560448201527f74206f6620626f756e64730000000000000000000000000000000000000000006064820152608401610923565b506001600160a01b03919091166000908152600660209081526040808320938352929052205490565b600a546001600160a01b031633146112315760405162461bcd60e51b815260206004820181905260248201527f4f776e61626c653a2063616c6c6572206973206e6f7420746865206f776e65726044820152606401610923565b6001600160a01b0382166000908152601560205260409020600201541561125757600080fd5b6014805460018082019092557fce6d7b5282bd9a3661ae061feed1dbda4e52ab073b1f9285be6e155d9c38d4ec0180547fffffffffffffffffffffffff0000000000000000000000000000000000000000166001600160a01b03948516908117909155600090815260156020908152604080832042600282018190559055601682528083209490951682529290925291902080547fffffffffffffffffffffffffffffffffffffffffffffffffffffffffffffff00169091179055565b610a75838383604051806020016040528060008152506120ea565b600a546001600160a01b031633146113895760405162461bcd60e51b815260206004820181905260248201527f4f776e61626c653a2063616c6c6572206973206e6f7420746865206f776e65726044820152606401610923565b604080518082018252838152602080820184815260178054600181018255600082905293517fc624b66cc0138b8fabc209247f72d758e1cf3343756d543badbf24212bed8c1560029095029485015590517fc624b66cc0138b8fabc209247f72d758e1cf3343756d543badbf24212bed8c1690930192909255905482519081529081018490529081018290527fa41017d8802e7e891c590c66e4f54b95797591f870898950d292f779fd6f95f89060600160405180910390a15050565b600061145160085490565b82106114c55760405162461bcd60e51b815260206004820152602c60248201527f455243373231456e756d657261626c653a20676c6f62616c20696e646578206f60448201527f7574206f6620626f756e647300000000000000000000000000000000000000006064820152608401610923565b600882815481106114d8576114d8613dc7565b90600052602060002001549050919050565b600a546001600160a01b031633146115445760405162461bcd60e51b815260206004820181905260248201527f4f776e61626c653a2063616c6c6572206973206e6f7420746865206f776e65726044820152606401610923565b60006017848154811061155957611559613dc7565b60009182526020918290206002909102018481556001810184905560408051878152928301869052820184905291507f995322dc15f5c8a0198e5dbadbb1142f145efaa71fba43947f92505288ac5e129060600160405180910390a150505050565b6000818152600260205260408120546001600160a01b0316806108055760405162461bcd60e51b815260206004820152602960248201527f4552433732313a206f776e657220717565727920666f72206e6f6e657869737460448201527f656e7420746f6b656e00000000000000000000000000000000000000000000006064820152608401610923565b6001600160a01b038116600090815260156020526040812054610805904290612e03565b600a546001600160a01b031633146116c45760405162461bcd60e51b815260206004820181905260248201527f4f776e61626c653a2063616c6c6572206973206e6f7420746865206f776e65726044820152606401610923565b6001600160a01b0383166000908152601560205260409020600201546116e957600080fd5b6001600160a01b0392831660009081526016602090815260408083209490951682529290925291902080547fffffffffffffffffffffffffffffffffffffffffffffffffffffffffffffff0016911515919091179055565b600a546001600160a01b0316331461179b5760405162461bcd60e51b815260206004820181905260248201527f4f776e61626c653a2063616c6c6572206973206e6f7420746865206f776e65726044820152606401610923565b6040516001600160a01b038216904780156108fc02916000818181858888f193505050501580156117d0573d6000803e3d6000fd5b5050565b60006001600160a01b0382166118525760405162461bcd60e51b815260206004820152602a60248201527f4552433732313a2062616c616e636520717565727920666f7220746865207a6560448201527f726f2061646472657373000000000000000000000000000000000000000000006064820152608401610923565b506001600160a01b031660009081526003602052604090205490565b600a546001600160a01b031633146118c85760405162461bcd60e51b815260206004820181905260248201527f4f776e61626c653a2063616c6c6572206973206e6f7420746865206f776e65726044820152606401610923565b6118d26000612e19565b565b600e54816118e160085490565b6118eb919061400c565b11156119395760405162461bcd60e51b815260206004820181905260248201527f507572636861736520776f756c6420657863656564206d617820737570706c796044820152606401610923565b600081600f546119499190613faa565b600c54600d546040517f23b872dd0000000000000000000000000000000000000000000000000000000081523360048201526001600160a01b0391821660248201526044810184905292935016906323b872dd90606401602060405180830381600087803b1580156119ba57600080fd5b505af11580156119ce573d6000803e3d6000fd5b505050506040513d601f19601f820116820180604052508101906119f29190613e5e565b611a3e5760405162461bcd60e51b815260206004820152601060248201527f57726f6e672070617920616d6f756e74000000000000000000000000000000006044820152606401610923565b60005b82811015610a75576000611a5460085490565b9050600e54611a6260085490565b1015611adf57611a723382612e83565b6040805160608101825260018082526000602080840182815284860183815287845260109092529490912092518354945160ff908116610100027fffffffffffffffffffffffffffffffffffffffffffffffffffffffffffff000090961691161793909317825591519101555b5080611aea81613e25565b915050611a41565b60008381526002602052604090205483906001600160a01b0316611b585760405162461bcd60e51b815260206004820152601460248201527f546f6b656e20646f6573206e6f742065786973740000000000000000000000006044820152606401610923565b600c546040517f23b872dd000000000000000000000000000000000000000000000000000000008152336004820152306024820152604481018590526001600160a01b03909116906323b872dd90606401602060405180830381600087803b158015611bc357600080fd5b505af1158015611bd7573d6000803e3d6000fd5b505050506040513d601f19601f82011682018060405250810190611bfb9190613e5e565b611c0457600080fd5b82601154611c12919061400c565b6011556000848152601b602052604090208054611c3090859061400c565b808255611c3e90859061400c565b81600201819055508360126000828254611c58919061400c565b92505081905550600060178481548110611c7457611c74613dc7565b906000526020600020906002020190506000611caf868360405180604001604052908160008201548152602001600182015481525050612e9d565b905080601060008981526020019081526020016000206001016000828254611cd7919061400c565b90915550508154600090611ceb904261400c565b6000898152601a6020526040902054909150801580611d4457506000898152601a602052604090208290611d20600184614024565b81548110611d3057611d30613dc7565b906000526020600020906004020160010154105b15611dbf576000898152601a6020908152604080832081516060810183528c8152808401878152835180850185528a5481526001808c01548288015294830190815283548086018555938752958590209151600490930290910191825551918101919091559151805160028401550151600390910155611e41565b6000898152601a602052604090208890611dda600184614024565b81548110611dea57611dea613dc7565b906000526020600020906004020160000154611e06919061400c565b60008a8152601a60205260409020611e1f600184614024565b81548110611e2f57611e2f613dc7565b60009182526020909120600490910201555b604080518a8152602081018a905290810183905284546060820152600185015460808201527f392e2679c5174813e985de6b1bb03672f942be834139636e218f0b4f4f01f99b9060a00160405180910390a1505050505050505050565b60148181548110611eae57600080fd5b6000918252602090912001546001600160a01b0316905081565b600a546001600160a01b03163314611f225760405162461bcd60e51b815260206004820181905260248201527f4f776e61626c653a2063616c6c6572206973206e6f7420746865206f776e65726044820152606401610923565b600c546001600160a01b0383811691161415611f805760405162461bcd60e51b815260206004820152601d60248201527f43616e6e6f74207769746864726177207374616b696e6720746f6b656e0000006044820152606401610923565b6001600160a01b03821660009081526015602052604090206002015415611fe95760405162461bcd60e51b815260206004820152601c60248201527f43616e6e6f742077697468647261772072657761726420746f6b656e000000006044820152606401610923565b816001600160a01b031663a9059cbb61200a600a546001600160a01b031690565b6040517fffffffff0000000000000000000000000000000000000000000000000000000060e084901b1681526001600160a01b03909116600482015260248101849052604401602060405180830381600087803b15801561206a57600080fd5b505af115801561207e573d6000803e3d6000fd5b505050506040513d601f19601f82011682018060405250810190610a759190613e5e565b60606001805461081a90613d73565b6117d0338383612ebe565b601781815481106120cc57600080fd5b60009182526020909120600290910201805460019091015490915082565b6120f43383612a5e565b6121665760405162461bcd60e51b815260206004820152603160248201527f4552433732313a207472616e736665722063616c6c6572206973206e6f74206f60448201527f776e6572206e6f7220617070726f7665640000000000000000000000000000006064820152608401610923565b61217284848484612fab565b50505050565b6001600160a01b0381166000908152601560205260408120600101546108059062093a8090613faa565b6000818152600260205260409020546060906001600160a01b031661222f5760405162461bcd60e51b815260206004820152602f60248201527f4552433732314d657461646174613a2055524920717565727920666f72206e6f60448201527f6e6578697374656e7420746f6b656e00000000000000000000000000000000006064820152608401610923565b600061224660408051602081019091526000815290565b9050600061225384613034565b6040516020016122639190614057565b604080517fffffffffffffffffffffffffffffffffffffffffffffffffffffffffffffffe08184030181529181526000868152601060205290812060010154919250906122af90613034565b600086815260106020526040812054919250906122d390610100900460ff16613034565b600087815260106020526040812054919250906122f29060ff16613034565b90506000808651116123135760405180602001604052806000815250612338565b8583836040516020016123289392919061409c565b6040516020818303038152906040525b905061236a858584868560405160200161235695949392919061413c565b604051602081830303815290604052613166565b60405160200161237a9190614330565b6040516020818303038152906040529650505050505050919050565b600c5460009081906001600160a01b038481169116146123b8576011546123bc565b6012545b90506123c88382612932565b9392505050565b600a546001600160a01b031633146124295760405162461bcd60e51b815260206004820181905260248201527f4f776e61626c653a2063616c6c6572206973206e6f7420746865206f776e65726044820152606401610923565b6001600160a01b0381166124a55760405162461bcd60e51b815260206004820152602660248201527f4f776e61626c653a206e6577206f776e657220697320746865207a65726f206160448201527f64647265737300000000000000000000000000000000000000000000000000006064820152608401610923565b6124ae81612e19565b50565b60008181526002602052604090205481906001600160a01b03166125175760405162461bcd60e51b815260206004820152601460248201527f546f6b656e20646f6573206e6f742065786973740000000000000000000000006044820152606401610923565b33612521836115bb565b6001600160a01b0316146125775760405162461bcd60e51b815260206004820152601060248201527f4e6f74204f776e6572206f66204e4654000000000000000000000000000000006044820152606401610923565b6000828152601a60209081526040808320601b909252822081549192909142846125a2600184614024565b815481106125b2576125b2613dc7565b906000526020600020906004020160010154116125ee5760028301546000878152601a602052604081209193506125e9919061393e565b6126a4565b60005b818110156126a2574285828154811061260c5761260c613dc7565b9060005260206000209060040201600101541115612629576126a2565b84818154811061263b5761263b613dc7565b90600052602060002090600402016000015483612658919061400c565b925084818154811061266c5761266c613dc7565b6000918252602082206004909102018181556001810182905560028101829055600301558061269a81613e25565b9150506125f1565b505b8183600201546126b49190614024565b600284015582546126c6908390614024565b83556011546126d6908390614024565b6011556012546126e7908390614024565b601255600c546040517fa9059cbb000000000000000000000000000000000000000000000000000000008152336004820152602481018490526001600160a01b039091169063a9059cbb90604401602060405180830381600087803b15801561274f57600080fd5b505af1158015612763573d6000803e3d6000fd5b505050506040513d601f19601f820116820180604052508101906127879190613e5e565b5060408051878152602081018490527fc266233ef087afa73a2a6f7c129f3c7184bbdae1c5b5763a4b9b378a6ae11fe7910160405180910390a1505050505050565b60007fffffffff0000000000000000000000000000000000000000000000000000000082167f80ac58cd00000000000000000000000000000000000000000000000000000000148061285c57507fffffffff0000000000000000000000000000000000000000000000000000000082167f5b5e139f00000000000000000000000000000000000000000000000000000000145b8061080557507f01ffc9a7000000000000000000000000000000000000000000000000000000007fffffffff00000000000000000000000000000000000000000000000000000000831614610805565b600081815260046020526040902080547fffffffffffffffffffffffff0000000000000000000000000000000000000000166001600160a01b03841690811790915581906128f9826115bb565b6001600160a01b03167f8c5be1e5ebec7d5bd14f71427d1e84f3dd0314c0f7b2291e5b200ac8c7c3b92560405160405180910390a45050565b60008161295b57506001600160a01b038216600090815260156020526040902060030154610805565b6001600160a01b0383166000908152601560205260409020600181015460029091015483919061298a86611646565b6129949190614024565b61299e9190613faa565b6129b090670de0b6b3a7640000613faa565b6129ba91906143a4565b6001600160a01b0384166000908152601560205260409020600301546123c8919061400c565b60008481526019602090815260408083206001600160a01b03871680855290835281842054888552601884528285209185529252822054670de0b6b3a764000090612a2b8786612932565b612a359190614024565b612a3f9086613faa565b612a4991906143a4565b612a53919061400c565b90505b949350505050565b6000818152600260205260408120546001600160a01b0316612ae85760405162461bcd60e51b815260206004820152602c60248201527f4552433732313a206f70657261746f7220717565727920666f72206e6f6e657860448201527f697374656e7420746f6b656e00000000000000000000000000000000000000006064820152608401610923565b6000612af3836115bb565b9050806001600160a01b0316846001600160a01b03161480612b2e5750836001600160a01b0316612b238461089d565b6001600160a01b0316145b80612a5657506001600160a01b0380821660009081526005602090815260408083209388168352929052205460ff16612a56565b826001600160a01b0316612b75826115bb565b6001600160a01b031614612bf15760405162461bcd60e51b815260206004820152602960248201527f4552433732313a207472616e73666572206f6620746f6b656e2074686174206960448201527f73206e6f74206f776e00000000000000000000000000000000000000000000006064820152608401610923565b6001600160a01b038216612c6c5760405162461bcd60e51b8152602060048201526024808201527f4552433732313a207472616e7366657220746f20746865207a65726f2061646460448201527f72657373000000000000000000000000000000000000000000000000000000006064820152608401610923565b612c7783838361333f565b612c826000826128ac565b6001600160a01b0383166000908152600360205260408120805460019290612cab908490614024565b90915550506001600160a01b0382166000908152600360205260408120805460019290612cd990849061400c565b909155505060008181526002602052604080822080547fffffffffffffffffffffffff0000000000000000000000000000000000000000166001600160a01b0386811691821790925591518493918716917fddf252ad1be2c89b69c2b068fc378daa952ba7f163c4a11628f55a4df523b3ef91a4505050565b6000612d5f84600161400c565b60408051446020820152439181019190915232606090811b7fffffffffffffffffffffffffffffffffffffffff00000000000000000000000016908201523a60748201527fffffffff00000000000000000000000000000000000000000000000000000000841660948201526098810185905260b8016040516020818303038152906040528051906020012060001c612df891906143b8565b612a5690600161400c565b6000818310612e1257816123c8565b5090919050565b600a80546001600160a01b038381167fffffffffffffffffffffffff0000000000000000000000000000000000000000831681179093556040519116919082907f8be0079c531659141344cd1fd0a4f28419497f9722a3daafe3b4186f6b6457e090600090a35050565b6117d08282604051806020016040528060008152506133f7565b60008282602001518360000151612eb49190613faa565b6123c89190613faa565b816001600160a01b0316836001600160a01b03161415612f205760405162461bcd60e51b815260206004820152601960248201527f4552433732313a20617070726f766520746f2063616c6c6572000000000000006044820152606401610923565b6001600160a01b0383811660008181526005602090815260408083209487168084529482529182902080547fffffffffffffffffffffffffffffffffffffffffffffffffffffffffffffff001686151590811790915591519182527f17307eab39ab6107e8899845ad3d59bd9653f200f220920489ca2b5937696c31910160405180910390a3505050565b612fb6848484612b62565b612fc284848484613480565b6121725760405162461bcd60e51b815260206004820152603260248201527f4552433732313a207472616e7366657220746f206e6f6e20455243373231526560448201527f63656976657220696d706c656d656e74657200000000000000000000000000006064820152608401610923565b60608161307457505060408051808201909152600181527f3000000000000000000000000000000000000000000000000000000000000000602082015290565b8160005b811561309e578061308881613e25565b91506130979050600a836143a4565b9150613078565b60008167ffffffffffffffff8111156130b9576130b9613c46565b6040519080825280601f01601f1916602001820160405280156130e3576020820181803683370190505b5090505b8415612a56576130f8600183614024565b9150613105600a866143b8565b61311090603061400c565b60f81b81838151811061312557613125613dc7565b60200101907effffffffffffffffffffffffffffffffffffffffffffffffffffffffffffff1916908160001a90535061315f600a866143a4565b94506130e7565b606081516000141561318657505060408051602081019091526000815290565b600060405180606001604052806040815260200161445560409139905060006003845160026131b5919061400c565b6131bf91906143a4565b6131ca906004613faa565b905060006131d982602061400c565b67ffffffffffffffff8111156131f1576131f1613c46565b6040519080825280601f01601f19166020018201604052801561321b576020820181803683370190505b509050818152600183018586518101602084015b81831015613287576003830192508251603f8160121c168501518253600182019150603f81600c1c168501518253600182019150603f8160061c168501518253600182019150603f811685015182535060010161322f565b6003895106600181146132a157600281146132eb57613331565b7f3d3d0000000000000000000000000000000000000000000000000000000000007ffffffffffffffffffffffffffffffffffffffffffffffffffffffffffffffffe830152613331565b7f3d000000000000000000000000000000000000000000000000000000000000007fffffffffffffffffffffffffffffffffffffffffffffffffffffffffffffffff8301525b509398975050505050505050565b6001600160a01b03831661339a5761339581600880546000838152600960205260408120829055600182018355919091527ff3f7a9fe364faab93b216da50a3214154f22a0a2b415b23a84c8169e8b636ee30155565b6133bd565b816001600160a01b0316836001600160a01b0316146133bd576133bd8382613648565b6001600160a01b0382166133d457610a75816136e5565b826001600160a01b0316826001600160a01b031614610a7557610a758282613794565b61340183836137d8565b61340e6000848484613480565b610a755760405162461bcd60e51b815260206004820152603260248201527f4552433732313a207472616e7366657220746f206e6f6e20455243373231526560448201527f63656976657220696d706c656d656e74657200000000000000000000000000006064820152608401610923565b60006001600160a01b0384163b15613640576040517f150b7a020000000000000000000000000000000000000000000000000000000081526001600160a01b0385169063150b7a02906134dd9033908990889088906004016143cc565b602060405180830381600087803b1580156134f757600080fd5b505af1925050508015613545575060408051601f3d9081017fffffffffffffffffffffffffffffffffffffffffffffffffffffffffffffffe016820190925261354291810190614408565b60015b6135f5573d808015613573576040519150601f19603f3d011682016040523d82523d6000602084013e613578565b606091505b5080516135ed5760405162461bcd60e51b815260206004820152603260248201527f4552433732313a207472616e7366657220746f206e6f6e20455243373231526560448201527f63656976657220696d706c656d656e74657200000000000000000000000000006064820152608401610923565b805181602001fd5b7fffffffff00000000000000000000000000000000000000000000000000000000167f150b7a0200000000000000000000000000000000000000000000000000000000149050612a56565b506001612a56565b60006001613655846117d4565b61365f9190614024565b6000838152600760205260409020549091508082146136b2576001600160a01b03841660009081526006602090815260408083208584528252808320548484528184208190558352600790915290208190555b5060009182526007602090815260408084208490556001600160a01b039094168352600681528383209183525290812055565b6008546000906136f790600190614024565b6000838152600960205260408120546008805493945090928490811061371f5761371f613dc7565b90600052602060002001549050806008838154811061374057613740613dc7565b600091825260208083209091019290925582815260099091526040808220849055858252812055600880548061377857613778614425565b6001900381819060005260206000200160009055905550505050565b600061379f836117d4565b6001600160a01b039093166000908152600660209081526040808320868452825280832085905593825260079052919091209190915550565b6001600160a01b03821661382e5760405162461bcd60e51b815260206004820181905260248201527f4552433732313a206d696e7420746f20746865207a65726f20616464726573736044820152606401610923565b6000818152600260205260409020546001600160a01b0316156138935760405162461bcd60e51b815260206004820152601c60248201527f4552433732313a20746f6b656e20616c7265616479206d696e746564000000006044820152606401610923565b61389f6000838361333f565b6001600160a01b03821660009081526003602052604081208054600192906138c890849061400c565b909155505060008181526002602052604080822080547fffffffffffffffffffffffff0000000000000000000000000000000000000000166001600160a01b03861690811790915590518392907fddf252ad1be2c89b69c2b068fc378daa952ba7f163c4a11628f55a4df523b3ef908290a45050565b50805460008255600402906000526020600020908101906124ae91905b808211156139835760008082556001820181905560028201819055600382015560040161395b565b5090565b7fffffffff00000000000000000000000000000000000000000000000000000000811681146124ae57600080fd5b6000602082840312156139c757600080fd5b81356123c881613987565b60005b838110156139ed5781810151838201526020016139d5565b838111156121725750506000910152565b60008151808452613a168160208601602086016139d2565b601f017fffffffffffffffffffffffffffffffffffffffffffffffffffffffffffffffe0169290920160200192915050565b6020815260006123c860208301846139fe565b600060208284031215613a6d57600080fd5b5035919050565b6001600160a01b03811681146124ae57600080fd5b60008060408385031215613a9c57600080fd5b8235613aa781613a74565b946020939093013593505050565b600080600060608486031215613aca57600080fd5b8335613ad581613a74565b92506020840135613ae581613a74565b929592945050506040919091013590565b60008060408385031215613b0957600080fd5b50508035926020909101359150565b60008060408385031215613b2b57600080fd5b8235613b3681613a74565b91506020830135613b4681613a74565b809150509250929050565b600060208284031215613b6357600080fd5b81356123c881613a74565b600080600060608486031215613b8357600080fd5b505081359360208301359350604090920135919050565b80151581146124ae57600080fd5b600080600060608486031215613bbd57600080fd5b8335613bc881613a74565b92506020840135613bd881613a74565b91506040840135613be881613b9a565b809150509250925092565b60008060408385031215613c0657600080fd5b8235613c1181613a74565b91506020830135613b4681613b9a565b60008060408385031215613c3457600080fd5b823591506020830135613b4681613a74565b7f4e487b7100000000000000000000000000000000000000000000000000000000600052604160045260246000fd5b60008060008060808587031215613c8b57600080fd5b8435613c9681613a74565b93506020850135613ca681613a74565b925060408501359150606085013567ffffffffffffffff80821115613cca57600080fd5b818701915087601f830112613cde57600080fd5b813581811115613cf057613cf0613c46565b604051601f82017fffffffffffffffffffffffffffffffffffffffffffffffffffffffffffffffe0908116603f01168101908382118183101715613d3657613d36613c46565b816040528281528a6020848701011115613d4f57600080fd5b82602086016020830137600060208483010152809550505050505092959194509250565b600181811c90821680613d8757607f821691505b60208210811415613dc1577f4e487b7100000000000000000000000000000000000000000000000000000000600052602260045260246000fd5b50919050565b7f4e487b7100000000000000000000000000000000000000000000000000000000600052603260045260246000fd5b7f4e487b7100000000000000000000000000000000000000000000000000000000600052601160045260246000fd5b60007fffffffffffffffffffffffffffffffffffffffffffffffffffffffffffffffff821415613e5757613e57613df6565b5060010190565b600060208284031215613e7057600080fd5b81516123c881613b9a565b600181815b80851115613ed457817fffffffffffffffffffffffffffffffffffffffffffffffffffffffffffffffff04821115613eba57613eba613df6565b80851615613ec757918102915b93841c9390800290613e80565b509250929050565b600082613eeb57506001610805565b81613ef857506000610805565b8160018114613f0e5760028114613f1857613f34565b6001915050610805565b60ff841115613f2957613f29613df6565b50506001821b610805565b5060208310610133831016604e8410600b8410161715613f57575081810a610805565b613f618383613e7b565b807fffffffffffffffffffffffffffffffffffffffffffffffffffffffffffffffff04821115613f9357613f93613df6565b029392505050565b60006123c860ff841683613edc565b6000817fffffffffffffffffffffffffffffffffffffffffffffffffffffffffffffffff0483118215151615613fe257613fe2613df6565b500290565b600060ff821660ff84168060ff0382111561400457614004613df6565b019392505050565b6000821982111561401f5761401f613df6565b500190565b60008282101561403657614036613df6565b500390565b6000815161404d8185602086016139d2565b9290920192915050565b7f534143524544204245415354202300000000000000000000000000000000000081526000825161408f81600e8501602087016139d2565b91909101600e0192915050565b600084516140ae8184602089016139d2565b80830190507f2f0000000000000000000000000000000000000000000000000000000000000080825285516140ea816001850160208a016139d2565b600192019182015283516141058160028401602088016139d2565b7f2e706e67000000000000000000000000000000000000000000000000000000006002929091019182015260060195945050505050565b7f7b226e616d65223a220000000000000000000000000000000000000000000000815260008651614174816009850160208b016139d2565b7f222c20226465736372697074696f6e223a2253616372656420426561737420696009918401918201527f7320746865206d797374686963616c206265617374206f6620455645524d4f4f60298201527f4e20776f726c642e2049742063616e20636f6e73756d6520455645524d4f4f4e60498201527f20546f6b656e20666f722065787020616e6420676574207374726f6e6765722e60698201527f222c2022657870223a220000000000000000000000000000000000000000000060898201528651614249816093840160208b016139d2565b7f222c202265766f6c466f726d223a2200000000000000000000000000000000006093929091019182015285516142878160a2840160208a016139d2565b6143236142fa6142f46142cb6142c560a2868801017f222c202272616365223a220000000000000000000000000000000000000000008152600b0190565b8a61403b565b7f222c2022696d616765223a2022000000000000000000000000000000000000008152600d0190565b8761403b565b7f227d000000000000000000000000000000000000000000000000000000000000815260020190565b9998505050505050505050565b7f646174613a6170706c69636174696f6e2f6a736f6e3b6261736536342c00000081526000825161436881601d8501602087016139d2565b91909101601d0192915050565b7f4e487b7100000000000000000000000000000000000000000000000000000000600052601260045260246000fd5b6000826143b3576143b3614375565b500490565b6000826143c7576143c7614375565b500690565b60006001600160a01b038087168352808616602084015250836040830152608060608301526143fe60808301846139fe565b9695505050505050565b60006020828403121561441a57600080fd5b81516123c881613987565b7f4e487b7100000000000000000000000000000000000000000000000000000000600052603160045260246000fdfe4142434445464748494a4b4c4d4e4f505152535455565758595a6162636465666768696a6b6c6d6e6f707172737475767778797a303132333435363738392b2fa2646970667358221220f0a3112b4c282b3fc157c2e6b84f73d240527f019460b8c50e79369e5f55113864736f6c63430008090033",
  "devdoc": {
    "kind": "dev",
    "methods": {
      "approve(address,uint256)": {
        "details": "See {IERC721-approve}."
      },
      "balanceOf(address)": {
        "details": "See {IERC721-balanceOf}."
      },
      "getApproved(uint256)": {
        "details": "See {IERC721-getApproved}."
      },
      "isApprovedForAll(address,address)": {
        "details": "See {IERC721-isApprovedForAll}."
      },
      "name()": {
        "details": "See {IERC721Metadata-name}."
      },
      "owner()": {
        "details": "Returns the address of the current owner."
      },
      "ownerOf(uint256)": {
        "details": "See {IERC721-ownerOf}."
      },
      "renounceOwnership()": {
        "details": "Leaves the contract without owner. It will not be possible to call `onlyOwner` functions anymore. Can only be called by the current owner. NOTE: Renouncing ownership will leave the contract without an owner, thereby removing any functionality that is only available to the owner."
      },
      "safeTransferFrom(address,address,uint256)": {
        "details": "See {IERC721-safeTransferFrom}."
      },
      "safeTransferFrom(address,address,uint256,bytes)": {
        "details": "See {IERC721-safeTransferFrom}."
      },
      "setApprovalForAll(address,bool)": {
        "details": "See {IERC721-setApprovalForAll}."
      },
      "supportsInterface(bytes4)": {
        "details": "See {IERC165-supportsInterface}."
      },
      "symbol()": {
        "details": "See {IERC721Metadata-symbol}."
      },
      "tokenByIndex(uint256)": {
        "details": "See {IERC721Enumerable-tokenByIndex}."
      },
      "tokenOfOwnerByIndex(address,uint256)": {
        "details": "See {IERC721Enumerable-tokenOfOwnerByIndex}."
      },
      "totalSupply()": {
        "details": "See {IERC721Enumerable-totalSupply}."
      },
      "transferFrom(address,address,uint256)": {
        "details": "See {IERC721-transferFrom}."
      },
      "transferOwnership(address)": {
        "details": "Transfers ownership of the contract to a new account (`newOwner`). Can only be called by the current owner."
      }
    },
    "version": 1
  },
  "userdoc": {
    "kind": "user",
    "methods": {},
    "version": 1
  },
  "storageLayout": {
    "storage": [
      {
        "astId": 248,
        "contract": "contracts/SacredBeast.sol:SacredBeast",
        "label": "_name",
        "offset": 0,
        "slot": "0",
        "type": "t_string_storage"
      },
      {
        "astId": 250,
        "contract": "contracts/SacredBeast.sol:SacredBeast",
        "label": "_symbol",
        "offset": 0,
        "slot": "1",
        "type": "t_string_storage"
      },
      {
        "astId": 254,
        "contract": "contracts/SacredBeast.sol:SacredBeast",
        "label": "_owners",
        "offset": 0,
        "slot": "2",
        "type": "t_mapping(t_uint256,t_address)"
      },
      {
        "astId": 258,
        "contract": "contracts/SacredBeast.sol:SacredBeast",
        "label": "_balances",
        "offset": 0,
        "slot": "3",
        "type": "t_mapping(t_address,t_uint256)"
      },
      {
        "astId": 262,
        "contract": "contracts/SacredBeast.sol:SacredBeast",
        "label": "_tokenApprovals",
        "offset": 0,
        "slot": "4",
        "type": "t_mapping(t_uint256,t_address)"
      },
      {
        "astId": 268,
        "contract": "contracts/SacredBeast.sol:SacredBeast",
        "label": "_operatorApprovals",
        "offset": 0,
        "slot": "5",
        "type": "t_mapping(t_address,t_mapping(t_address,t_bool))"
      },
      {
        "astId": 1202,
        "contract": "contracts/SacredBeast.sol:SacredBeast",
        "label": "_ownedTokens",
        "offset": 0,
        "slot": "6",
        "type": "t_mapping(t_address,t_mapping(t_uint256,t_uint256))"
      },
      {
        "astId": 1206,
        "contract": "contracts/SacredBeast.sol:SacredBeast",
        "label": "_ownedTokensIndex",
        "offset": 0,
        "slot": "7",
        "type": "t_mapping(t_uint256,t_uint256)"
      },
      {
        "astId": 1209,
        "contract": "contracts/SacredBeast.sol:SacredBeast",
        "label": "_allTokens",
        "offset": 0,
        "slot": "8",
        "type": "t_array(t_uint256)dyn_storage"
      },
      {
        "astId": 1213,
        "contract": "contracts/SacredBeast.sol:SacredBeast",
        "label": "_allTokensIndex",
        "offset": 0,
        "slot": "9",
        "type": "t_mapping(t_uint256,t_uint256)"
      },
      {
        "astId": 7,
        "contract": "contracts/SacredBeast.sol:SacredBeast",
        "label": "_owner",
        "offset": 0,
        "slot": "10",
        "type": "t_address"
      },
      {
        "astId": 115,
        "contract": "contracts/SacredBeast.sol:SacredBeast",
        "label": "_status",
        "offset": 0,
        "slot": "11",
        "type": "t_uint256"
      },
      {
        "astId": 2440,
        "contract": "contracts/SacredBeast.sol:SacredBeast",
        "label": "foodToken",
        "offset": 0,
        "slot": "12",
        "type": "t_contract(IERC20)222"
      },
      {
        "astId": 2442,
        "contract": "contracts/SacredBeast.sol:SacredBeast",
        "label": "seller",
        "offset": 0,
        "slot": "13",
        "type": "t_address_payable"
      },
      {
        "astId": 2445,
        "contract": "contracts/SacredBeast.sol:SacredBeast",
        "label": "MAX_SUPPLY",
        "offset": 0,
        "slot": "14",
        "type": "t_uint256"
      },
      {
        "astId": 2448,
        "contract": "contracts/SacredBeast.sol:SacredBeast",
        "label": "PRICE_PER_UNIT",
        "offset": 0,
        "slot": "15",
        "type": "t_uint256"
      },
      {
        "astId": 2491,
        "contract": "contracts/SacredBeast.sol:SacredBeast",
        "label": "nft",
        "offset": 0,
        "slot": "16",
        "type": "t_mapping(t_uint256,t_struct(BeastInfo)2468_storage)"
      },
      {
        "astId": 2493,
        "contract": "contracts/SacredBeast.sol:SacredBeast",
        "label": "totalERC20Supply",
        "offset": 0,
        "slot": "17",
        "type": "t_uint256"
      },
      {
        "astId": 2495,
        "contract": "contracts/SacredBeast.sol:SacredBeast",
        "label": "lockedSupply",
        "offset": 0,
        "slot": "18",
        "type": "t_uint256"
      },
      {
        "astId": 2499,
        "contract": "contracts/SacredBeast.sol:SacredBeast",
        "label": "minters",
        "offset": 0,
        "slot": "19",
        "type": "t_mapping(t_address,t_bool)"
      },
      {
        "astId": 2502,
        "contract": "contracts/SacredBeast.sol:SacredBeast",
        "label": "rewardTokens",
        "offset": 0,
        "slot": "20",
        "type": "t_array(t_address)dyn_storage"
      },
      {
        "astId": 2507,
        "contract": "contracts/SacredBeast.sol:SacredBeast",
        "label": "rewardData",
        "offset": 0,
        "slot": "21",
        "type": "t_mapping(t_address,t_struct(Reward)2486_storage)"
      },
      {
        "astId": 2518,
        "contract": "contracts/SacredBeast.sol:SacredBeast",
        "label": "rewardDistributors",
        "offset": 0,
        "slot": "22",
        "type": "t_mapping(t_address,t_mapping(t_address,t_bool))"
      },
      {
        "astId": 2522,
        "contract": "contracts/SacredBeast.sol:SacredBeast",
        "label": "lockChoices",
        "offset": 0,
        "slot": "23",
        "type": "t_array(t_struct(LockChoice)2453_storage)dyn_storage"
      },
      {
        "astId": 2528,
        "contract": "contracts/SacredBeast.sol:SacredBeast",
        "label": "nftRewardPerTokenPaid",
        "offset": 0,
        "slot": "24",
        "type": "t_mapping(t_uint256,t_mapping(t_address,t_uint256))"
      },
      {
        "astId": 2534,
        "contract": "contracts/SacredBeast.sol:SacredBeast",
        "label": "rewards",
        "offset": 0,
        "slot": "25",
        "type": "t_mapping(t_uint256,t_mapping(t_address,t_uint256))"
      },
      {
        "astId": 2540,
        "contract": "contracts/SacredBeast.sol:SacredBeast",
        "label": "nftLocks",
        "offset": 0,
        "slot": "26",
        "type": "t_mapping(t_uint256,t_array(t_struct(LockedInfo)2461_storage)dyn_storage)"
      },
      {
        "astId": 2545,
        "contract": "contracts/SacredBeast.sol:SacredBeast",
        "label": "balances",
        "offset": 0,
        "slot": "27",
        "type": "t_mapping(t_uint256,t_struct(Balances)2477_storage)"
      },
      {
        "astId": 2547,
        "contract": "contracts/SacredBeast.sol:SacredBeast",
        "label": "_paused",
        "offset": 0,
        "slot": "28",
        "type": "t_bool"
      }
    ],
    "types": {
      "t_address": {
        "encoding": "inplace",
        "label": "address",
        "numberOfBytes": "20"
      },
      "t_address_payable": {
        "encoding": "inplace",
        "label": "address payable",
        "numberOfBytes": "20"
      },
      "t_array(t_address)dyn_storage": {
        "base": "t_address",
        "encoding": "dynamic_array",
        "label": "address[]",
        "numberOfBytes": "32"
      },
      "t_array(t_struct(LockChoice)2453_storage)dyn_storage": {
        "base": "t_struct(LockChoice)2453_storage",
        "encoding": "dynamic_array",
        "label": "struct SacredBeast.LockChoice[]",
        "numberOfBytes": "32"
      },
      "t_array(t_struct(LockedInfo)2461_storage)dyn_storage": {
        "base": "t_struct(LockedInfo)2461_storage",
        "encoding": "dynamic_array",
        "label": "struct SacredBeast.LockedInfo[]",
        "numberOfBytes": "32"
      },
      "t_array(t_uint256)dyn_storage": {
        "base": "t_uint256",
        "encoding": "dynamic_array",
        "label": "uint256[]",
        "numberOfBytes": "32"
      },
      "t_bool": {
        "encoding": "inplace",
        "label": "bool",
        "numberOfBytes": "1"
      },
      "t_contract(IERC20)222": {
        "encoding": "inplace",
        "label": "contract IERC20",
        "numberOfBytes": "20"
      },
      "t_mapping(t_address,t_bool)": {
        "encoding": "mapping",
        "key": "t_address",
        "label": "mapping(address => bool)",
        "numberOfBytes": "32",
        "value": "t_bool"
      },
      "t_mapping(t_address,t_mapping(t_address,t_bool))": {
        "encoding": "mapping",
        "key": "t_address",
        "label": "mapping(address => mapping(address => bool))",
        "numberOfBytes": "32",
        "value": "t_mapping(t_address,t_bool)"
      },
      "t_mapping(t_address,t_mapping(t_uint256,t_uint256))": {
        "encoding": "mapping",
        "key": "t_address",
        "label": "mapping(address => mapping(uint256 => uint256))",
        "numberOfBytes": "32",
        "value": "t_mapping(t_uint256,t_uint256)"
      },
      "t_mapping(t_address,t_struct(Reward)2486_storage)": {
        "encoding": "mapping",
        "key": "t_address",
        "label": "mapping(address => struct SacredBeast.Reward)",
        "numberOfBytes": "32",
        "value": "t_struct(Reward)2486_storage"
      },
      "t_mapping(t_address,t_uint256)": {
        "encoding": "mapping",
        "key": "t_address",
        "label": "mapping(address => uint256)",
        "numberOfBytes": "32",
        "value": "t_uint256"
      },
      "t_mapping(t_uint256,t_address)": {
        "encoding": "mapping",
        "key": "t_uint256",
        "label": "mapping(uint256 => address)",
        "numberOfBytes": "32",
        "value": "t_address"
      },
      "t_mapping(t_uint256,t_array(t_struct(LockedInfo)2461_storage)dyn_storage)": {
        "encoding": "mapping",
        "key": "t_uint256",
        "label": "mapping(uint256 => struct SacredBeast.LockedInfo[])",
        "numberOfBytes": "32",
        "value": "t_array(t_struct(LockedInfo)2461_storage)dyn_storage"
      },
      "t_mapping(t_uint256,t_mapping(t_address,t_uint256))": {
        "encoding": "mapping",
        "key": "t_uint256",
        "label": "mapping(uint256 => mapping(address => uint256))",
        "numberOfBytes": "32",
        "value": "t_mapping(t_address,t_uint256)"
      },
      "t_mapping(t_uint256,t_struct(Balances)2477_storage)": {
        "encoding": "mapping",
        "key": "t_uint256",
        "label": "mapping(uint256 => struct SacredBeast.Balances)",
        "numberOfBytes": "32",
        "value": "t_struct(Balances)2477_storage"
      },
      "t_mapping(t_uint256,t_struct(BeastInfo)2468_storage)": {
        "encoding": "mapping",
        "key": "t_uint256",
        "label": "mapping(uint256 => struct SacredBeast.BeastInfo)",
        "numberOfBytes": "32",
        "value": "t_struct(BeastInfo)2468_storage"
      },
      "t_mapping(t_uint256,t_uint256)": {
        "encoding": "mapping",
        "key": "t_uint256",
        "label": "mapping(uint256 => uint256)",
        "numberOfBytes": "32",
        "value": "t_uint256"
      },
      "t_string_storage": {
        "encoding": "bytes",
        "label": "string",
        "numberOfBytes": "32"
      },
      "t_struct(Balances)2477_storage": {
        "encoding": "inplace",
        "label": "struct SacredBeast.Balances",
        "members": [
          {
            "astId": 2470,
            "contract": "contracts/SacredBeast.sol:SacredBeast",
            "label": "total",
            "offset": 0,
            "slot": "0",
            "type": "t_uint256"
          },
          {
            "astId": 2472,
            "contract": "contracts/SacredBeast.sol:SacredBeast",
            "label": "unlocked",
            "offset": 0,
            "slot": "1",
            "type": "t_uint256"
          },
          {
            "astId": 2474,
            "contract": "contracts/SacredBeast.sol:SacredBeast",
            "label": "locked",
            "offset": 0,
            "slot": "2",
            "type": "t_uint256"
          },
          {
            "astId": 2476,
            "contract": "contracts/SacredBeast.sol:SacredBeast",
            "label": "earned",
            "offset": 0,
            "slot": "3",
            "type": "t_uint256"
          }
        ],
        "numberOfBytes": "128"
      },
      "t_struct(BeastInfo)2468_storage": {
        "encoding": "inplace",
        "label": "struct SacredBeast.BeastInfo",
        "members": [
          {
            "astId": 2463,
            "contract": "contracts/SacredBeast.sol:SacredBeast",
            "label": "evolForm",
            "offset": 0,
            "slot": "0",
            "type": "t_uint8"
          },
          {
            "astId": 2465,
            "contract": "contracts/SacredBeast.sol:SacredBeast",
            "label": "race",
            "offset": 1,
            "slot": "0",
            "type": "t_uint8"
          },
          {
            "astId": 2467,
            "contract": "contracts/SacredBeast.sol:SacredBeast",
            "label": "exp",
            "offset": 0,
            "slot": "1",
            "type": "t_uint256"
          }
        ],
        "numberOfBytes": "64"
      },
      "t_struct(LockChoice)2453_storage": {
        "encoding": "inplace",
        "label": "struct SacredBeast.LockChoice",
        "members": [
          {
            "astId": 2450,
            "contract": "contracts/SacredBeast.sol:SacredBeast",
            "label": "duration",
            "offset": 0,
            "slot": "0",
            "type": "t_uint256"
          },
          {
            "astId": 2452,
            "contract": "contracts/SacredBeast.sol:SacredBeast",
            "label": "multiplier",
            "offset": 0,
            "slot": "1",
            "type": "t_uint256"
          }
        ],
        "numberOfBytes": "64"
      },
      "t_struct(LockedInfo)2461_storage": {
        "encoding": "inplace",
        "label": "struct SacredBeast.LockedInfo",
        "members": [
          {
            "astId": 2455,
            "contract": "contracts/SacredBeast.sol:SacredBeast",
            "label": "amount",
            "offset": 0,
            "slot": "0",
            "type": "t_uint256"
          },
          {
            "astId": 2457,
            "contract": "contracts/SacredBeast.sol:SacredBeast",
            "label": "unlockTime",
            "offset": 0,
            "slot": "1",
            "type": "t_uint256"
          },
          {
            "astId": 2460,
            "contract": "contracts/SacredBeast.sol:SacredBeast",
            "label": "lockChoice",
            "offset": 0,
            "slot": "2",
            "type": "t_struct(LockChoice)2453_storage"
          }
        ],
        "numberOfBytes": "128"
      },
      "t_struct(Reward)2486_storage": {
        "encoding": "inplace",
        "label": "struct SacredBeast.Reward",
        "members": [
          {
            "astId": 2479,
            "contract": "contracts/SacredBeast.sol:SacredBeast",
            "label": "periodFinish",
            "offset": 0,
            "slot": "0",
            "type": "t_uint256"
          },
          {
            "astId": 2481,
            "contract": "contracts/SacredBeast.sol:SacredBeast",
            "label": "rewardRate",
            "offset": 0,
            "slot": "1",
            "type": "t_uint256"
          },
          {
            "astId": 2483,
            "contract": "contracts/SacredBeast.sol:SacredBeast",
            "label": "lastUpdateTime",
            "offset": 0,
            "slot": "2",
            "type": "t_uint256"
          },
          {
            "astId": 2485,
            "contract": "contracts/SacredBeast.sol:SacredBeast",
            "label": "rewardPerTokenStored",
            "offset": 0,
            "slot": "3",
            "type": "t_uint256"
          }
        ],
        "numberOfBytes": "128"
      },
      "t_uint256": {
        "encoding": "inplace",
        "label": "uint256",
        "numberOfBytes": "32"
      },
      "t_uint8": {
        "encoding": "inplace",
        "label": "uint8",
        "numberOfBytes": "1"
      }
    }
  }
}