{
  "address": "0xFd32D87F7bb527c98f95E0cb5825C51B6dE25552",
  "abi": [
    {
      "inputs": [
        {
          "internalType": "contract IERC20",
          "name": "_foodToken",
          "type": "address"
        },
        {
          "internalType": "address payable",
          "name": "_seller",
          "type": "address"
        }
      ],
      "stateMutability": "nonpayable",
      "type": "constructor"
    },
    {
      "anonymous": false,
      "inputs": [
        {
          "indexed": true,
          "internalType": "address",
          "name": "owner",
          "type": "address"
        },
        {
          "indexed": true,
          "internalType": "address",
          "name": "approved",
          "type": "address"
        },
        {
          "indexed": true,
          "internalType": "uint256",
          "name": "tokenId",
          "type": "uint256"
        }
      ],
      "name": "Approval",
      "type": "event"
    },
    {
      "anonymous": false,
      "inputs": [
        {
          "indexed": true,
          "internalType": "address",
          "name": "owner",
          "type": "address"
        },
        {
          "indexed": true,
          "internalType": "address",
          "name": "operator",
          "type": "address"
        },
        {
          "indexed": false,
          "internalType": "bool",
          "name": "approved",
          "type": "bool"
        }
      ],
      "name": "ApprovalForAll",
      "type": "event"
    },
    {
      "anonymous": false,
      "inputs": [
        {
          "indexed": false,
          "internalType": "uint256",
          "name": "tokenId",
          "type": "uint256"
        },
        {
          "indexed": false,
          "internalType": "uint256",
          "name": "amount",
          "type": "uint256"
        },
        {
          "indexed": false,
          "internalType": "uint256",
          "name": "unlockTime",
          "type": "uint256"
        },
        {
          "components": [
            {
              "internalType": "uint256",
              "name": "duration",
              "type": "uint256"
            },
            {
              "internalType": "uint256",
              "name": "multiplier",
              "type": "uint256"
            },
            {
              "internalType": "uint256",
              "name": "penalty",
              "type": "uint256"
            }
          ],
          "indexed": false,
          "internalType": "struct SacredBeast.LockChoice",
          "name": "choice",
          "type": "tuple"
        }
      ],
      "name": "Feed",
      "type": "event"
    },
    {
      "anonymous": false,
      "inputs": [
        {
          "indexed": true,
          "internalType": "address",
          "name": "previousOwner",
          "type": "address"
        },
        {
          "indexed": true,
          "internalType": "address",
          "name": "newOwner",
          "type": "address"
        }
      ],
      "name": "OwnershipTransferred",
      "type": "event"
    },
    {
      "anonymous": false,
      "inputs": [
        {
          "indexed": false,
          "internalType": "uint256",
          "name": "tokenId",
          "type": "uint256"
        },
        {
          "indexed": false,
          "internalType": "uint256",
          "name": "amount",
          "type": "uint256"
        }
      ],
      "name": "Reclaim",
      "type": "event"
    },
    {
      "anonymous": false,
      "inputs": [
        {
          "indexed": false,
          "internalType": "address",
          "name": "claimer",
          "type": "address"
        },
        {
          "indexed": false,
          "internalType": "address",
          "name": "rewardToken",
          "type": "address"
        },
        {
          "indexed": false,
          "internalType": "uint256",
          "name": "reward",
          "type": "uint256"
        }
      ],
      "name": "RewardPaid",
      "type": "event"
    },
    {
      "anonymous": false,
      "inputs": [
        {
          "indexed": true,
          "internalType": "address",
          "name": "from",
          "type": "address"
        },
        {
          "indexed": true,
          "internalType": "address",
          "name": "to",
          "type": "address"
        },
        {
          "indexed": true,
          "internalType": "uint256",
          "name": "tokenId",
          "type": "uint256"
        }
      ],
      "name": "Transfer",
      "type": "event"
    },
    {
      "inputs": [
        {
          "internalType": "uint256",
          "name": "_duration",
          "type": "uint256"
        },
        {
          "internalType": "uint256",
          "name": "_multiplier",
          "type": "uint256"
        },
        {
          "internalType": "uint256",
          "name": "_penalty",
          "type": "uint256"
        }
      ],
      "name": "AddlockChoice",
      "outputs": [],
      "stateMutability": "nonpayable",
      "type": "function"
    },
    {
      "inputs": [],
      "name": "MAX_SUPPLY",
      "outputs": [
        {
          "internalType": "uint256",
          "name": "",
          "type": "uint256"
        }
      ],
      "stateMutability": "view",
      "type": "function"
    },
    {
      "inputs": [],
      "name": "PRICE_PER_UNIT",
      "outputs": [
        {
          "internalType": "uint256",
          "name": "",
          "type": "uint256"
        }
      ],
      "stateMutability": "view",
      "type": "function"
    },
    {
      "inputs": [
        {
          "internalType": "uint256",
          "name": "_lockIndex",
          "type": "uint256"
        },
        {
          "internalType": "uint256",
          "name": "_duration",
          "type": "uint256"
        },
        {
          "internalType": "uint256",
          "name": "_multiplier",
          "type": "uint256"
        },
        {
          "internalType": "uint256",
          "name": "_penalty",
          "type": "uint256"
        }
      ],
      "name": "SetLockChoice",
      "outputs": [],
      "stateMutability": "nonpayable",
      "type": "function"
    },
    {
      "inputs": [
        {
          "internalType": "address",
          "name": "_rewardsToken",
          "type": "address"
        },
        {
          "internalType": "address",
          "name": "_distributor",
          "type": "address"
        }
      ],
      "name": "addReward",
      "outputs": [],
      "stateMutability": "nonpayable",
      "type": "function"
    },
    {
      "inputs": [
        {
          "internalType": "address",
          "name": "to",
          "type": "address"
        },
        {
          "internalType": "uint256",
          "name": "tokenId",
          "type": "uint256"
        }
      ],
      "name": "approve",
      "outputs": [],
      "stateMutability": "nonpayable",
      "type": "function"
    },
    {
      "inputs": [
        {
          "internalType": "address",
          "name": "_rewardsToken",
          "type": "address"
        },
        {
          "internalType": "address",
          "name": "_distributor",
          "type": "address"
        },
        {
          "internalType": "bool",
          "name": "_approved",
          "type": "bool"
        }
      ],
      "name": "approveRewardDistributor",
      "outputs": [],
      "stateMutability": "nonpayable",
      "type": "function"
    },
    {
      "inputs": [
        {
          "internalType": "address",
          "name": "owner",
          "type": "address"
        }
      ],
      "name": "balanceOf",
      "outputs": [
        {
          "internalType": "uint256",
          "name": "",
          "type": "uint256"
        }
      ],
      "stateMutability": "view",
      "type": "function"
    },
    {
      "inputs": [
        {
          "internalType": "uint256",
          "name": "_tokenId",
          "type": "uint256"
        }
      ],
      "name": "evolutionNFT",
      "outputs": [],
      "stateMutability": "nonpayable",
      "type": "function"
    },
    {
      "inputs": [
        {
          "internalType": "uint256",
          "name": "_tokenId",
          "type": "uint256"
        },
        {
          "internalType": "uint256",
          "name": "_amount",
          "type": "uint256"
        },
        {
          "internalType": "uint256",
          "name": "_lockIndex",
          "type": "uint256"
        }
      ],
      "name": "feed",
      "outputs": [],
      "stateMutability": "nonpayable",
      "type": "function"
    },
    {
      "inputs": [
        {
          "internalType": "uint256",
          "name": "tokenId",
          "type": "uint256"
        }
      ],
      "name": "getApproved",
      "outputs": [
        {
          "internalType": "address",
          "name": "",
          "type": "address"
        }
      ],
      "stateMutability": "view",
      "type": "function"
    },
    {
      "inputs": [
        {
          "internalType": "uint256",
          "name": "_tokenId",
          "type": "uint256"
        }
      ],
      "name": "getReward",
      "outputs": [],
      "stateMutability": "nonpayable",
      "type": "function"
    },
    {
      "inputs": [
        {
          "internalType": "address",
          "name": "_rewardsToken",
          "type": "address"
        }
      ],
      "name": "getRewardForDuration",
      "outputs": [
        {
          "internalType": "uint256",
          "name": "",
          "type": "uint256"
        }
      ],
      "stateMutability": "view",
      "type": "function"
    },
    {
      "inputs": [
        {
          "internalType": "address",
          "name": "owner",
          "type": "address"
        },
        {
          "internalType": "address",
          "name": "operator",
          "type": "address"
        }
      ],
      "name": "isApprovedForAll",
      "outputs": [
        {
          "internalType": "bool",
          "name": "",
          "type": "bool"
        }
      ],
      "stateMutability": "view",
      "type": "function"
    },
    {
      "inputs": [
        {
          "internalType": "address",
          "name": "_rewardsToken",
          "type": "address"
        }
      ],
      "name": "lastTimeRewardApplicable",
      "outputs": [
        {
          "internalType": "uint256",
          "name": "",
          "type": "uint256"
        }
      ],
      "stateMutability": "view",
      "type": "function"
    },
    {
      "inputs": [
        {
          "internalType": "uint256",
          "name": "",
          "type": "uint256"
        }
      ],
      "name": "lockChoices",
      "outputs": [
        {
          "internalType": "uint256",
          "name": "duration",
          "type": "uint256"
        },
        {
          "internalType": "uint256",
          "name": "multiplier",
          "type": "uint256"
        },
        {
          "internalType": "uint256",
          "name": "penalty",
          "type": "uint256"
        }
      ],
      "stateMutability": "view",
      "type": "function"
    },
    {
      "inputs": [],
      "name": "lockedSupply",
      "outputs": [
        {
          "internalType": "uint256",
          "name": "",
          "type": "uint256"
        }
      ],
      "stateMutability": "view",
      "type": "function"
    },
    {
      "inputs": [
        {
          "internalType": "uint256",
          "name": "_numberOfTokens",
          "type": "uint256"
        }
      ],
      "name": "mintBeast",
      "outputs": [],
      "stateMutability": "nonpayable",
      "type": "function"
    },
    {
      "inputs": [],
      "name": "name",
      "outputs": [
        {
          "internalType": "string",
          "name": "",
          "type": "string"
        }
      ],
      "stateMutability": "view",
      "type": "function"
    },
    {
      "inputs": [
        {
          "internalType": "uint256",
          "name": "",
          "type": "uint256"
        }
      ],
      "name": "nft",
      "outputs": [
        {
          "internalType": "uint8",
          "name": "evolForm",
          "type": "uint8"
        },
        {
          "internalType": "uint256",
          "name": "exp",
          "type": "uint256"
        }
      ],
      "stateMutability": "view",
      "type": "function"
    },
    {
      "inputs": [
        {
          "internalType": "uint256",
          "name": "",
          "type": "uint256"
        },
        {
          "internalType": "uint256",
          "name": "",
          "type": "uint256"
        }
      ],
      "name": "nftLocks",
      "outputs": [
        {
          "internalType": "uint256",
          "name": "amount",
          "type": "uint256"
        },
        {
          "internalType": "uint256",
          "name": "unlockTime",
          "type": "uint256"
        },
        {
          "components": [
            {
              "internalType": "uint256",
              "name": "duration",
              "type": "uint256"
            },
            {
              "internalType": "uint256",
              "name": "multiplier",
              "type": "uint256"
            },
            {
              "internalType": "uint256",
              "name": "penalty",
              "type": "uint256"
            }
          ],
          "internalType": "struct SacredBeast.LockChoice",
          "name": "lockChoice",
          "type": "tuple"
        }
      ],
      "stateMutability": "view",
      "type": "function"
    },
    {
      "inputs": [
        {
          "internalType": "uint256",
          "name": "",
          "type": "uint256"
        },
        {
          "internalType": "address",
          "name": "",
          "type": "address"
        }
      ],
      "name": "nftRewardPerTokenPaid",
      "outputs": [
        {
          "internalType": "uint256",
          "name": "",
          "type": "uint256"
        }
      ],
      "stateMutability": "view",
      "type": "function"
    },
    {
      "inputs": [],
      "name": "owner",
      "outputs": [
        {
          "internalType": "address",
          "name": "",
          "type": "address"
        }
      ],
      "stateMutability": "view",
      "type": "function"
    },
    {
      "inputs": [
        {
          "internalType": "uint256",
          "name": "tokenId",
          "type": "uint256"
        }
      ],
      "name": "ownerOf",
      "outputs": [
        {
          "internalType": "address",
          "name": "",
          "type": "address"
        }
      ],
      "stateMutability": "view",
      "type": "function"
    },
    {
      "inputs": [
        {
          "internalType": "uint256",
          "name": "_tokenId",
          "type": "uint256"
        }
      ],
      "name": "reclaimExpiredLocks",
      "outputs": [],
      "stateMutability": "nonpayable",
      "type": "function"
    },
    {
      "inputs": [
        {
          "internalType": "address",
          "name": "tokenAddress",
          "type": "address"
        },
        {
          "internalType": "uint256",
          "name": "tokenAmount",
          "type": "uint256"
        }
      ],
      "name": "recoverERC20",
      "outputs": [],
      "stateMutability": "nonpayable",
      "type": "function"
    },
    {
      "inputs": [],
      "name": "renounceOwnership",
      "outputs": [],
      "stateMutability": "nonpayable",
      "type": "function"
    },
    {
      "inputs": [
        {
          "internalType": "address",
          "name": "",
          "type": "address"
        }
      ],
      "name": "rewardData",
      "outputs": [
        {
          "internalType": "uint256",
          "name": "periodFinish",
          "type": "uint256"
        },
        {
          "internalType": "uint256",
          "name": "rewardRate",
          "type": "uint256"
        },
        {
          "internalType": "uint256",
          "name": "lastUpdateTime",
          "type": "uint256"
        },
        {
          "internalType": "uint256",
          "name": "rewardPerTokenStored",
          "type": "uint256"
        }
      ],
      "stateMutability": "view",
      "type": "function"
    },
    {
      "inputs": [
        {
          "internalType": "address",
          "name": "",
          "type": "address"
        },
        {
          "internalType": "address",
          "name": "",
          "type": "address"
        }
      ],
      "name": "rewardDistributors",
      "outputs": [
        {
          "internalType": "bool",
          "name": "",
          "type": "bool"
        }
      ],
      "stateMutability": "view",
      "type": "function"
    },
    {
      "inputs": [
        {
          "internalType": "address",
          "name": "_rewardsToken",
          "type": "address"
        }
      ],
      "name": "rewardPerToken",
      "outputs": [
        {
          "internalType": "uint256",
          "name": "",
          "type": "uint256"
        }
      ],
      "stateMutability": "view",
      "type": "function"
    },
    {
      "inputs": [
        {
          "internalType": "uint256",
          "name": "",
          "type": "uint256"
        }
      ],
      "name": "rewardTokens",
      "outputs": [
        {
          "internalType": "address",
          "name": "",
          "type": "address"
        }
      ],
      "stateMutability": "view",
      "type": "function"
    },
    {
      "inputs": [
        {
          "internalType": "uint256",
          "name": "",
          "type": "uint256"
        },
        {
          "internalType": "address",
          "name": "",
          "type": "address"
        }
      ],
      "name": "rewards",
      "outputs": [
        {
          "internalType": "uint256",
          "name": "",
          "type": "uint256"
        }
      ],
      "stateMutability": "view",
      "type": "function"
    },
    {
      "inputs": [],
      "name": "rewardsDuration",
      "outputs": [
        {
          "internalType": "uint256",
          "name": "",
          "type": "uint256"
        }
      ],
      "stateMutability": "view",
      "type": "function"
    },
    {
      "inputs": [
        {
          "internalType": "address",
          "name": "from",
          "type": "address"
        },
        {
          "internalType": "address",
          "name": "to",
          "type": "address"
        },
        {
          "internalType": "uint256",
          "name": "tokenId",
          "type": "uint256"
        }
      ],
      "name": "safeTransferFrom",
      "outputs": [],
      "stateMutability": "nonpayable",
      "type": "function"
    },
    {
      "inputs": [
        {
          "internalType": "address",
          "name": "from",
          "type": "address"
        },
        {
          "internalType": "address",
          "name": "to",
          "type": "address"
        },
        {
          "internalType": "uint256",
          "name": "tokenId",
          "type": "uint256"
        },
        {
          "internalType": "bytes",
          "name": "_data",
          "type": "bytes"
        }
      ],
      "name": "safeTransferFrom",
      "outputs": [],
      "stateMutability": "nonpayable",
      "type": "function"
    },
    {
      "inputs": [],
      "name": "seller",
      "outputs": [
        {
          "internalType": "address payable",
          "name": "",
          "type": "address"
        }
      ],
      "stateMutability": "view",
      "type": "function"
    },
    {
      "inputs": [
        {
          "internalType": "address",
          "name": "operator",
          "type": "address"
        },
        {
          "internalType": "bool",
          "name": "approved",
          "type": "bool"
        }
      ],
      "name": "setApprovalForAll",
      "outputs": [],
      "stateMutability": "nonpayable",
      "type": "function"
    },
    {
      "inputs": [
        {
          "internalType": "bytes4",
          "name": "interfaceId",
          "type": "bytes4"
        }
      ],
      "name": "supportsInterface",
      "outputs": [
        {
          "internalType": "bool",
          "name": "",
          "type": "bool"
        }
      ],
      "stateMutability": "view",
      "type": "function"
    },
    {
      "inputs": [],
      "name": "symbol",
      "outputs": [
        {
          "internalType": "string",
          "name": "",
          "type": "string"
        }
      ],
      "stateMutability": "view",
      "type": "function"
    },
    {
      "inputs": [
        {
          "internalType": "uint256",
          "name": "index",
          "type": "uint256"
        }
      ],
      "name": "tokenByIndex",
      "outputs": [
        {
          "internalType": "uint256",
          "name": "",
          "type": "uint256"
        }
      ],
      "stateMutability": "view",
      "type": "function"
    },
    {
      "inputs": [
        {
          "internalType": "address",
          "name": "owner",
          "type": "address"
        },
        {
          "internalType": "uint256",
          "name": "index",
          "type": "uint256"
        }
      ],
      "name": "tokenOfOwnerByIndex",
      "outputs": [
        {
          "internalType": "uint256",
          "name": "",
          "type": "uint256"
        }
      ],
      "stateMutability": "view",
      "type": "function"
    },
    {
      "inputs": [
        {
          "internalType": "uint256",
          "name": "_tokenId",
          "type": "uint256"
        }
      ],
      "name": "tokenURI",
      "outputs": [
        {
          "internalType": "string",
          "name": "",
          "type": "string"
        }
      ],
      "stateMutability": "view",
      "type": "function"
    },
    {
      "inputs": [],
      "name": "totalERC20Supply",
      "outputs": [
        {
          "internalType": "uint256",
          "name": "",
          "type": "uint256"
        }
      ],
      "stateMutability": "view",
      "type": "function"
    },
    {
      "inputs": [],
      "name": "totalSupply",
      "outputs": [
        {
          "internalType": "uint256",
          "name": "",
          "type": "uint256"
        }
      ],
      "stateMutability": "view",
      "type": "function"
    },
    {
      "inputs": [
        {
          "internalType": "address",
          "name": "from",
          "type": "address"
        },
        {
          "internalType": "address",
          "name": "to",
          "type": "address"
        },
        {
          "internalType": "uint256",
          "name": "tokenId",
          "type": "uint256"
        }
      ],
      "name": "transferFrom",
      "outputs": [],
      "stateMutability": "nonpayable",
      "type": "function"
    },
    {
      "inputs": [
        {
          "internalType": "address",
          "name": "newOwner",
          "type": "address"
        }
      ],
      "name": "transferOwnership",
      "outputs": [],
      "stateMutability": "nonpayable",
      "type": "function"
    },
    {
      "inputs": [
        {
          "internalType": "address payable",
          "name": "_to",
          "type": "address"
        }
      ],
      "name": "withdrawETH",
      "outputs": [],
      "stateMutability": "nonpayable",
      "type": "function"
    }
  ],
  "transactionHash": "0xa27064d24f4214bd0a5ca834963cc37cb197afc2d0aaaba9126f011073fae0b1",
  "args": [
    "0xf91375fbf40d920c31016E1473c6D44F334Af13F",
    "0x870317bbE804fd33c0eD50af9329C8c2653bd56F"
  ],
  "solcInputHash": "bd9155bace9602b73bd3fd63693748a1",
  "bytecode": "0x6080604052612710600e556703782dace9d90000600f553480156200002357600080fd5b506040516200460438038062004604833981016040819052620000469162000214565b604080518082018252600c81526b14d050d491510810915054d560a21b60208083019182528351808501909452600384526229a1a160e91b908401528151919291620000959160009162000155565b508051620000ab90600190602084019062000155565b505050620000c8620000c2620000ff60201b60201c565b62000103565b6001600b55600c80546001600160a01b039384166001600160a01b031991821617909155600d805492909316911617905562000290565b3390565b600a80546001600160a01b038381166001600160a01b0319831681179093556040519116919082907f8be0079c531659141344cd1fd0a4f28419497f9722a3daafe3b4186f6b6457e090600090a35050565b828054620001639062000253565b90600052602060002090601f016020900481019282620001875760008555620001d2565b82601f10620001a257805160ff1916838001178555620001d2565b82800160010185558215620001d2579182015b82811115620001d2578251825591602001919060010190620001b5565b50620001e0929150620001e4565b5090565b5b80821115620001e05760008155600101620001e5565b6001600160a01b03811681146200021157600080fd5b50565b600080604083850312156200022857600080fd5b82516200023581620001fb565b60208401519092506200024881620001fb565b809150509250929050565b600181811c908216806200026857607f821691505b602082108114156200028a57634e487b7160e01b600052602260045260246000fd5b50919050565b61436480620002a06000396000f3fe608060405234801561001057600080fd5b50600436106103155760003560e01c8063690d8320116101a7578063a444914b116100ee578063e3736ad411610097578063f2db11af11610071578063f2db11af14610740578063f2fde38b1461076b578063f6d30e6b1461077e57600080fd5b8063e3736ad4146106de578063e985e9c5146106f1578063f12297771461072d57600080fd5b8063bcd11014116100c8578063bcd11014146106af578063c87b56dd146106c2578063ca5c7b91146106d557600080fd5b8063a444914b14610643578063af9ea7c314610671578063b88d4fde1461069c57600080fd5b80638980f11f1161015057806395d89b411161012a57806395d89b41146105e25780639d0214cb146105ea578063a22cb4651461063057600080fd5b80638980f11f146105b55780638da5cb5b146105c8578063919cbc4e146105d957600080fd5b806373de83c41161018157806373de83c41461057c5780637a0dedf61461058f5780637bb7bed1146105a257600080fd5b8063690d83201461054e57806370a0823114610561578063715018a61461057457600080fd5b806332cb6b0c1161026b57806348e5d9f811610214578063638634ee116101ee578063638634ee1461051f5780636724c910146105325780636815b6d61461054557600080fd5b806348e5d9f8146104a45780634f6ccce7146104f95780636352211e1461050c57600080fd5b806340b47e1a1161024557806340b47e1a1461046b57806342842e0e1461047e578063461285c61461049157600080fd5b806332cb6b0c1461042a578063386a95251461043357806339fc97131461043d57600080fd5b806318160ddd116102cd5780632514057e116102a75780632514057e146103e25780632a314a92146104045780632f745c591461041757600080fd5b806318160ddd146103aa5780631c4b774b146103bc57806323b872dd146103cf57600080fd5b8063081812fc116102fe578063081812fc1461035757806308551a5314610382578063095ea7b31461039557600080fd5b806301ffc9a71461031a57806306fdde0314610342575b600080fd5b61032d61032836600461381d565b610791565b60405190151581526020015b60405180910390f35b61034a6107ed565b60405161033991906138b0565b61036a6103653660046138c3565b61087f565b6040516001600160a01b039091168152602001610339565b600d5461036a906001600160a01b031681565b6103a86103a33660046138f1565b61092a565b005b6008545b604051908152602001610339565b6103a86103ca3660046138c3565b610a5c565b6103a86103dd36600461391d565b610e85565b6103f56103f036600461395e565b610f0c565b60405161033993929190613980565b6103a86104123660046138c3565b610f71565b6103ae6104253660046138f1565b611023565b6103ae600e5481565b6103ae62093a8081565b61032d61044b3660046139af565b601560209081526000928352604080842090915290825290205460ff1681565b6103a86104793660046139af565b6110cb565b6103a861048c36600461391d565b611208565b6103a861049f3660046139e8565b611223565b6104d96104b2366004613a1a565b60146020526000908152604090208054600182015460028301546003909301549192909184565b604080519485526020850193909352918301526060820152608001610339565b6103ae6105073660046138c3565b611303565b61036a61051a3660046138c3565b6113a7565b6103ae61052d366004613a1a565b611432565b6103a8610540366004613a45565b611456565b6103ae60115481565b6103a861055c366004613a1a565b61152d565b6103ae61056f366004613a1a565b6115c0565b6103a861165a565b6103a861058a3660046138c3565b6116c0565b6103a861059d366004613a90565b6118c8565b61036a6105b03660046138c3565b611c51565b6103a86105c33660046138f1565b611c7b565b600a546001600160a01b031661036a565b6103ae600f5481565b61034a611e55565b6106176105f83660046138c3565b6010602052600090815260409020805460019091015460ff9091169082565b6040805160ff9093168352602083019190915201610339565b6103a861063e366004613abc565b611e64565b6106566106513660046138c3565b611e6f565b60408051938452602084019290925290820152606001610339565b6103ae61067f366004613aea565b601760209081526000928352604080842090915290825290205481565b6103a86106aa366004613b3e565b611ea2565b6103ae6106bd366004613a1a565b611f30565b61034a6106d03660046138c3565b611f5a565b6103ae60125481565b6103a86106ec366004613a90565b612133565b61032d6106ff3660046139af565b6001600160a01b03918216600090815260056020908152604080832093909416825291909152205460ff1690565b6103ae61073b366004613a1a565b612281565b6103ae61074e366004613aea565b601860209081526000928352604080842090915290825290205481565b6103a8610779366004613a1a565b6122ba565b6103a861078c3660046138c3565b61239c565b60007fffffffff0000000000000000000000000000000000000000000000000000000082167f780e9d630000000000000000000000000000000000000000000000000000000014806107e757506107e7826126bb565b92915050565b6060600080546107fc90613c3c565b80601f016020809104026020016040519081016040528092919081815260200182805461082890613c3c565b80156108755780601f1061084a57610100808354040283529160200191610875565b820191906000526020600020905b81548152906001019060200180831161085857829003601f168201915b5050505050905090565b6000818152600260205260408120546001600160a01b031661090e5760405162461bcd60e51b815260206004820152602c60248201527f4552433732313a20617070726f76656420717565727920666f72206e6f6e657860448201527f697374656e7420746f6b656e000000000000000000000000000000000000000060648201526084015b60405180910390fd5b506000908152600460205260409020546001600160a01b031690565b6000610935826113a7565b9050806001600160a01b0316836001600160a01b031614156109bf5760405162461bcd60e51b815260206004820152602160248201527f4552433732313a20617070726f76616c20746f2063757272656e74206f776e6560448201527f72000000000000000000000000000000000000000000000000000000000000006064820152608401610905565b336001600160a01b03821614806109db57506109db81336106ff565b610a4d5760405162461bcd60e51b815260206004820152603860248201527f4552433732313a20617070726f76652063616c6c6572206973206e6f74206f7760448201527f6e6572206e6f7220617070726f76656420666f7220616c6c00000000000000006064820152608401610905565b610a57838361279e565b505050565b6002600b541415610aaf5760405162461bcd60e51b815260206004820152601f60248201527f5265656e7472616e637947756172643a207265656e7472616e742063616c6c006044820152606401610905565b6002600b55600c5460125482916001600160a01b031690600090610ad38382612824565b6001600160a01b038416600090815260146020526040902060030155610af883611432565b6001600160a01b038416600090815260146020526040902060020155610b35846000908152600260205260409020546001600160a01b0316151590565b610ba75760405162461bcd60e51b815260206004820152602f60248201527f4552433732314d657461646174613a2055524920717565727920666f72206e6f60448201527f6e6578697374656e7420746f6b656e00000000000000000000000000000000006064820152608401610905565b6000848152601a6020526040902060020154610bc79085908590846128d2565b60008581526018602090815260408083206001600160a01b0388168085529083528184209490945560148252808320600301548884526017835281842094845293825280832093909355868252601a90522054601154909250905060015b601354811015610d095760138181548110610c4257610c42613c90565b6000918252602090912001546001600160a01b03169350610c638483612824565b6001600160a01b038516600090815260146020526040902060030155610c8884611432565b6001600160a01b038516600090815260146020526040902060020155610cb0858585856128d2565b60008681526018602090815260408083206001600160a01b038916808552908352818420949094556014825280832060030154898452601783528184209484529390915290205580610d0181613cee565b915050610c25565b5060005b601354811015610e7857600060138281548110610d2c57610d2c613c90565b60009182526020808320909101548983526018825260408084206001600160a01b03909216808552919092529120549091508015610e635760008881526018602090815260408083206001600160a01b03861680855292528083209290925590517fa9059cbb0000000000000000000000000000000000000000000000000000000081523360048201526024810183905263a9059cbb90604401602060405180830381600087803b158015610de057600080fd5b505af1158015610df4573d6000803e3d6000fd5b505050506040513d601f19601f82011682018060405250810190610e189190613d27565b50604080513381526001600160a01b03841660208201529081018290527f540798df468d7b23d11f156fdb954cb19ad414d150722a7b6d55ba369dea792e9060600160405180910390a15b50508080610e7090613cee565b915050610d0d565b50506001600b5550505050565b610e8f3382612950565b610f015760405162461bcd60e51b815260206004820152603160248201527f4552433732313a207472616e736665722063616c6c6572206973206e6f74206f60448201527f776e6572206e6f7220617070726f7665640000000000000000000000000000006064820152608401610905565b610a57838383612a54565b60196020528160005260406000208181548110610f2857600080fd5b6000918252602091829020600590910201805460018201546040805160608101825260028501548152600385015495810195909552600490930154928401929092529350915083565b33610f7b826113a7565b6001600160a01b031614610f8e57600080fd5b600081815260106020526040902054610fab9060ff166005613e64565b610fb890620f4240613e73565b610fca90670de0b6b3a7640000613e73565b60008281526010602052604090206001015411610fe657600080fd5b600081815260106020526040812080546001929061100890849060ff16613eb0565b92506101000a81548160ff021916908360ff16021790555050565b600061102e836115c0565b82106110a25760405162461bcd60e51b815260206004820152602b60248201527f455243373231456e756d657261626c653a206f776e657220696e646578206f7560448201527f74206f6620626f756e64730000000000000000000000000000000000000000006064820152608401610905565b506001600160a01b03919091166000908152600660209081526040808320938352929052205490565b600a546001600160a01b031633146111255760405162461bcd60e51b815260206004820181905260248201527f4f776e61626c653a2063616c6c6572206973206e6f7420746865206f776e65726044820152606401610905565b6001600160a01b0382166000908152601460205260409020600201541561114b57600080fd5b6013805460018082019092557f66de8ffda797e3de9c05e8fc57b3bf0ec28a930d40b0d285d93c06501cf6a0900180547fffffffffffffffffffffffff0000000000000000000000000000000000000000166001600160a01b03948516908117909155600090815260146020908152604080832042600282018190559055601582528083209490951682529290925291902080547fffffffffffffffffffffffffffffffffffffffffffffffffffffffffffffff00169091179055565b610a5783838360405180602001604052806000815250611ea2565b600a546001600160a01b0316331461127d5760405162461bcd60e51b815260206004820181905260248201527f4f776e61626c653a2063616c6c6572206973206e6f7420746865206f776e65726044820152606401610905565b60018111156112ce5760405162461bcd60e51b815260206004820152601760248201527f50656e616c74792063616e6e6f742065786365656420310000000000000000006044820152606401610905565b6000601685815481106112e3576112e3613c90565b506000525060408051606081018252938452602084019290925291015250565b600061130e60085490565b82106113825760405162461bcd60e51b815260206004820152602c60248201527f455243373231456e756d657261626c653a20676c6f62616c20696e646578206f60448201527f7574206f6620626f756e647300000000000000000000000000000000000000006064820152608401610905565b6008828154811061139557611395613c90565b90600052602060002001549050919050565b6000818152600260205260408120546001600160a01b0316806107e75760405162461bcd60e51b815260206004820152602960248201527f4552433732313a206f776e657220717565727920666f72206e6f6e657869737460448201527f656e7420746f6b656e00000000000000000000000000000000000000000000006064820152608401610905565b6001600160a01b0381166000908152601460205260408120546107e7904290612c44565b600a546001600160a01b031633146114b05760405162461bcd60e51b815260206004820181905260248201527f4f776e61626c653a2063616c6c6572206973206e6f7420746865206f776e65726044820152606401610905565b6001600160a01b0383166000908152601460205260409020600201546114d557600080fd5b6001600160a01b0392831660009081526015602090815260408083209490951682529290925291902080547fffffffffffffffffffffffffffffffffffffffffffffffffffffffffffffff0016911515919091179055565b600a546001600160a01b031633146115875760405162461bcd60e51b815260206004820181905260248201527f4f776e61626c653a2063616c6c6572206973206e6f7420746865206f776e65726044820152606401610905565b6040516001600160a01b038216904780156108fc02916000818181858888f193505050501580156115bc573d6000803e3d6000fd5b5050565b60006001600160a01b03821661163e5760405162461bcd60e51b815260206004820152602a60248201527f4552433732313a2062616c616e636520717565727920666f7220746865207a6560448201527f726f2061646472657373000000000000000000000000000000000000000000006064820152608401610905565b506001600160a01b031660009081526003602052604090205490565b600a546001600160a01b031633146116b45760405162461bcd60e51b815260206004820181905260248201527f4f776e61626c653a2063616c6c6572206973206e6f7420746865206f776e65726044820152606401610905565b6116be6000612c5a565b565b600e54816116cd60085490565b6116d79190613ed5565b11156117255760405162461bcd60e51b815260206004820181905260248201527f507572636861736520776f756c6420657863656564206d617820737570706c796044820152606401610905565b600081600f546117359190613e73565b600c54600d546040517f23b872dd0000000000000000000000000000000000000000000000000000000081523360048201526001600160a01b0391821660248201526044810184905292935016906323b872dd90606401602060405180830381600087803b1580156117a657600080fd5b505af11580156117ba573d6000803e3d6000fd5b505050506040513d601f19601f820116820180604052508101906117de9190613d27565b61182a5760405162461bcd60e51b815260206004820152601060248201527f57726f6e672070617920616d6f756e74000000000000000000000000000000006044820152606401610905565b60005b82811015610a5757600061184060085490565b9050600e5461184e60085490565b10156118b55761185e3382612cc4565b6040805180820182526001808252600060208084018281528683526010909152939020915182547fffffffffffffffffffffffffffffffffffffffffffffffffffffffffffffff001660ff90911617825591519101555b50806118c081613cee565b91505061182d565b60008381526002602052604090205483906001600160a01b031661192e5760405162461bcd60e51b815260206004820152601460248201527f546f6b656e20646f6573206e6f742065786973740000000000000000000000006044820152606401610905565b600c546040517f23b872dd000000000000000000000000000000000000000000000000000000008152336004820152306024820152604481018590526001600160a01b03909116906323b872dd90606401602060405180830381600087803b15801561199957600080fd5b505af11580156119ad573d6000803e3d6000fd5b505050506040513d601f19601f820116820180604052508101906119d19190613d27565b6119da57600080fd5b826011546119e89190613ed5565b6011556000848152601a602052604090208054611a06908590613ed5565b8155601680546000919085908110611a2057611a20613c90565b9060005260206000209060030201604051806060016040529081600082015481526020016001820154815260200160028201548152505090506000611a658683612cde565b905080601060008981526020019081526020016000206001016000828254611a8d9190613ed5565b90915550508151600090611aa19042613ed5565b600089815260196020526040902054909150801580611afa575060008981526019602052604090208290611ad6600184613eed565b81548110611ae657611ae6613c90565b906000526020600020906005020160010154105b15611b6a57600089815260196020908152604080832081516060810183528c81528084018781528184018a81528354600181810186559488529686902092516005909702909201958655519185019190915551805160028501559182015160038401550151600490910155611bec565b60008981526019602052604090208890611b85600184613eed565b81548110611b9557611b95613c90565b906000526020600020906005020160000154611bb19190613ed5565b60008a8152601960205260409020611bca600184613eed565b81548110611bda57611bda613c90565b60009182526020909120600590910201555b604080518a815260208082018b90528183018590528651606083015286015160808201529085015160a08201527f9599cdf805559aee8405ed71751ea685766fcd1a6dd992b6e4811e30b4e76ac29060c00160405180910390a1505050505050505050565b60138181548110611c6157600080fd5b6000918252602090912001546001600160a01b0316905081565b600a546001600160a01b03163314611cd55760405162461bcd60e51b815260206004820181905260248201527f4f776e61626c653a2063616c6c6572206973206e6f7420746865206f776e65726044820152606401610905565b600c546001600160a01b0383811691161415611d335760405162461bcd60e51b815260206004820152601d60248201527f43616e6e6f74207769746864726177207374616b696e6720746f6b656e0000006044820152606401610905565b6001600160a01b03821660009081526014602052604090206002015415611d9c5760405162461bcd60e51b815260206004820152601c60248201527f43616e6e6f742077697468647261772072657761726420746f6b656e000000006044820152606401610905565b816001600160a01b031663a9059cbb611dbd600a546001600160a01b031690565b6040517fffffffff0000000000000000000000000000000000000000000000000000000060e084901b1681526001600160a01b03909116600482015260248101849052604401602060405180830381600087803b158015611e1d57600080fd5b505af1158015611e31573d6000803e3d6000fd5b505050506040513d601f19601f82011682018060405250810190610a579190613d27565b6060600180546107fc90613c3c565b6115bc338383612cff565b60168181548110611e7f57600080fd5b600091825260209091206003909102018054600182015460029092015490925083565b611eac3383612950565b611f1e5760405162461bcd60e51b815260206004820152603160248201527f4552433732313a207472616e736665722063616c6c6572206973206e6f74206f60448201527f776e6572206e6f7220617070726f7665640000000000000000000000000000006064820152608401610905565b611f2a84848484612dec565b50505050565b6001600160a01b0381166000908152601460205260408120600101546107e79062093a8090613e73565b6000818152600260205260409020546060906001600160a01b0316611fe75760405162461bcd60e51b815260206004820152602f60248201527f4552433732314d657461646174613a2055524920717565727920666f72206e6f60448201527f6e6578697374656e7420746f6b656e00000000000000000000000000000000006064820152608401610905565b6000611ff1612e75565b90506000611ffe84612e95565b60405160200161200e9190613f20565b604080517fffffffffffffffffffffffffffffffffffffffffffffffffffffffffffffffe081840301815291815260008681526010602052908120600101549192509061205a90612e95565b600086815260106020526040812054919250906120799060ff16612e95565b905060008085511161209a57604051806020016040528060008152506120d8565b60008781526010602052604090205485906120b79060ff16612e95565b6040516020016120c8929190613f65565b6040516020818303038152906040525b9050612108848484846040516020016120f49493929190613fbc565b604051602081830303815290604052612fc7565b604051602001612118919061417a565b60405160208183030381529060405295505050505050919050565b600a546001600160a01b0316331461218d5760405162461bcd60e51b815260206004820181905260248201527f4f776e61626c653a2063616c6c6572206973206e6f7420746865206f776e65726044820152606401610905565b60018111156121de5760405162461bcd60e51b815260206004820152601760248201527f50656e616c74792063616e6e6f742065786365656420310000000000000000006044820152606401610905565b604080516060810182529384526020840192835283019081526016805460018101825560009190915292517fd833147d7dc355ba459fc788f669e58cfaf9dc25ddcd0702e87d69c7b512428960039094029384015590517fd833147d7dc355ba459fc788f669e58cfaf9dc25ddcd0702e87d69c7b512428a830155517fd833147d7dc355ba459fc788f669e58cfaf9dc25ddcd0702e87d69c7b512428b90910155565b600c5460009081906001600160a01b038481169116146122a3576011546122a7565b6012545b90506122b38382612824565b9392505050565b600a546001600160a01b031633146123145760405162461bcd60e51b815260206004820181905260248201527f4f776e61626c653a2063616c6c6572206973206e6f7420746865206f776e65726044820152606401610905565b6001600160a01b0381166123905760405162461bcd60e51b815260206004820152602660248201527f4f776e61626c653a206e6577206f776e657220697320746865207a65726f206160448201527f64647265737300000000000000000000000000000000000000000000000000006064820152608401610905565b61239981612c5a565b50565b60008181526002602052604090205481906001600160a01b03166124025760405162461bcd60e51b815260206004820152601460248201527f546f6b656e20646f6573206e6f742065786973740000000000000000000000006044820152606401610905565b3361240c836113a7565b6001600160a01b0316146124625760405162461bcd60e51b815260206004820152601060248201527f4e6f74204f776e6572206f66204e4654000000000000000000000000000000006044820152606401610905565b6000828152601960209081526040808320601a9092528220815491929091428461248d600184613eed565b8154811061249d5761249d613c90565b906000526020600020906005020160010154116124d957600283015460008781526019602052604081209193506124d4919061379f565b612596565b60005b8181101561259457428582815481106124f7576124f7613c90565b906000526020600020906005020160010154111561251457612594565b84818154811061252657612526613c90565b906000526020600020906005020160000154836125439190613ed5565b925084818154811061255757612557613c90565b600091825260208220600590910201818155600181018290556002810182905560038101829055600401558061258c81613cee565b9150506124dc565b505b8183600201546125a69190613eed565b600284015582546125b8908390613eed565b83556011546125c8908390613eed565b6011556012546125d9908390613eed565b601255600c546040517fa9059cbb000000000000000000000000000000000000000000000000000000008152336004820152602481018490526001600160a01b039091169063a9059cbb90604401602060405180830381600087803b15801561264157600080fd5b505af1158015612655573d6000803e3d6000fd5b505050506040513d601f19601f820116820180604052508101906126799190613d27565b5060408051878152602081018490527fc266233ef087afa73a2a6f7c129f3c7184bbdae1c5b5763a4b9b378a6ae11fe7910160405180910390a1505050505050565b60007fffffffff0000000000000000000000000000000000000000000000000000000082167f80ac58cd00000000000000000000000000000000000000000000000000000000148061274e57507fffffffff0000000000000000000000000000000000000000000000000000000082167f5b5e139f00000000000000000000000000000000000000000000000000000000145b806107e757507f01ffc9a7000000000000000000000000000000000000000000000000000000007fffffffff000000000000000000000000000000000000000000000000000000008316146107e7565b600081815260046020526040902080547fffffffffffffffffffffffff0000000000000000000000000000000000000000166001600160a01b03841690811790915581906127eb826113a7565b6001600160a01b03167f8c5be1e5ebec7d5bd14f71427d1e84f3dd0314c0f7b2291e5b200ac8c7c3b92560405160405180910390a45050565b60008161284d57506001600160a01b0382166000908152601460205260409020600301546107e7565b6001600160a01b0383166000908152601460205260409020600181015460029091015483919061287c86611432565b6128869190613eed565b6128909190613e73565b6128a290670de0b6b3a7640000613e73565b6128ac91906141ee565b6001600160a01b0384166000908152601460205260409020600301546122b39190613ed5565b60008481526018602090815260408083206001600160a01b03871680855290835281842054888552601784528285209185529252822054670de0b6b3a76400009061291d8786612824565b6129279190613eed565b6129319086613e73565b61293b91906141ee565b6129459190613ed5565b90505b949350505050565b6000818152600260205260408120546001600160a01b03166129da5760405162461bcd60e51b815260206004820152602c60248201527f4552433732313a206f70657261746f7220717565727920666f72206e6f6e657860448201527f697374656e7420746f6b656e00000000000000000000000000000000000000006064820152608401610905565b60006129e5836113a7565b9050806001600160a01b0316846001600160a01b03161480612a205750836001600160a01b0316612a158461087f565b6001600160a01b0316145b8061294857506001600160a01b0380821660009081526005602090815260408083209388168352929052205460ff16612948565b826001600160a01b0316612a67826113a7565b6001600160a01b031614612ae35760405162461bcd60e51b815260206004820152602960248201527f4552433732313a207472616e73666572206f6620746f6b656e2074686174206960448201527f73206e6f74206f776e00000000000000000000000000000000000000000000006064820152608401610905565b6001600160a01b038216612b5e5760405162461bcd60e51b8152602060048201526024808201527f4552433732313a207472616e7366657220746f20746865207a65726f2061646460448201527f72657373000000000000000000000000000000000000000000000000000000006064820152608401610905565b612b698383836131a0565b612b7460008261279e565b6001600160a01b0383166000908152600360205260408120805460019290612b9d908490613eed565b90915550506001600160a01b0382166000908152600360205260408120805460019290612bcb908490613ed5565b909155505060008181526002602052604080822080547fffffffffffffffffffffffff0000000000000000000000000000000000000000166001600160a01b0386811691821790925591518493918716917fddf252ad1be2c89b69c2b068fc378daa952ba7f163c4a11628f55a4df523b3ef91a4505050565b6000818310612c5357816122b3565b5090919050565b600a80546001600160a01b038381167fffffffffffffffffffffffff0000000000000000000000000000000000000000831681179093556040519116919082907f8be0079c531659141344cd1fd0a4f28419497f9722a3daafe3b4186f6b6457e090600090a35050565b6115bc828260405180602001604052806000815250613258565b60008282602001518360000151612cf59190613e73565b6122b39190613e73565b816001600160a01b0316836001600160a01b03161415612d615760405162461bcd60e51b815260206004820152601960248201527f4552433732313a20617070726f766520746f2063616c6c6572000000000000006044820152606401610905565b6001600160a01b0383811660008181526005602090815260408083209487168084529482529182902080547fffffffffffffffffffffffffffffffffffffffffffffffffffffffffffffff001686151590811790915591519182527f17307eab39ab6107e8899845ad3d59bd9653f200f220920489ca2b5937696c31910160405180910390a3505050565b612df7848484612a54565b612e03848484846132e1565b611f2a5760405162461bcd60e51b815260206004820152603260248201527f4552433732313a207472616e7366657220746f206e6f6e20455243373231526560448201527f63656976657220696d706c656d656e74657200000000000000000000000000006064820152608401610905565b606060405180608001604052806050815260200161429f60509139905090565b606081612ed557505060408051808201909152600181527f3000000000000000000000000000000000000000000000000000000000000000602082015290565b8160005b8115612eff5780612ee981613cee565b9150612ef89050600a836141ee565b9150612ed9565b60008167ffffffffffffffff811115612f1a57612f1a613b0f565b6040519080825280601f01601f191660200182016040528015612f44576020820181803683370190505b5090505b841561294857612f59600183613eed565b9150612f66600a86614202565b612f71906030613ed5565b60f81b818381518110612f8657612f86613c90565b60200101907effffffffffffffffffffffffffffffffffffffffffffffffffffffffffffff1916908160001a905350612fc0600a866141ee565b9450612f48565b6060815160001415612fe757505060408051602081019091526000815290565b60006040518060600160405280604081526020016142ef60409139905060006003845160026130169190613ed5565b61302091906141ee565b61302b906004613e73565b9050600061303a826020613ed5565b67ffffffffffffffff81111561305257613052613b0f565b6040519080825280601f01601f19166020018201604052801561307c576020820181803683370190505b509050818152600183018586518101602084015b818310156130e8576003830192508251603f8160121c168501518253600182019150603f81600c1c168501518253600182019150603f8160061c168501518253600182019150603f8116850151825350600101613090565b600389510660018114613102576002811461314c57613192565b7f3d3d0000000000000000000000000000000000000000000000000000000000007ffffffffffffffffffffffffffffffffffffffffffffffffffffffffffffffffe830152613192565b7f3d000000000000000000000000000000000000000000000000000000000000007fffffffffffffffffffffffffffffffffffffffffffffffffffffffffffffffff8301525b509398975050505050505050565b6001600160a01b0383166131fb576131f681600880546000838152600960205260408120829055600182018355919091527ff3f7a9fe364faab93b216da50a3214154f22a0a2b415b23a84c8169e8b636ee30155565b61321e565b816001600160a01b0316836001600160a01b03161461321e5761321e83826134a9565b6001600160a01b03821661323557610a5781613546565b826001600160a01b0316826001600160a01b031614610a5757610a5782826135f5565b6132628383613639565b61326f60008484846132e1565b610a575760405162461bcd60e51b815260206004820152603260248201527f4552433732313a207472616e7366657220746f206e6f6e20455243373231526560448201527f63656976657220696d706c656d656e74657200000000000000000000000000006064820152608401610905565b60006001600160a01b0384163b156134a1576040517f150b7a020000000000000000000000000000000000000000000000000000000081526001600160a01b0385169063150b7a029061333e903390899088908890600401614216565b602060405180830381600087803b15801561335857600080fd5b505af19250505080156133a6575060408051601f3d9081017fffffffffffffffffffffffffffffffffffffffffffffffffffffffffffffffe01682019092526133a391810190614252565b60015b613456573d8080156133d4576040519150601f19603f3d011682016040523d82523d6000602084013e6133d9565b606091505b50805161344e5760405162461bcd60e51b815260206004820152603260248201527f4552433732313a207472616e7366657220746f206e6f6e20455243373231526560448201527f63656976657220696d706c656d656e74657200000000000000000000000000006064820152608401610905565b805181602001fd5b7fffffffff00000000000000000000000000000000000000000000000000000000167f150b7a0200000000000000000000000000000000000000000000000000000000149050612948565b506001612948565b600060016134b6846115c0565b6134c09190613eed565b600083815260076020526040902054909150808214613513576001600160a01b03841660009081526006602090815260408083208584528252808320548484528184208190558352600790915290208190555b5060009182526007602090815260408084208490556001600160a01b039094168352600681528383209183525290812055565b60085460009061355890600190613eed565b6000838152600960205260408120546008805493945090928490811061358057613580613c90565b9060005260206000200154905080600883815481106135a1576135a1613c90565b60009182526020808320909101929092558281526009909152604080822084905585825281205560088054806135d9576135d961426f565b6001900381819060005260206000200160009055905550505050565b6000613600836115c0565b6001600160a01b039093166000908152600660209081526040808320868452825280832085905593825260079052919091209190915550565b6001600160a01b03821661368f5760405162461bcd60e51b815260206004820181905260248201527f4552433732313a206d696e7420746f20746865207a65726f20616464726573736044820152606401610905565b6000818152600260205260409020546001600160a01b0316156136f45760405162461bcd60e51b815260206004820152601c60248201527f4552433732313a20746f6b656e20616c7265616479206d696e746564000000006044820152606401610905565b613700600083836131a0565b6001600160a01b0382166000908152600360205260408120805460019290613729908490613ed5565b909155505060008181526002602052604080822080547fffffffffffffffffffffffff0000000000000000000000000000000000000000166001600160a01b03861690811790915590518392907fddf252ad1be2c89b69c2b068fc378daa952ba7f163c4a11628f55a4df523b3ef908290a45050565b508054600082556005029060005260206000209081019061239991905b808211156137eb57600080825560018201819055600282018190556003820181905560048201556005016137bc565b5090565b7fffffffff000000000000000000000000000000000000000000000000000000008116811461239957600080fd5b60006020828403121561382f57600080fd5b81356122b3816137ef565b60005b8381101561385557818101518382015260200161383d565b83811115611f2a5750506000910152565b6000815180845261387e81602086016020860161383a565b601f017fffffffffffffffffffffffffffffffffffffffffffffffffffffffffffffffe0169290920160200192915050565b6020815260006122b36020830184613866565b6000602082840312156138d557600080fd5b5035919050565b6001600160a01b038116811461239957600080fd5b6000806040838503121561390457600080fd5b823561390f816138dc565b946020939093013593505050565b60008060006060848603121561393257600080fd5b833561393d816138dc565b9250602084013561394d816138dc565b929592945050506040919091013590565b6000806040838503121561397157600080fd5b50508035926020909101359150565b8381526020810183905260a0810161294860408301848051825260208082015190830152604090810151910152565b600080604083850312156139c257600080fd5b82356139cd816138dc565b915060208301356139dd816138dc565b809150509250929050565b600080600080608085870312156139fe57600080fd5b5050823594602084013594506040840135936060013592509050565b600060208284031215613a2c57600080fd5b81356122b3816138dc565b801515811461239957600080fd5b600080600060608486031215613a5a57600080fd5b8335613a65816138dc565b92506020840135613a75816138dc565b91506040840135613a8581613a37565b809150509250925092565b600080600060608486031215613aa557600080fd5b505081359360208301359350604090920135919050565b60008060408385031215613acf57600080fd5b8235613ada816138dc565b915060208301356139dd81613a37565b60008060408385031215613afd57600080fd5b8235915060208301356139dd816138dc565b7f4e487b7100000000000000000000000000000000000000000000000000000000600052604160045260246000fd5b60008060008060808587031215613b5457600080fd5b8435613b5f816138dc565b93506020850135613b6f816138dc565b925060408501359150606085013567ffffffffffffffff80821115613b9357600080fd5b818701915087601f830112613ba757600080fd5b813581811115613bb957613bb9613b0f565b604051601f82017fffffffffffffffffffffffffffffffffffffffffffffffffffffffffffffffe0908116603f01168101908382118183101715613bff57613bff613b0f565b816040528281528a6020848701011115613c1857600080fd5b82602086016020830137600060208483010152809550505050505092959194509250565b600181811c90821680613c5057607f821691505b60208210811415613c8a577f4e487b7100000000000000000000000000000000000000000000000000000000600052602260045260246000fd5b50919050565b7f4e487b7100000000000000000000000000000000000000000000000000000000600052603260045260246000fd5b7f4e487b7100000000000000000000000000000000000000000000000000000000600052601160045260246000fd5b60007fffffffffffffffffffffffffffffffffffffffffffffffffffffffffffffffff821415613d2057613d20613cbf565b5060010190565b600060208284031215613d3957600080fd5b81516122b381613a37565b600181815b80851115613d9d57817fffffffffffffffffffffffffffffffffffffffffffffffffffffffffffffffff04821115613d8357613d83613cbf565b80851615613d9057918102915b93841c9390800290613d49565b509250929050565b600082613db4575060016107e7565b81613dc1575060006107e7565b8160018114613dd75760028114613de157613dfd565b60019150506107e7565b60ff841115613df257613df2613cbf565b50506001821b6107e7565b5060208310610133831016604e8410600b8410161715613e20575081810a6107e7565b613e2a8383613d44565b807fffffffffffffffffffffffffffffffffffffffffffffffffffffffffffffffff04821115613e5c57613e5c613cbf565b029392505050565b60006122b360ff841683613da5565b6000817fffffffffffffffffffffffffffffffffffffffffffffffffffffffffffffffff0483118215151615613eab57613eab613cbf565b500290565b600060ff821660ff84168060ff03821115613ecd57613ecd613cbf565b019392505050565b60008219821115613ee857613ee8613cbf565b500190565b600082821015613eff57613eff613cbf565b500390565b60008151613f1681856020860161383a565b9290920192915050565b7f5341435245442042454153542023000000000000000000000000000000000000815260008251613f5881600e85016020870161383a565b91909101600e0192915050565b60008351613f7781846020880161383a565b835190830190613f8b81836020880161383a565b7f2e676966000000000000000000000000000000000000000000000000000000009101908152600401949350505050565b7f7b226e616d65223a220000000000000000000000000000000000000000000000815260008551613ff4816009850160208a0161383a565b7f222c20226465736372697074696f6e223a2253616372656420426561737420696009918401918201527f7320746865206d797374686963616c206265617374206f6620455645524d4f4f60298201527f4e20776f726c642e2049742063616e20636f6e73756d6520455645524d4f4f4e60498201527f20546f6b656e20666f722065787020616e6420676574207374726f6e6765722e60698201527f222c2022657870223a2200000000000000000000000000000000000000000000608982015285516140c9816093840160208a0161383a565b7f222c202265766f6c466f726d223a2200000000000000000000000000000000006093929091019182015284516141078160a284016020890161383a565b61416e61414561413f60a2848601017f222c2022696d616765223a2022000000000000000000000000000000000000008152600d0190565b87613f04565b7f227d000000000000000000000000000000000000000000000000000000000000815260020190565b98975050505050505050565b7f646174613a6170706c69636174696f6e2f6a736f6e3b6261736536342c0000008152600082516141b281601d85016020870161383a565b91909101601d0192915050565b7f4e487b7100000000000000000000000000000000000000000000000000000000600052601260045260246000fd5b6000826141fd576141fd6141bf565b500490565b600082614211576142116141bf565b500690565b60006001600160a01b038087168352808616602084015250836040830152608060608301526142486080830184613866565b9695505050505050565b60006020828403121561426457600080fd5b81516122b3816137ef565b7f4e487b7100000000000000000000000000000000000000000000000000000000600052603160045260246000fdfe68747470733a2f2f676174657761792e70696e6174612e636c6f75642f697066732f516d583847654a556f31504c4b4d566f563244546966704376724843504550557551706e48694769544a696133514142434445464748494a4b4c4d4e4f505152535455565758595a6162636465666768696a6b6c6d6e6f707172737475767778797a303132333435363738392b2fa26469706673582212205388dbf66d954f7d4a1ea7cf971ec72e0d07a79f1720c2c7b8c1ab31b370ab4564736f6c63430008090033",
  "devdoc": {
    "kind": "dev",
    "methods": {
      "approve(address,uint256)": {
        "details": "See {IERC721-approve}."
      },
      "balanceOf(address)": {
        "details": "See {IERC721-balanceOf}."
      },
      "getApproved(uint256)": {
        "details": "See {IERC721-getApproved}."
      },
      "isApprovedForAll(address,address)": {
        "details": "See {IERC721-isApprovedForAll}."
      },
      "name()": {
        "details": "See {IERC721Metadata-name}."
      },
      "owner()": {
        "details": "Returns the address of the current owner."
      },
      "ownerOf(uint256)": {
        "details": "See {IERC721-ownerOf}."
      },
      "renounceOwnership()": {
        "details": "Leaves the contract without owner. It will not be possible to call `onlyOwner` functions anymore. Can only be called by the current owner. NOTE: Renouncing ownership will leave the contract without an owner, thereby removing any functionality that is only available to the owner."
      },
      "safeTransferFrom(address,address,uint256)": {
        "details": "See {IERC721-safeTransferFrom}."
      },
      "safeTransferFrom(address,address,uint256,bytes)": {
        "details": "See {IERC721-safeTransferFrom}."
      },
      "setApprovalForAll(address,bool)": {
        "details": "See {IERC721-setApprovalForAll}."
      },
      "supportsInterface(bytes4)": {
        "details": "See {IERC165-supportsInterface}."
      },
      "symbol()": {
        "details": "See {IERC721Metadata-symbol}."
      },
      "tokenByIndex(uint256)": {
        "details": "See {IERC721Enumerable-tokenByIndex}."
      },
      "tokenOfOwnerByIndex(address,uint256)": {
        "details": "See {IERC721Enumerable-tokenOfOwnerByIndex}."
      },
      "totalSupply()": {
        "details": "See {IERC721Enumerable-totalSupply}."
      },
      "transferFrom(address,address,uint256)": {
        "details": "See {IERC721-transferFrom}."
      },
      "transferOwnership(address)": {
        "details": "Transfers ownership of the contract to a new account (`newOwner`). Can only be called by the current owner."
      }
    },
    "version": 1
  },
  "userdoc": {
    "kind": "user",
    "methods": {},
    "version": 1
  },
  "storageLayout": {
    "storage": [
      {
        "astId": 2048,
        "contract": "contracts/SacredBeast.sol:SacredBeast",
        "label": "_name",
        "offset": 0,
        "slot": "0",
        "type": "t_string_storage"
      },
      {
        "astId": 2050,
        "contract": "contracts/SacredBeast.sol:SacredBeast",
        "label": "_symbol",
        "offset": 0,
        "slot": "1",
        "type": "t_string_storage"
      },
      {
        "astId": 2054,
        "contract": "contracts/SacredBeast.sol:SacredBeast",
        "label": "_owners",
        "offset": 0,
        "slot": "2",
        "type": "t_mapping(t_uint256,t_address)"
      },
      {
        "astId": 2058,
        "contract": "contracts/SacredBeast.sol:SacredBeast",
        "label": "_balances",
        "offset": 0,
        "slot": "3",
        "type": "t_mapping(t_address,t_uint256)"
      },
      {
        "astId": 2062,
        "contract": "contracts/SacredBeast.sol:SacredBeast",
        "label": "_tokenApprovals",
        "offset": 0,
        "slot": "4",
        "type": "t_mapping(t_uint256,t_address)"
      },
      {
        "astId": 2068,
        "contract": "contracts/SacredBeast.sol:SacredBeast",
        "label": "_operatorApprovals",
        "offset": 0,
        "slot": "5",
        "type": "t_mapping(t_address,t_mapping(t_address,t_bool))"
      },
      {
        "astId": 3002,
        "contract": "contracts/SacredBeast.sol:SacredBeast",
        "label": "_ownedTokens",
        "offset": 0,
        "slot": "6",
        "type": "t_mapping(t_address,t_mapping(t_uint256,t_uint256))"
      },
      {
        "astId": 3006,
        "contract": "contracts/SacredBeast.sol:SacredBeast",
        "label": "_ownedTokensIndex",
        "offset": 0,
        "slot": "7",
        "type": "t_mapping(t_uint256,t_uint256)"
      },
      {
        "astId": 3009,
        "contract": "contracts/SacredBeast.sol:SacredBeast",
        "label": "_allTokens",
        "offset": 0,
        "slot": "8",
        "type": "t_array(t_uint256)dyn_storage"
      },
      {
        "astId": 3013,
        "contract": "contracts/SacredBeast.sol:SacredBeast",
        "label": "_allTokensIndex",
        "offset": 0,
        "slot": "9",
        "type": "t_mapping(t_uint256,t_uint256)"
      },
      {
        "astId": 7,
        "contract": "contracts/SacredBeast.sol:SacredBeast",
        "label": "_owner",
        "offset": 0,
        "slot": "10",
        "type": "t_address"
      },
      {
        "astId": 207,
        "contract": "contracts/SacredBeast.sol:SacredBeast",
        "label": "_status",
        "offset": 0,
        "slot": "11",
        "type": "t_uint256"
      },
      {
        "astId": 5283,
        "contract": "contracts/SacredBeast.sol:SacredBeast",
        "label": "foodToken",
        "offset": 0,
        "slot": "12",
        "type": "t_contract(IERC20)860"
      },
      {
        "astId": 5285,
        "contract": "contracts/SacredBeast.sol:SacredBeast",
        "label": "seller",
        "offset": 0,
        "slot": "13",
        "type": "t_address_payable"
      },
      {
        "astId": 5288,
        "contract": "contracts/SacredBeast.sol:SacredBeast",
        "label": "MAX_SUPPLY",
        "offset": 0,
        "slot": "14",
        "type": "t_uint256"
      },
      {
        "astId": 5291,
        "contract": "contracts/SacredBeast.sol:SacredBeast",
        "label": "PRICE_PER_UNIT",
        "offset": 0,
        "slot": "15",
        "type": "t_uint256"
      },
      {
        "astId": 5334,
        "contract": "contracts/SacredBeast.sol:SacredBeast",
        "label": "nft",
        "offset": 0,
        "slot": "16",
        "type": "t_mapping(t_uint256,t_struct(BeastStat)5311_storage)"
      },
      {
        "astId": 5336,
        "contract": "contracts/SacredBeast.sol:SacredBeast",
        "label": "totalERC20Supply",
        "offset": 0,
        "slot": "17",
        "type": "t_uint256"
      },
      {
        "astId": 5338,
        "contract": "contracts/SacredBeast.sol:SacredBeast",
        "label": "lockedSupply",
        "offset": 0,
        "slot": "18",
        "type": "t_uint256"
      },
      {
        "astId": 5341,
        "contract": "contracts/SacredBeast.sol:SacredBeast",
        "label": "rewardTokens",
        "offset": 0,
        "slot": "19",
        "type": "t_array(t_address)dyn_storage"
      },
      {
        "astId": 5346,
        "contract": "contracts/SacredBeast.sol:SacredBeast",
        "label": "rewardData",
        "offset": 0,
        "slot": "20",
        "type": "t_mapping(t_address,t_struct(Reward)5329_storage)"
      },
      {
        "astId": 5357,
        "contract": "contracts/SacredBeast.sol:SacredBeast",
        "label": "rewardDistributors",
        "offset": 0,
        "slot": "21",
        "type": "t_mapping(t_address,t_mapping(t_address,t_bool))"
      },
      {
        "astId": 5361,
        "contract": "contracts/SacredBeast.sol:SacredBeast",
        "label": "lockChoices",
        "offset": 0,
        "slot": "22",
        "type": "t_array(t_struct(LockChoice)5298_storage)dyn_storage"
      },
      {
        "astId": 5367,
        "contract": "contracts/SacredBeast.sol:SacredBeast",
        "label": "nftRewardPerTokenPaid",
        "offset": 0,
        "slot": "23",
        "type": "t_mapping(t_uint256,t_mapping(t_address,t_uint256))"
      },
      {
        "astId": 5373,
        "contract": "contracts/SacredBeast.sol:SacredBeast",
        "label": "rewards",
        "offset": 0,
        "slot": "24",
        "type": "t_mapping(t_uint256,t_mapping(t_address,t_uint256))"
      },
      {
        "astId": 5379,
        "contract": "contracts/SacredBeast.sol:SacredBeast",
        "label": "nftLocks",
        "offset": 0,
        "slot": "25",
        "type": "t_mapping(t_uint256,t_array(t_struct(LockedInfo)5306_storage)dyn_storage)"
      },
      {
        "astId": 5384,
        "contract": "contracts/SacredBeast.sol:SacredBeast",
        "label": "balances",
        "offset": 0,
        "slot": "26",
        "type": "t_mapping(t_uint256,t_struct(Balances)5320_storage)"
      },
      {
        "astId": 5386,
        "contract": "contracts/SacredBeast.sol:SacredBeast",
        "label": "_paused",
        "offset": 0,
        "slot": "27",
        "type": "t_bool"
      }
    ],
    "types": {
      "t_address": {
        "encoding": "inplace",
        "label": "address",
        "numberOfBytes": "20"
      },
      "t_address_payable": {
        "encoding": "inplace",
        "label": "address payable",
        "numberOfBytes": "20"
      },
      "t_array(t_address)dyn_storage": {
        "base": "t_address",
        "encoding": "dynamic_array",
        "label": "address[]",
        "numberOfBytes": "32"
      },
      "t_array(t_struct(LockChoice)5298_storage)dyn_storage": {
        "base": "t_struct(LockChoice)5298_storage",
        "encoding": "dynamic_array",
        "label": "struct SacredBeast.LockChoice[]",
        "numberOfBytes": "32"
      },
      "t_array(t_struct(LockedInfo)5306_storage)dyn_storage": {
        "base": "t_struct(LockedInfo)5306_storage",
        "encoding": "dynamic_array",
        "label": "struct SacredBeast.LockedInfo[]",
        "numberOfBytes": "32"
      },
      "t_array(t_uint256)dyn_storage": {
        "base": "t_uint256",
        "encoding": "dynamic_array",
        "label": "uint256[]",
        "numberOfBytes": "32"
      },
      "t_bool": {
        "encoding": "inplace",
        "label": "bool",
        "numberOfBytes": "1"
      },
      "t_contract(IERC20)860": {
        "encoding": "inplace",
        "label": "contract IERC20",
        "numberOfBytes": "20"
      },
      "t_mapping(t_address,t_bool)": {
        "encoding": "mapping",
        "key": "t_address",
        "label": "mapping(address => bool)",
        "numberOfBytes": "32",
        "value": "t_bool"
      },
      "t_mapping(t_address,t_mapping(t_address,t_bool))": {
        "encoding": "mapping",
        "key": "t_address",
        "label": "mapping(address => mapping(address => bool))",
        "numberOfBytes": "32",
        "value": "t_mapping(t_address,t_bool)"
      },
      "t_mapping(t_address,t_mapping(t_uint256,t_uint256))": {
        "encoding": "mapping",
        "key": "t_address",
        "label": "mapping(address => mapping(uint256 => uint256))",
        "numberOfBytes": "32",
        "value": "t_mapping(t_uint256,t_uint256)"
      },
      "t_mapping(t_address,t_struct(Reward)5329_storage)": {
        "encoding": "mapping",
        "key": "t_address",
        "label": "mapping(address => struct SacredBeast.Reward)",
        "numberOfBytes": "32",
        "value": "t_struct(Reward)5329_storage"
      },
      "t_mapping(t_address,t_uint256)": {
        "encoding": "mapping",
        "key": "t_address",
        "label": "mapping(address => uint256)",
        "numberOfBytes": "32",
        "value": "t_uint256"
      },
      "t_mapping(t_uint256,t_address)": {
        "encoding": "mapping",
        "key": "t_uint256",
        "label": "mapping(uint256 => address)",
        "numberOfBytes": "32",
        "value": "t_address"
      },
      "t_mapping(t_uint256,t_array(t_struct(LockedInfo)5306_storage)dyn_storage)": {
        "encoding": "mapping",
        "key": "t_uint256",
        "label": "mapping(uint256 => struct SacredBeast.LockedInfo[])",
        "numberOfBytes": "32",
        "value": "t_array(t_struct(LockedInfo)5306_storage)dyn_storage"
      },
      "t_mapping(t_uint256,t_mapping(t_address,t_uint256))": {
        "encoding": "mapping",
        "key": "t_uint256",
        "label": "mapping(uint256 => mapping(address => uint256))",
        "numberOfBytes": "32",
        "value": "t_mapping(t_address,t_uint256)"
      },
      "t_mapping(t_uint256,t_struct(Balances)5320_storage)": {
        "encoding": "mapping",
        "key": "t_uint256",
        "label": "mapping(uint256 => struct SacredBeast.Balances)",
        "numberOfBytes": "32",
        "value": "t_struct(Balances)5320_storage"
      },
      "t_mapping(t_uint256,t_struct(BeastStat)5311_storage)": {
        "encoding": "mapping",
        "key": "t_uint256",
        "label": "mapping(uint256 => struct SacredBeast.BeastStat)",
        "numberOfBytes": "32",
        "value": "t_struct(BeastStat)5311_storage"
      },
      "t_mapping(t_uint256,t_uint256)": {
        "encoding": "mapping",
        "key": "t_uint256",
        "label": "mapping(uint256 => uint256)",
        "numberOfBytes": "32",
        "value": "t_uint256"
      },
      "t_string_storage": {
        "encoding": "bytes",
        "label": "string",
        "numberOfBytes": "32"
      },
      "t_struct(Balances)5320_storage": {
        "encoding": "inplace",
        "label": "struct SacredBeast.Balances",
        "members": [
          {
            "astId": 5313,
            "contract": "contracts/SacredBeast.sol:SacredBeast",
            "label": "total",
            "offset": 0,
            "slot": "0",
            "type": "t_uint256"
          },
          {
            "astId": 5315,
            "contract": "contracts/SacredBeast.sol:SacredBeast",
            "label": "unlocked",
            "offset": 0,
            "slot": "1",
            "type": "t_uint256"
          },
          {
            "astId": 5317,
            "contract": "contracts/SacredBeast.sol:SacredBeast",
            "label": "locked",
            "offset": 0,
            "slot": "2",
            "type": "t_uint256"
          },
          {
            "astId": 5319,
            "contract": "contracts/SacredBeast.sol:SacredBeast",
            "label": "earned",
            "offset": 0,
            "slot": "3",
            "type": "t_uint256"
          }
        ],
        "numberOfBytes": "128"
      },
      "t_struct(BeastStat)5311_storage": {
        "encoding": "inplace",
        "label": "struct SacredBeast.BeastStat",
        "members": [
          {
            "astId": 5308,
            "contract": "contracts/SacredBeast.sol:SacredBeast",
            "label": "evolForm",
            "offset": 0,
            "slot": "0",
            "type": "t_uint8"
          },
          {
            "astId": 5310,
            "contract": "contracts/SacredBeast.sol:SacredBeast",
            "label": "exp",
            "offset": 0,
            "slot": "1",
            "type": "t_uint256"
          }
        ],
        "numberOfBytes": "64"
      },
      "t_struct(LockChoice)5298_storage": {
        "encoding": "inplace",
        "label": "struct SacredBeast.LockChoice",
        "members": [
          {
            "astId": 5293,
            "contract": "contracts/SacredBeast.sol:SacredBeast",
            "label": "duration",
            "offset": 0,
            "slot": "0",
            "type": "t_uint256"
          },
          {
            "astId": 5295,
            "contract": "contracts/SacredBeast.sol:SacredBeast",
            "label": "multiplier",
            "offset": 0,
            "slot": "1",
            "type": "t_uint256"
          },
          {
            "astId": 5297,
            "contract": "contracts/SacredBeast.sol:SacredBeast",
            "label": "penalty",
            "offset": 0,
            "slot": "2",
            "type": "t_uint256"
          }
        ],
        "numberOfBytes": "96"
      },
      "t_struct(LockedInfo)5306_storage": {
        "encoding": "inplace",
        "label": "struct SacredBeast.LockedInfo",
        "members": [
          {
            "astId": 5300,
            "contract": "contracts/SacredBeast.sol:SacredBeast",
            "label": "amount",
            "offset": 0,
            "slot": "0",
            "type": "t_uint256"
          },
          {
            "astId": 5302,
            "contract": "contracts/SacredBeast.sol:SacredBeast",
            "label": "unlockTime",
            "offset": 0,
            "slot": "1",
            "type": "t_uint256"
          },
          {
            "astId": 5305,
            "contract": "contracts/SacredBeast.sol:SacredBeast",
            "label": "lockChoice",
            "offset": 0,
            "slot": "2",
            "type": "t_struct(LockChoice)5298_storage"
          }
        ],
        "numberOfBytes": "160"
      },
      "t_struct(Reward)5329_storage": {
        "encoding": "inplace",
        "label": "struct SacredBeast.Reward",
        "members": [
          {
            "astId": 5322,
            "contract": "contracts/SacredBeast.sol:SacredBeast",
            "label": "periodFinish",
            "offset": 0,
            "slot": "0",
            "type": "t_uint256"
          },
          {
            "astId": 5324,
            "contract": "contracts/SacredBeast.sol:SacredBeast",
            "label": "rewardRate",
            "offset": 0,
            "slot": "1",
            "type": "t_uint256"
          },
          {
            "astId": 5326,
            "contract": "contracts/SacredBeast.sol:SacredBeast",
            "label": "lastUpdateTime",
            "offset": 0,
            "slot": "2",
            "type": "t_uint256"
          },
          {
            "astId": 5328,
            "contract": "contracts/SacredBeast.sol:SacredBeast",
            "label": "rewardPerTokenStored",
            "offset": 0,
            "slot": "3",
            "type": "t_uint256"
          }
        ],
        "numberOfBytes": "128"
      },
      "t_uint256": {
        "encoding": "inplace",
        "label": "uint256",
        "numberOfBytes": "32"
      },
      "t_uint8": {
        "encoding": "inplace",
        "label": "uint8",
        "numberOfBytes": "1"
      }
    }
  }
}